{"abi":[{"type":"function","name":"createInvoice","inputs":[{"name":"amountDue","type":"uint256","internalType":"uint256"},{"name":"to","type":"address","internalType":"address"},{"name":"user","type":"tuple","internalType":"struct Chainvoice.UserDetails","components":[{"name":"fname","type":"string","internalType":"string"},{"name":"lname","type":"string","internalType":"string"},{"name":"email","type":"string","internalType":"string"},{"name":"country","type":"string","internalType":"string"},{"name":"city","type":"string","internalType":"string"},{"name":"postalcode","type":"string","internalType":"string"}]},{"name":"client","type":"tuple","internalType":"struct Chainvoice.UserDetails","components":[{"name":"fname","type":"string","internalType":"string"},{"name":"lname","type":"string","internalType":"string"},{"name":"email","type":"string","internalType":"string"},{"name":"country","type":"string","internalType":"string"},{"name":"city","type":"string","internalType":"string"},{"name":"postalcode","type":"string","internalType":"string"}]},{"name":"_items","type":"tuple[]","internalType":"struct Chainvoice.ItemData[]","components":[{"name":"description","type":"string","internalType":"string"},{"name":"qty","type":"int256","internalType":"int256"},{"name":"unitPrice","type":"int256","internalType":"int256"},{"name":"discount","type":"int256","internalType":"int256"},{"name":"tax","type":"int256","internalType":"int256"},{"name":"amount","type":"int256","internalType":"int256"}]}],"outputs":[],"stateMutability":"nonpayable"},{"type":"function","name":"getMyReceivedInvoices","inputs":[{"name":"add","type":"address","internalType":"address"}],"outputs":[{"name":"","type":"tuple[]","internalType":"struct Chainvoice.InvoiceDetails[]","components":[{"name":"id","type":"uint256","internalType":"uint256"},{"name":"from","type":"address","internalType":"address"},{"name":"user","type":"tuple","internalType":"struct Chainvoice.UserDetails","components":[{"name":"fname","type":"string","internalType":"string"},{"name":"lname","type":"string","internalType":"string"},{"name":"email","type":"string","internalType":"string"},{"name":"country","type":"string","internalType":"string"},{"name":"city","type":"string","internalType":"string"},{"name":"postalcode","type":"string","internalType":"string"}]},{"name":"to","type":"address","internalType":"address"},{"name":"client","type":"tuple","internalType":"struct Chainvoice.UserDetails","components":[{"name":"fname","type":"string","internalType":"string"},{"name":"lname","type":"string","internalType":"string"},{"name":"email","type":"string","internalType":"string"},{"name":"country","type":"string","internalType":"string"},{"name":"city","type":"string","internalType":"string"},{"name":"postalcode","type":"string","internalType":"string"}]},{"name":"amountDue","type":"uint256","internalType":"uint256"},{"name":"isPaid","type":"bool","internalType":"bool"}]}],"stateMutability":"view"},{"type":"function","name":"getMySentInvoices","inputs":[],"outputs":[{"name":"","type":"tuple[]","internalType":"struct Chainvoice.InvoiceDetails[]","components":[{"name":"id","type":"uint256","internalType":"uint256"},{"name":"from","type":"address","internalType":"address"},{"name":"user","type":"tuple","internalType":"struct Chainvoice.UserDetails","components":[{"name":"fname","type":"string","internalType":"string"},{"name":"lname","type":"string","internalType":"string"},{"name":"email","type":"string","internalType":"string"},{"name":"country","type":"string","internalType":"string"},{"name":"city","type":"string","internalType":"string"},{"name":"postalcode","type":"string","internalType":"string"}]},{"name":"to","type":"address","internalType":"address"},{"name":"client","type":"tuple","internalType":"struct Chainvoice.UserDetails","components":[{"name":"fname","type":"string","internalType":"string"},{"name":"lname","type":"string","internalType":"string"},{"name":"email","type":"string","internalType":"string"},{"name":"country","type":"string","internalType":"string"},{"name":"city","type":"string","internalType":"string"},{"name":"postalcode","type":"string","internalType":"string"}]},{"name":"amountDue","type":"uint256","internalType":"uint256"},{"name":"isPaid","type":"bool","internalType":"bool"}]}],"stateMutability":"view"},{"type":"function","name":"invoices","inputs":[{"name":"","type":"uint256","internalType":"uint256"}],"outputs":[{"name":"id","type":"uint256","internalType":"uint256"},{"name":"from","type":"address","internalType":"address"},{"name":"user","type":"tuple","internalType":"struct Chainvoice.UserDetails","components":[{"name":"fname","type":"string","internalType":"string"},{"name":"lname","type":"string","internalType":"string"},{"name":"email","type":"string","internalType":"string"},{"name":"country","type":"string","internalType":"string"},{"name":"city","type":"string","internalType":"string"},{"name":"postalcode","type":"string","internalType":"string"}]},{"name":"to","type":"address","internalType":"address"},{"name":"client","type":"tuple","internalType":"struct Chainvoice.UserDetails","components":[{"name":"fname","type":"string","internalType":"string"},{"name":"lname","type":"string","internalType":"string"},{"name":"email","type":"string","internalType":"string"},{"name":"country","type":"string","internalType":"string"},{"name":"city","type":"string","internalType":"string"},{"name":"postalcode","type":"string","internalType":"string"}]},{"name":"amountDue","type":"uint256","internalType":"uint256"},{"name":"isPaid","type":"bool","internalType":"bool"}],"stateMutability":"view"},{"type":"function","name":"itemDatas","inputs":[{"name":"","type":"uint256","internalType":"uint256"},{"name":"","type":"uint256","internalType":"uint256"}],"outputs":[{"name":"description","type":"string","internalType":"string"},{"name":"qty","type":"int256","internalType":"int256"},{"name":"unitPrice","type":"int256","internalType":"int256"},{"name":"discount","type":"int256","internalType":"int256"},{"name":"tax","type":"int256","internalType":"int256"},{"name":"amount","type":"int256","internalType":"int256"}],"stateMutability":"view"},{"type":"function","name":"payInvoice","inputs":[{"name":"invoiceId","type":"uint256","internalType":"uint256"}],"outputs":[],"stateMutability":"payable"},{"type":"function","name":"receivedInvoices","inputs":[{"name":"","type":"address","internalType":"address"},{"name":"","type":"uint256","internalType":"uint256"}],"outputs":[{"name":"","type":"uint256","internalType":"uint256"}],"stateMutability":"view"},{"type":"function","name":"sentInvoices","inputs":[{"name":"","type":"address","internalType":"address"},{"name":"","type":"uint256","internalType":"uint256"}],"outputs":[{"name":"","type":"uint256","internalType":"uint256"}],"stateMutability":"view"},{"type":"event","name":"InvoiceCreated","inputs":[{"name":"id","type":"uint256","indexed":false,"internalType":"uint256"},{"name":"from","type":"address","indexed":true,"internalType":"address"},{"name":"to","type":"address","indexed":true,"internalType":"address"},{"name":"amountDue","type":"uint256","indexed":false,"internalType":"uint256"}],"anonymous":false},{"type":"event","name":"InvoicePaid","inputs":[{"name":"id","type":"uint256","indexed":false,"internalType":"uint256"},{"name":"from","type":"address","indexed":true,"internalType":"address"},{"name":"to","type":"address","indexed":true,"internalType":"address"},{"name":"amountPaid","type":"uint256","indexed":false,"internalType":"uint256"}],"anonymous":false}],"bytecode":{"object":"0x608060405234801561001057600080fd5b50612266806100206000396000f3fe60806040526004361061007b5760003560e01c8063570df9121161004e578063570df912146101335780637d26dae6146101555780639dcdd30a1461016a578063ac60a6cd1461019c57600080fd5b806305fac2301461008057806339524669146100b35780634e6d1405146100d35780635094e34714610106575b600080fd5b34801561008c57600080fd5b506100a061009b366004611b58565b6101af565b6040519081526020015b60405180910390f35b3480156100bf57600080fd5b506100a06100ce366004611b58565b6101e0565b3480156100df57600080fd5b506100f36100ee366004611b82565b6101fc565b6040516100aa9796959493929190611c87565b34801561011257600080fd5b50610126610121366004611ce6565b610953565b6040516100aa9190611d08565b34801561013f57600080fd5b5061015361014e366004611fb9565b61097d565b005b34801561016157600080fd5b50610126610e37565b34801561017657600080fd5b5061018a61018536600461215b565b610e57565b6040516100aa9695949392919061217d565b6101536101aa366004611b82565b610f38565b600160205281600052604060002081815481106101cb57600080fd5b90600052602060002001600091509150505481565b600260205281600052604060002081815481106101cb57600080fd5b6000818154811061020c57600080fd5b60009182526020909120601190910201805460018201546040805160c081019091526002840180549395506001600160a01b03909216939290919082908290610254906121b9565b80601f0160208091040260200160405190810160405280929190818152602001828054610280906121b9565b80156102cd5780601f106102a2576101008083540402835291602001916102cd565b820191906000526020600020905b8154815290600101906020018083116102b057829003601f168201915b505050505081526020016001820180546102e6906121b9565b80601f0160208091040260200160405190810160405280929190818152602001828054610312906121b9565b801561035f5780601f106103345761010080835404028352916020019161035f565b820191906000526020600020905b81548152906001019060200180831161034257829003601f168201915b50505050508152602001600282018054610378906121b9565b80601f01602080910402602001604051908101604052809291908181526020018280546103a4906121b9565b80156103f15780601f106103c6576101008083540402835291602001916103f1565b820191906000526020600020905b8154815290600101906020018083116103d457829003601f168201915b5050505050815260200160038201805461040a906121b9565b80601f0160208091040260200160405190810160405280929190818152602001828054610436906121b9565b80156104835780601f1061045857610100808354040283529160200191610483565b820191906000526020600020905b81548152906001019060200180831161046657829003601f168201915b5050505050815260200160048201805461049c906121b9565b80601f01602080910402602001604051908101604052809291908181526020018280546104c8906121b9565b80156105155780601f106104ea57610100808354040283529160200191610515565b820191906000526020600020905b8154815290600101906020018083116104f857829003601f168201915b5050505050815260200160058201805461052e906121b9565b80601f016020809104026020016040519081016040528092919081815260200182805461055a906121b9565b80156105a75780601f1061057c576101008083540402835291602001916105a7565b820191906000526020600020905b81548152906001019060200180831161058a57829003601f168201915b5050509190925250505060088201546040805160c0810190915260098401805493946001600160a01b0390931693829082906105e2906121b9565b80601f016020809104026020016040519081016040528092919081815260200182805461060e906121b9565b801561065b5780601f106106305761010080835404028352916020019161065b565b820191906000526020600020905b81548152906001019060200180831161063e57829003601f168201915b50505050508152602001600182018054610674906121b9565b80601f01602080910402602001604051908101604052809291908181526020018280546106a0906121b9565b80156106ed5780601f106106c2576101008083540402835291602001916106ed565b820191906000526020600020905b8154815290600101906020018083116106d057829003601f168201915b50505050508152602001600282018054610706906121b9565b80601f0160208091040260200160405190810160405280929190818152602001828054610732906121b9565b801561077f5780601f106107545761010080835404028352916020019161077f565b820191906000526020600020905b81548152906001019060200180831161076257829003601f168201915b50505050508152602001600382018054610798906121b9565b80601f01602080910402602001604051908101604052809291908181526020018280546107c4906121b9565b80156108115780601f106107e657610100808354040283529160200191610811565b820191906000526020600020905b8154815290600101906020018083116107f457829003601f168201915b5050505050815260200160048201805461082a906121b9565b80601f0160208091040260200160405190810160405280929190818152602001828054610856906121b9565b80156108a35780601f10610878576101008083540402835291602001916108a3565b820191906000526020600020905b81548152906001019060200180831161088657829003601f168201915b505050505081526020016005820180546108bc906121b9565b80601f01602080910402602001604051908101604052809291908181526020018280546108e8906121b9565b80156109355780601f1061090a57610100808354040283529160200191610935565b820191906000526020600020905b81548152906001019060200180831161091857829003601f168201915b50505091909252505050600f82015460109092015490919060ff1687565b6001600160a01b0381166000908152600260205260409020606090610977906111ae565b92915050565b600085116109d25760405162461bcd60e51b815260206004820181905260248201527f416d6f756e74206d7573742062652067726561746572207468616e207a65726f60448201526064015b60405180910390fd5b6001600160a01b038416610a285760405162461bcd60e51b815260206004820152601f60248201527f526563656976657220616464726573732063616e6e6f74206265207a65726f0060448201526064016109c9565b336001600160a01b03851603610a8b5760405162461bcd60e51b815260206004820152602260248201527f43616e6e6f742063726561746520696e766f69636520666f7220796f75727365604482015261363360f11b60648201526084016109c9565b600080546040805160e0810182528281523360208083019182529282018881526001600160a01b038a811660608501526080840189905260a084018c905260c0840187905260018601875595805282517f290decd9548b62a8d60345a988386fc84ba6bc95484008f6362f93160ef3e5636011870290810191825592517f290decd9548b62a8d60345a988386fc84ba6bc95484008f6362f93160ef3e564840180546001600160a01b0319169190981617909655518051805195969395939491937f290decd9548b62a8d60345a988386fc84ba6bc95484008f6362f93160ef3e56590930192610b7e92849201906119e6565b506020828101518051610b9792600185019201906119e6565b5060408201518051610bb39160028401916020909101906119e6565b5060608201518051610bcf9160038401916020909101906119e6565b5060808201518051610beb9160048401916020909101906119e6565b5060a08201518051610c079160058401916020909101906119e6565b50505060608201516008820180546001600160a01b0319166001600160a01b039092169190911790556080820151805180516009840191610c4d918391602001906119e6565b506020828101518051610c6692600185019201906119e6565b5060408201518051610c829160028401916020909101906119e6565b5060608201518051610c9e9160038401916020909101906119e6565b5060808201518051610cba9160048401916020909101906119e6565b5060a08201518051610cd69160058401916020909101906119e6565b50505060a0820151600f82015560c0909101516010909101805460ff191691151591909117905560005b8251811015610dab5760008281526003602052604090208351849083908110610d2b57610d2b6121f3565b602090810291909101810151825460018101845560009384529282902081518051929460060290910192610d64928492909101906119e6565b506020820151600182015560408201516002820155606082015160038201556080820151600482015560a09091015160059091015580610da381612209565b915050610d00565b5033600081815260016020818152604080842080548085018255908552828520018690556001600160a01b038a16808552600283528185208054948501815585529382902090920185905581518581529081018a90529192917f88721abb1d35cff296c5d462601d6bdfed57e9493f8c361d2bcc24241a2ebfec910160405180910390a3505050505050565b336000908152600160205260409020606090610e52906111ae565b905090565b60036020528160005260406000208181548110610e7357600080fd5b906000526020600020906006020160009150915050806000018054610e97906121b9565b80601f0160208091040260200160405190810160405280929190818152602001828054610ec3906121b9565b8015610f105780601f10610ee557610100808354040283529160200191610f10565b820191906000526020600020905b815481529060010190602001808311610ef357829003601f168201915b5050505050908060010154908060020154908060030154908060040154908060050154905086565b6000548110610f7e5760405162461bcd60e51b8152602060048201526012602482015271125b9d985b1a59081a5b9d9bda58d948125160721b60448201526064016109c9565b6000808281548110610f9257610f926121f3565b6000918252602090912060119091020160088101549091506001600160a01b0316331461100c5760405162461bcd60e51b815260206004820152602260248201527f4e6f7420617574686f72697a656420746f20706179207468697320696e766f69604482015261636560f01b60648201526084016109c9565b601081015460ff16156110585760405162461bcd60e51b8152602060048201526014602482015273125b9d9bda58d948185b1c9958591e481c185a5960621b60448201526064016109c9565b80600f015434146110ab5760405162461bcd60e51b815260206004820152601860248201527f496e636f7272656374207061796d656e7420616d6f756e74000000000000000060448201526064016109c9565b60018101546040516000916001600160a01b03169034908381818185875af1925050503d80600081146110fa576040519150601f19603f3d011682016040523d82523d6000602084013e6110ff565b606091505b50509050806111505760405162461bcd60e51b815260206004820152601760248201527f5061796d656e74207472616e73666572206661696c656400000000000000000060448201526064016109c9565b60108201805460ff191660019081179091558201546040805185815234602082015233926001600160a01b0316917f4894261bc8821cd0e09696d6fa3e110c4034efc8f207633c1e1d16b7ea07fe7b910160405180910390a3505050565b805460609060009067ffffffffffffffff8111156111ce576111ce611dd6565b60405190808252806020026020018201604052801561120757816020015b6111f4611a6a565b8152602001906001900390816111ec5790505b50905060005b83548110156119df57600084828154811061122a5761122a6121f3565b906000526020600020015481548110611245576112456121f3565b60009182526020918290206040805160e08101825260119093029091018054835260018101546001600160a01b031693830193909352805160c081018252600284018054939493928501928290829061129d906121b9565b80601f01602080910402602001604051908101604052809291908181526020018280546112c9906121b9565b80156113165780601f106112eb57610100808354040283529160200191611316565b820191906000526020600020905b8154815290600101906020018083116112f957829003601f168201915b5050505050815260200160018201805461132f906121b9565b80601f016020809104026020016040519081016040528092919081815260200182805461135b906121b9565b80156113a85780601f1061137d576101008083540402835291602001916113a8565b820191906000526020600020905b81548152906001019060200180831161138b57829003601f168201915b505050505081526020016002820180546113c1906121b9565b80601f01602080910402602001604051908101604052809291908181526020018280546113ed906121b9565b801561143a5780601f1061140f5761010080835404028352916020019161143a565b820191906000526020600020905b81548152906001019060200180831161141d57829003601f168201915b50505050508152602001600382018054611453906121b9565b80601f016020809104026020016040519081016040528092919081815260200182805461147f906121b9565b80156114cc5780601f106114a1576101008083540402835291602001916114cc565b820191906000526020600020905b8154815290600101906020018083116114af57829003601f168201915b505050505081526020016004820180546114e5906121b9565b80601f0160208091040260200160405190810160405280929190818152602001828054611511906121b9565b801561155e5780601f106115335761010080835404028352916020019161155e565b820191906000526020600020905b81548152906001019060200180831161154157829003601f168201915b50505050508152602001600582018054611577906121b9565b80601f01602080910402602001604051908101604052809291908181526020018280546115a3906121b9565b80156115f05780601f106115c5576101008083540402835291602001916115f0565b820191906000526020600020905b8154815290600101906020018083116115d357829003601f168201915b50505091909252505050815260088201546001600160a01b031660208201526040805160c0810182526009840180549290930192909182908290611633906121b9565b80601f016020809104026020016040519081016040528092919081815260200182805461165f906121b9565b80156116ac5780601f10611681576101008083540402835291602001916116ac565b820191906000526020600020905b81548152906001019060200180831161168f57829003601f168201915b505050505081526020016001820180546116c5906121b9565b80601f01602080910402602001604051908101604052809291908181526020018280546116f1906121b9565b801561173e5780601f106117135761010080835404028352916020019161173e565b820191906000526020600020905b81548152906001019060200180831161172157829003601f168201915b50505050508152602001600282018054611757906121b9565b80601f0160208091040260200160405190810160405280929190818152602001828054611783906121b9565b80156117d05780601f106117a5576101008083540402835291602001916117d0565b820191906000526020600020905b8154815290600101906020018083116117b357829003601f168201915b505050505081526020016003820180546117e9906121b9565b80601f0160208091040260200160405190810160405280929190818152602001828054611815906121b9565b80156118625780601f1061183757610100808354040283529160200191611862565b820191906000526020600020905b81548152906001019060200180831161184557829003601f168201915b5050505050815260200160048201805461187b906121b9565b80601f01602080910402602001604051908101604052809291908181526020018280546118a7906121b9565b80156118f45780601f106118c9576101008083540402835291602001916118f4565b820191906000526020600020905b8154815290600101906020018083116118d757829003601f168201915b5050505050815260200160058201805461190d906121b9565b80601f0160208091040260200160405190810160405280929190818152602001828054611939906121b9565b80156119865780601f1061195b57610100808354040283529160200191611986565b820191906000526020600020905b81548152906001019060200180831161196957829003601f168201915b505050919092525050508152600f820154602082015260109091015460ff16151560409091015282518390839081106119c1576119c16121f3565b602002602001018190525080806119d790612209565b91505061120d565b5092915050565b8280546119f2906121b9565b90600052602060002090601f016020900481019282611a145760008555611a5a565b82601f10611a2d57805160ff1916838001178555611a5a565b82800160010185558215611a5a579182015b82811115611a5a578251825591602001919060010190611a3f565b50611a66929150611b27565b5090565b6040518060e001604052806000815260200160006001600160a01b03168152602001611ac56040518060c001604052806060815260200160608152602001606081526020016060815260200160608152602001606081525090565b815260200160006001600160a01b03168152602001611b136040518060c001604052806060815260200160608152602001606081526020016060815260200160608152602001606081525090565b815260006020820181905260409091015290565b5b80821115611a665760008155600101611b28565b80356001600160a01b0381168114611b5357600080fd5b919050565b60008060408385031215611b6b57600080fd5b611b7483611b3c565b946020939093013593505050565b600060208284031215611b9457600080fd5b5035919050565b6000815180845260005b81811015611bc157602081850181015186830182015201611ba5565b81811115611bd3576000602083870101525b50601f01601f19169290920160200192915050565b6000815160c08452611bfd60c0850182611b9b565b905060208301518482036020860152611c168282611b9b565b91505060408301518482036040860152611c308282611b9b565b91505060608301518482036060860152611c4a8282611b9b565b91505060808301518482036080860152611c648282611b9b565b91505060a083015184820360a0860152611c7e8282611b9b565b95945050505050565b878152600060018060a01b03808916602084015260e06040840152611caf60e0840189611be8565b81881660608501528381036080850152611cc98188611be8565b60a085019690965250505090151560c09091015295945050505050565b600060208284031215611cf857600080fd5b611d0182611b3c565b9392505050565b60006020808301818452808551808352604092508286019150828160051b87010184880160005b83811015611dc857888303603f19018552815180518452878101516001600160a01b03908116898601528782015160e089870181905291611d7283880183611be8565b92506060915080828501511682880152505060808083015186830382880152611d9b8382611be8565b60a0858101519089015260c094850151151594909701939093525050509386019390860190600101611d2f565b509098975050505050505050565b634e487b7160e01b600052604160045260246000fd5b60405160c0810167ffffffffffffffff81118282101715611e0f57611e0f611dd6565b60405290565b604051601f8201601f1916810167ffffffffffffffff81118282101715611e3e57611e3e611dd6565b604052919050565b600082601f830112611e5757600080fd5b813567ffffffffffffffff811115611e7157611e71611dd6565b611e84601f8201601f1916602001611e15565b818152846020838601011115611e9957600080fd5b816020850160208301376000918101602001919091529392505050565b600060c08284031215611ec857600080fd5b611ed0611dec565b9050813567ffffffffffffffff80821115611eea57600080fd5b611ef685838601611e46565b83526020840135915080821115611f0c57600080fd5b611f1885838601611e46565b60208401526040840135915080821115611f3157600080fd5b611f3d85838601611e46565b60408401526060840135915080821115611f5657600080fd5b611f6285838601611e46565b60608401526080840135915080821115611f7b57600080fd5b611f8785838601611e46565b608084015260a0840135915080821115611fa057600080fd5b50611fad84828501611e46565b60a08301525092915050565b600080600080600060a08688031215611fd157600080fd5b85359450611fe160208701611b3c565b935067ffffffffffffffff8060408801351115611ffd57600080fd5b61200d8860408901358901611eb6565b9350806060880135111561202057600080fd5b6120308860608901358901611eb6565b9250806080880135111561204357600080fd5b6080870135870188601f82011261205957600080fd5b818135111561206a5761206a611dd6565b61207a6020823560051b01611e15565b81358082526020808301929160051b8401018b101561209857600080fd5b602083015b6020843560051b8501018110156121495784813511156120bc57600080fd5b8035840160c0818e03601f190112156120d457600080fd5b6120dc611dec565b86602083013511156120ed57600080fd5b6120ff8e602080850135850101611e46565b815260408201356020820152606082013560408201526080820135606082015260a0820135608082015260c082013560a0820152808552505060208301925060208101905061209d565b50809450505050509295509295909350565b6000806040838503121561216e57600080fd5b50508035926020909101359150565b60c08152600061219060c0830189611b9b565b60208301979097525060408101949094526060840192909252608083015260a090910152919050565b600181811c908216806121cd57607f821691505b6020821081036121ed57634e487b7160e01b600052602260045260246000fd5b50919050565b634e487b7160e01b600052603260045260246000fd5b60006001820161222957634e487b7160e01b600052601160045260246000fd5b506001019056fea264697066735822122097ad9da23244baba15bbe133ff9b02fd9e0cf314960cd3658df4d8610e74654f64736f6c634300080d0033","linkReferences":{}},"methodIdentifiers":{"createInvoice(uint256,address,(string,string,string,string,string,string),(string,string,string,string,string,string),(string,int256,int256,int256,int256,int256)[])":"570df912","getMyReceivedInvoices(address)":"5094e347","getMySentInvoices()":"7d26dae6","invoices(uint256)":"4e6d1405","itemDatas(uint256,uint256)":"9dcdd30a","payInvoice(uint256)":"ac60a6cd","receivedInvoices(address,uint256)":"39524669","sentInvoices(address,uint256)":"05fac230"},"id":23}