{"abi":[{"type":"constructor","inputs":[{"name":"_priceFeed","type":"address","internalType":"address"}],"stateMutability":"nonpayable"},{"type":"function","name":"accumulatedFees","inputs":[],"outputs":[{"name":"","type":"uint256","internalType":"uint256"}],"stateMutability":"view"},{"type":"function","name":"createInvoice","inputs":[{"name":"amountDue","type":"uint256","internalType":"uint256"},{"name":"to","type":"address","internalType":"address"},{"name":"user","type":"tuple","internalType":"struct Chainvoice.UserDetails","components":[{"name":"fname","type":"string","internalType":"string"},{"name":"lname","type":"string","internalType":"string"},{"name":"email","type":"string","internalType":"string"},{"name":"country","type":"string","internalType":"string"},{"name":"city","type":"string","internalType":"string"},{"name":"postalcode","type":"string","internalType":"string"}]},{"name":"client","type":"tuple","internalType":"struct Chainvoice.UserDetails","components":[{"name":"fname","type":"string","internalType":"string"},{"name":"lname","type":"string","internalType":"string"},{"name":"email","type":"string","internalType":"string"},{"name":"country","type":"string","internalType":"string"},{"name":"city","type":"string","internalType":"string"},{"name":"postalcode","type":"string","internalType":"string"}]},{"name":"_items","type":"tuple[]","internalType":"struct Chainvoice.ItemData[]","components":[{"name":"description","type":"string","internalType":"string"},{"name":"qty","type":"int256","internalType":"int256"},{"name":"unitPrice","type":"int256","internalType":"int256"},{"name":"discount","type":"int256","internalType":"int256"},{"name":"tax","type":"int256","internalType":"int256"},{"name":"amount","type":"int256","internalType":"int256"}]}],"outputs":[],"stateMutability":"nonpayable"},{"type":"function","name":"feeAmountInUSD","inputs":[],"outputs":[{"name":"","type":"uint256","internalType":"uint256"}],"stateMutability":"view"},{"type":"function","name":"getMyReceivedInvoices","inputs":[{"name":"add","type":"address","internalType":"address"}],"outputs":[{"name":"","type":"tuple[]","internalType":"struct Chainvoice.InvoiceDetails[]","components":[{"name":"id","type":"uint256","internalType":"uint256"},{"name":"from","type":"address","internalType":"address"},{"name":"user","type":"tuple","internalType":"struct Chainvoice.UserDetails","components":[{"name":"fname","type":"string","internalType":"string"},{"name":"lname","type":"string","internalType":"string"},{"name":"email","type":"string","internalType":"string"},{"name":"country","type":"string","internalType":"string"},{"name":"city","type":"string","internalType":"string"},{"name":"postalcode","type":"string","internalType":"string"}]},{"name":"to","type":"address","internalType":"address"},{"name":"client","type":"tuple","internalType":"struct Chainvoice.UserDetails","components":[{"name":"fname","type":"string","internalType":"string"},{"name":"lname","type":"string","internalType":"string"},{"name":"email","type":"string","internalType":"string"},{"name":"country","type":"string","internalType":"string"},{"name":"city","type":"string","internalType":"string"},{"name":"postalcode","type":"string","internalType":"string"}]},{"name":"amountDue","type":"uint256","internalType":"uint256"},{"name":"isPaid","type":"bool","internalType":"bool"}]}],"stateMutability":"view"},{"type":"function","name":"getMySentInvoices","inputs":[],"outputs":[{"name":"","type":"tuple[]","internalType":"struct Chainvoice.InvoiceDetails[]","components":[{"name":"id","type":"uint256","internalType":"uint256"},{"name":"from","type":"address","internalType":"address"},{"name":"user","type":"tuple","internalType":"struct Chainvoice.UserDetails","components":[{"name":"fname","type":"string","internalType":"string"},{"name":"lname","type":"string","internalType":"string"},{"name":"email","type":"string","internalType":"string"},{"name":"country","type":"string","internalType":"string"},{"name":"city","type":"string","internalType":"string"},{"name":"postalcode","type":"string","internalType":"string"}]},{"name":"to","type":"address","internalType":"address"},{"name":"client","type":"tuple","internalType":"struct Chainvoice.UserDetails","components":[{"name":"fname","type":"string","internalType":"string"},{"name":"lname","type":"string","internalType":"string"},{"name":"email","type":"string","internalType":"string"},{"name":"country","type":"string","internalType":"string"},{"name":"city","type":"string","internalType":"string"},{"name":"postalcode","type":"string","internalType":"string"}]},{"name":"amountDue","type":"uint256","internalType":"uint256"},{"name":"isPaid","type":"bool","internalType":"bool"}]}],"stateMutability":"view"},{"type":"function","name":"invoices","inputs":[{"name":"","type":"uint256","internalType":"uint256"}],"outputs":[{"name":"id","type":"uint256","internalType":"uint256"},{"name":"from","type":"address","internalType":"address"},{"name":"user","type":"tuple","internalType":"struct Chainvoice.UserDetails","components":[{"name":"fname","type":"string","internalType":"string"},{"name":"lname","type":"string","internalType":"string"},{"name":"email","type":"string","internalType":"string"},{"name":"country","type":"string","internalType":"string"},{"name":"city","type":"string","internalType":"string"},{"name":"postalcode","type":"string","internalType":"string"}]},{"name":"to","type":"address","internalType":"address"},{"name":"client","type":"tuple","internalType":"struct Chainvoice.UserDetails","components":[{"name":"fname","type":"string","internalType":"string"},{"name":"lname","type":"string","internalType":"string"},{"name":"email","type":"string","internalType":"string"},{"name":"country","type":"string","internalType":"string"},{"name":"city","type":"string","internalType":"string"},{"name":"postalcode","type":"string","internalType":"string"}]},{"name":"amountDue","type":"uint256","internalType":"uint256"},{"name":"isPaid","type":"bool","internalType":"bool"}],"stateMutability":"view"},{"type":"function","name":"itemDatas","inputs":[{"name":"","type":"uint256","internalType":"uint256"},{"name":"","type":"uint256","internalType":"uint256"}],"outputs":[{"name":"description","type":"string","internalType":"string"},{"name":"qty","type":"int256","internalType":"int256"},{"name":"unitPrice","type":"int256","internalType":"int256"},{"name":"discount","type":"int256","internalType":"int256"},{"name":"tax","type":"int256","internalType":"int256"},{"name":"amount","type":"int256","internalType":"int256"}],"stateMutability":"view"},{"type":"function","name":"owner","inputs":[],"outputs":[{"name":"","type":"address","internalType":"address"}],"stateMutability":"view"},{"type":"function","name":"payInvoice","inputs":[{"name":"invoiceId","type":"uint256","internalType":"uint256"}],"outputs":[],"stateMutability":"payable"},{"type":"function","name":"receivedInvoices","inputs":[{"name":"","type":"address","internalType":"address"},{"name":"","type":"uint256","internalType":"uint256"}],"outputs":[{"name":"","type":"uint256","internalType":"uint256"}],"stateMutability":"view"},{"type":"function","name":"sentInvoices","inputs":[{"name":"","type":"address","internalType":"address"},{"name":"","type":"uint256","internalType":"uint256"}],"outputs":[{"name":"","type":"uint256","internalType":"uint256"}],"stateMutability":"view"},{"type":"function","name":"setFeeAmount","inputs":[{"name":"fee","type":"uint16","internalType":"uint16"}],"outputs":[],"stateMutability":"nonpayable"},{"type":"function","name":"setTreasuryAddress","inputs":[{"name":"add","type":"address","internalType":"address"}],"outputs":[],"stateMutability":"nonpayable"},{"type":"function","name":"treasuryAddress","inputs":[],"outputs":[{"name":"","type":"address","internalType":"address"}],"stateMutability":"view"},{"type":"function","name":"usdToNativeCurrencyConversion","inputs":[],"outputs":[{"name":"","type":"uint256","internalType":"uint256"}],"stateMutability":"view"},{"type":"function","name":"withdraw","inputs":[],"outputs":[],"stateMutability":"nonpayable"},{"type":"event","name":"InvoiceCreated","inputs":[{"name":"id","type":"uint256","indexed":false,"internalType":"uint256"},{"name":"from","type":"address","indexed":true,"internalType":"address"},{"name":"to","type":"address","indexed":true,"internalType":"address"},{"name":"amountDue","type":"uint256","indexed":false,"internalType":"uint256"}],"anonymous":false},{"type":"event","name":"InvoicePaid","inputs":[{"name":"id","type":"uint256","indexed":false,"internalType":"uint256"},{"name":"from","type":"address","indexed":true,"internalType":"address"},{"name":"to","type":"address","indexed":true,"internalType":"address"},{"name":"amountPaid","type":"uint256","indexed":false,"internalType":"uint256"}],"anonymous":false}],"bytecode":{"object":"0x60806040523480156200001157600080fd5b506040516200290a3803806200290a83398101604081905262000034916200006f565b600080546001600160a01b039092166001600160a01b03199283161790556005805490911633179055670de0b6b3a7640000600755620000a1565b6000602082840312156200008257600080fd5b81516001600160a01b03811681146200009a57600080fd5b9392505050565b61285980620000b16000396000f3fe6080604052600436106100f35760003560e01c80636605bfda1161008a5780639dcdd30a116100595780639dcdd30a1461029a578063ac60a6cd146102cc578063c5f956af146102df578063e848a673146102ff57600080fd5b80636605bfda146102185780636acebf85146102385780637d26dae61461024d5780638da5cb5b1461026257600080fd5b80634e6d1405116100c65780634e6d1405146101825780635094e347146101b5578063570df912146101e2578063587f5ed71461020257600080fd5b806305fac230146100f85780632758e7b11461012b578063395246691461014d5780633ccfd60b1461016d575b600080fd5b34801561010457600080fd5b50610118610113366004612015565b610315565b6040519081526020015b60405180910390f35b34801561013757600080fd5b5061014b61014636600461203f565b610346565b005b34801561015957600080fd5b50610118610168366004612015565b6103c6565b34801561017957600080fd5b5061014b6103e2565b34801561018e57600080fd5b506101a261019d36600461206a565b6104d5565b604051610122979695949392919061216f565b3480156101c157600080fd5b506101d56101d03660046121ce565b610c2c565b60405161012291906121e9565b3480156101ee57600080fd5b5061014b6101fd36600461249a565b610c56565b34801561020e57600080fd5b5061011860085481565b34801561022457600080fd5b5061014b6102333660046121ce565b61110d565b34801561024457600080fd5b506101186111eb565b34801561025957600080fd5b506101d56112e5565b34801561026e57600080fd5b50600554610282906001600160a01b031681565b6040516001600160a01b039091168152602001610122565b3480156102a657600080fd5b506102ba6102b536600461263c565b611305565b6040516101229695949392919061265e565b61014b6102da36600461206a565b6113e6565b3480156102eb57600080fd5b50600654610282906001600160a01b031681565b34801561030b57600080fd5b5061011860075481565b6002602052816000526040600020818154811061033157600080fd5b90600052602060002001600091509150505481565b6005546001600160a01b031633146103a05760405162461bcd60e51b81526020600482015260186024820152774f6e6c79204f776e65722069732061636365737369626c6560401b60448201526064015b60405180910390fd5b6103b661ffff8216670de0b6b3a76400006126b0565b67ffffffffffffffff1660075550565b6003602052816000526040600020818154811061033157600080fd5b60006008541161042a5760405162461bcd60e51b81526020600482015260136024820152724e6f206665657320746f20776974686472617760681b6044820152606401610397565b600880546000918290556006546040519192916001600160a01b039091169083908381818185875af1925050503d8060008114610483576040519150601f19603f3d011682016040523d82523d6000602084013e610488565b606091505b50509050806104d15760405162461bcd60e51b8152602060048201526015602482015274119959481dda5d1a191c985dd85b0819985a5b1959605a1b6044820152606401610397565b5050565b600181815481106104e557600080fd5b60009182526020909120601190910201805460018201546040805160c081019091526002840180549395506001600160a01b0390921693929091908290829061052d906126e0565b80601f0160208091040260200160405190810160405280929190818152602001828054610559906126e0565b80156105a65780601f1061057b576101008083540402835291602001916105a6565b820191906000526020600020905b81548152906001019060200180831161058957829003601f168201915b505050505081526020016001820180546105bf906126e0565b80601f01602080910402602001604051908101604052809291908181526020018280546105eb906126e0565b80156106385780601f1061060d57610100808354040283529160200191610638565b820191906000526020600020905b81548152906001019060200180831161061b57829003601f168201915b50505050508152602001600282018054610651906126e0565b80601f016020809104026020016040519081016040528092919081815260200182805461067d906126e0565b80156106ca5780601f1061069f576101008083540402835291602001916106ca565b820191906000526020600020905b8154815290600101906020018083116106ad57829003601f168201915b505050505081526020016003820180546106e3906126e0565b80601f016020809104026020016040519081016040528092919081815260200182805461070f906126e0565b801561075c5780601f106107315761010080835404028352916020019161075c565b820191906000526020600020905b81548152906001019060200180831161073f57829003601f168201915b50505050508152602001600482018054610775906126e0565b80601f01602080910402602001604051908101604052809291908181526020018280546107a1906126e0565b80156107ee5780601f106107c3576101008083540402835291602001916107ee565b820191906000526020600020905b8154815290600101906020018083116107d157829003601f168201915b50505050508152602001600582018054610807906126e0565b80601f0160208091040260200160405190810160405280929190818152602001828054610833906126e0565b80156108805780601f1061085557610100808354040283529160200191610880565b820191906000526020600020905b81548152906001019060200180831161086357829003601f168201915b5050509190925250505060088201546040805160c0810190915260098401805493946001600160a01b0390931693829082906108bb906126e0565b80601f01602080910402602001604051908101604052809291908181526020018280546108e7906126e0565b80156109345780601f1061090957610100808354040283529160200191610934565b820191906000526020600020905b81548152906001019060200180831161091757829003601f168201915b5050505050815260200160018201805461094d906126e0565b80601f0160208091040260200160405190810160405280929190818152602001828054610979906126e0565b80156109c65780601f1061099b576101008083540402835291602001916109c6565b820191906000526020600020905b8154815290600101906020018083116109a957829003601f168201915b505050505081526020016002820180546109df906126e0565b80601f0160208091040260200160405190810160405280929190818152602001828054610a0b906126e0565b8015610a585780601f10610a2d57610100808354040283529160200191610a58565b820191906000526020600020905b815481529060010190602001808311610a3b57829003601f168201915b50505050508152602001600382018054610a71906126e0565b80601f0160208091040260200160405190810160405280929190818152602001828054610a9d906126e0565b8015610aea5780601f10610abf57610100808354040283529160200191610aea565b820191906000526020600020905b815481529060010190602001808311610acd57829003601f168201915b50505050508152602001600482018054610b03906126e0565b80601f0160208091040260200160405190810160405280929190818152602001828054610b2f906126e0565b8015610b7c5780601f10610b5157610100808354040283529160200191610b7c565b820191906000526020600020905b815481529060010190602001808311610b5f57829003601f168201915b50505050508152602001600582018054610b95906126e0565b80601f0160208091040260200160405190810160405280929190818152602001828054610bc1906126e0565b8015610c0e5780601f10610be357610100808354040283529160200191610c0e565b820191906000526020600020905b815481529060010190602001808311610bf157829003601f168201915b50505091909252505050600f82015460109092015490919060ff1687565b6001600160a01b0381166000908152600360205260409020606090610c509061166b565b92915050565b60008511610ca65760405162461bcd60e51b815260206004820181905260248201527f416d6f756e74206d7573742062652067726561746572207468616e207a65726f6044820152606401610397565b6001600160a01b038416610cfc5760405162461bcd60e51b815260206004820152601f60248201527f526563656976657220616464726573732063616e6e6f74206265207a65726f006044820152606401610397565b336001600160a01b03851603610d5f5760405162461bcd60e51b815260206004820152602260248201527f43616e6e6f742063726561746520696e766f69636520666f7220796f75727365604482015261363360f11b6064820152608401610397565b600180546040805160e0810182528281523360208083019182529282018881526001600160a01b038a811660608501526080840189905260a084018c9052600060c0850181905286880188559690965282517fb10e2d527612073b26eecdfd717e6a320cf44b4afac2b0732d9fcbe2b7fa0cf66011870290810191825592517fb10e2d527612073b26eecdfd717e6a320cf44b4afac2b0732d9fcbe2b7fa0cf7840180546001600160a01b0319169190981617909655518051805195969395939491937fb10e2d527612073b26eecdfd717e6a320cf44b4afac2b0732d9fcbe2b7fa0cf890930192610e549284920190611ea3565b506020828101518051610e6d9260018501920190611ea3565b5060408201518051610e89916002840191602090910190611ea3565b5060608201518051610ea5916003840191602090910190611ea3565b5060808201518051610ec1916004840191602090910190611ea3565b5060a08201518051610edd916005840191602090910190611ea3565b50505060608201516008820180546001600160a01b0319166001600160a01b039092169190911790556080820151805180516009840191610f2391839160200190611ea3565b506020828101518051610f3c9260018501920190611ea3565b5060408201518051610f58916002840191602090910190611ea3565b5060608201518051610f74916003840191602090910190611ea3565b5060808201518051610f90916004840191602090910190611ea3565b5060a08201518051610fac916005840191602090910190611ea3565b50505060a0820151600f82015560c0909101516010909101805460ff191691151591909117905560005b825181101561108157600082815260046020526040902083518490839081106110015761100161271a565b60209081029190910181015182546001810184556000938452928290208151805192946006029091019261103a92849290910190611ea3565b506020820151600182015560408201516002820155606082015160038201556080820151600482015560a0909101516005909101558061107981612730565b915050610fd6565b50336000818152600260209081526040808320805460018082018355918552838520018690556001600160a01b038a1680855260038452828520805492830181558552938390200185905580518581529182018a90529192917f88721abb1d35cff296c5d462601d6bdfed57e9493f8c361d2bcc24241a2ebfec910160405180910390a3505050505050565b6005546001600160a01b031633146111625760405162461bcd60e51b81526020600482015260186024820152774f6e6c79204f776e65722069732061636365737369626c6560401b6044820152606401610397565b6001600160a01b0381166111c95760405162461bcd60e51b815260206004820152602860248201527f547265617375727920416464726573732063616e6e6f7420626520657175616c60448201526720746f207a65726f60c01b6064820152608401610397565b600680546001600160a01b0319166001600160a01b0392909216919091179055565b6000805460408051633fabe5a360e21b8152905183926001600160a01b03169163feaf968c9160048083019260a09291908290030181865afa158015611235573d6000803e3d6000fd5b505050506040513d601f19601f820116820180604052508101906112599190612763565b505050915050600081136112a45760405162461bcd60e51b8152602060048201526012602482015271496e76616c6964207072696365206461746160701b6044820152606401610397565b8060006112b6826402540be4006127b3565b90506000600754670de0b6b3a76400006112d091906127b3565b90506112dc82826127d2565b94505050505090565b3360009081526002602052604090206060906113009061166b565b905090565b6004602052816000526040600020818154811061132157600080fd5b906000526020600020906006020160009150915050806000018054611345906126e0565b80601f0160208091040260200160405190810160405280929190818152602001828054611371906126e0565b80156113be5780601f10611393576101008083540402835291602001916113be565b820191906000526020600020905b8154815290600101906020018083116113a157829003601f168201915b5050505050908060010154908060020154908060030154908060040154908060050154905086565b600154811061142c5760405162461bcd60e51b8152602060048201526012602482015271125b9d985b1a59081a5b9d9bda58d948125160721b6044820152606401610397565b6000600182815481106114415761144161271a565b6000918252602090912060119091020160088101549091506001600160a01b031633146114bb5760405162461bcd60e51b815260206004820152602260248201527f4e6f7420617574686f72697a656420746f20706179207468697320696e766f69604482015261636560f01b6064820152608401610397565b601081015460ff16156115075760405162461bcd60e51b8152602060048201526014602482015273125b9d9bda58d948185b1c9958591e481c185a5960621b6044820152606401610397565b60006115116111eb565b90508082600f015461152391906127f4565b3410156115885760405162461bcd60e51b815260206004820152602d60248201527f5061796d656e74206d75737420636f7665722074686520696e766f696365206160448201526c6d6f756e7420616e642066656560981b6064820152608401610397565b6000611594823461280c565b60018401546040519192506000916001600160a01b039091169083908381818185875af1925050503d80600081146115e8576040519150601f19603f3d011682016040523d82523d6000602084013e6115ed565b606091505b505090508061163e5760405162461bcd60e51b815260206004820152601760248201527f5061796d656e74207472616e73666572206661696c65640000000000000000006044820152606401610397565b826008600082825461165091906127f4565b9091555050506010909201805460ff19166001179055505050565b805460609060009067ffffffffffffffff81111561168b5761168b6122b7565b6040519080825280602002602001820160405280156116c457816020015b6116b1611f27565b8152602001906001900390816116a95790505b50905060005b8354811015611e9c5760018482815481106116e7576116e761271a565b9060005260206000200154815481106117025761170261271a565b60009182526020918290206040805160e08101825260119093029091018054835260018101546001600160a01b031693830193909352805160c081018252600284018054939493928501928290829061175a906126e0565b80601f0160208091040260200160405190810160405280929190818152602001828054611786906126e0565b80156117d35780601f106117a8576101008083540402835291602001916117d3565b820191906000526020600020905b8154815290600101906020018083116117b657829003601f168201915b505050505081526020016001820180546117ec906126e0565b80601f0160208091040260200160405190810160405280929190818152602001828054611818906126e0565b80156118655780601f1061183a57610100808354040283529160200191611865565b820191906000526020600020905b81548152906001019060200180831161184857829003601f168201915b5050505050815260200160028201805461187e906126e0565b80601f01602080910402602001604051908101604052809291908181526020018280546118aa906126e0565b80156118f75780601f106118cc576101008083540402835291602001916118f7565b820191906000526020600020905b8154815290600101906020018083116118da57829003601f168201915b50505050508152602001600382018054611910906126e0565b80601f016020809104026020016040519081016040528092919081815260200182805461193c906126e0565b80156119895780601f1061195e57610100808354040283529160200191611989565b820191906000526020600020905b81548152906001019060200180831161196c57829003601f168201915b505050505081526020016004820180546119a2906126e0565b80601f01602080910402602001604051908101604052809291908181526020018280546119ce906126e0565b8015611a1b5780601f106119f057610100808354040283529160200191611a1b565b820191906000526020600020905b8154815290600101906020018083116119fe57829003601f168201915b50505050508152602001600582018054611a34906126e0565b80601f0160208091040260200160405190810160405280929190818152602001828054611a60906126e0565b8015611aad5780601f10611a8257610100808354040283529160200191611aad565b820191906000526020600020905b815481529060010190602001808311611a9057829003601f168201915b50505091909252505050815260088201546001600160a01b031660208201526040805160c0810182526009840180549290930192909182908290611af0906126e0565b80601f0160208091040260200160405190810160405280929190818152602001828054611b1c906126e0565b8015611b695780601f10611b3e57610100808354040283529160200191611b69565b820191906000526020600020905b815481529060010190602001808311611b4c57829003601f168201915b50505050508152602001600182018054611b82906126e0565b80601f0160208091040260200160405190810160405280929190818152602001828054611bae906126e0565b8015611bfb5780601f10611bd057610100808354040283529160200191611bfb565b820191906000526020600020905b815481529060010190602001808311611bde57829003601f168201915b50505050508152602001600282018054611c14906126e0565b80601f0160208091040260200160405190810160405280929190818152602001828054611c40906126e0565b8015611c8d5780601f10611c6257610100808354040283529160200191611c8d565b820191906000526020600020905b815481529060010190602001808311611c7057829003601f168201915b50505050508152602001600382018054611ca6906126e0565b80601f0160208091040260200160405190810160405280929190818152602001828054611cd2906126e0565b8015611d1f5780601f10611cf457610100808354040283529160200191611d1f565b820191906000526020600020905b815481529060010190602001808311611d0257829003601f168201915b50505050508152602001600482018054611d38906126e0565b80601f0160208091040260200160405190810160405280929190818152602001828054611d64906126e0565b8015611db15780601f10611d8657610100808354040283529160200191611db1565b820191906000526020600020905b815481529060010190602001808311611d9457829003601f168201915b50505050508152602001600582018054611dca906126e0565b80601f0160208091040260200160405190810160405280929190818152602001828054611df6906126e0565b8015611e435780601f10611e1857610100808354040283529160200191611e43565b820191906000526020600020905b815481529060010190602001808311611e2657829003601f168201915b505050919092525050508152600f820154602082015260109091015460ff1615156040909101528251839083908110611e7e57611e7e61271a565b60200260200101819052508080611e9490612730565b9150506116ca565b5092915050565b828054611eaf906126e0565b90600052602060002090601f016020900481019282611ed15760008555611f17565b82601f10611eea57805160ff1916838001178555611f17565b82800160010185558215611f17579182015b82811115611f17578251825591602001919060010190611efc565b50611f23929150611fe4565b5090565b6040518060e001604052806000815260200160006001600160a01b03168152602001611f826040518060c001604052806060815260200160608152602001606081526020016060815260200160608152602001606081525090565b815260200160006001600160a01b03168152602001611fd06040518060c001604052806060815260200160608152602001606081526020016060815260200160608152602001606081525090565b815260006020820181905260409091015290565b5b80821115611f235760008155600101611fe5565b80356001600160a01b038116811461201057600080fd5b919050565b6000806040838503121561202857600080fd5b61203183611ff9565b946020939093013593505050565b60006020828403121561205157600080fd5b813561ffff8116811461206357600080fd5b9392505050565b60006020828403121561207c57600080fd5b5035919050565b6000815180845260005b818110156120a95760208185018101518683018201520161208d565b818111156120bb576000602083870101525b50601f01601f19169290920160200192915050565b6000815160c084526120e560c0850182612083565b9050602083015184820360208601526120fe8282612083565b915050604083015184820360408601526121188282612083565b915050606083015184820360608601526121328282612083565b9150506080830151848203608086015261214c8282612083565b91505060a083015184820360a08601526121668282612083565b95945050505050565b878152600060018060a01b03808916602084015260e0604084015261219760e08401896120d0565b818816606085015283810360808501526121b181886120d0565b60a085019690965250505090151560c09091015295945050505050565b6000602082840312156121e057600080fd5b61206382611ff9565b60006020808301818452808551808352604092508286019150828160051b87010184880160005b838110156122a957888303603f19018552815180518452878101516001600160a01b03908116898601528782015160e089870181905291612253838801836120d0565b9250606091508082850151168288015250506080808301518683038288015261227c83826120d0565b60a0858101519089015260c094850151151594909701939093525050509386019390860190600101612210565b509098975050505050505050565b634e487b7160e01b600052604160045260246000fd5b60405160c0810167ffffffffffffffff811182821017156122f0576122f06122b7565b60405290565b604051601f8201601f1916810167ffffffffffffffff8111828210171561231f5761231f6122b7565b604052919050565b600082601f83011261233857600080fd5b813567ffffffffffffffff811115612352576123526122b7565b612365601f8201601f19166020016122f6565b81815284602083860101111561237a57600080fd5b816020850160208301376000918101602001919091529392505050565b600060c082840312156123a957600080fd5b6123b16122cd565b9050813567ffffffffffffffff808211156123cb57600080fd5b6123d785838601612327565b835260208401359150808211156123ed57600080fd5b6123f985838601612327565b6020840152604084013591508082111561241257600080fd5b61241e85838601612327565b6040840152606084013591508082111561243757600080fd5b61244385838601612327565b6060840152608084013591508082111561245c57600080fd5b61246885838601612327565b608084015260a084013591508082111561248157600080fd5b5061248e84828501612327565b60a08301525092915050565b600080600080600060a086880312156124b257600080fd5b853594506124c260208701611ff9565b935067ffffffffffffffff80604088013511156124de57600080fd5b6124ee8860408901358901612397565b9350806060880135111561250157600080fd5b6125118860608901358901612397565b9250806080880135111561252457600080fd5b6080870135870188601f82011261253a57600080fd5b818135111561254b5761254b6122b7565b61255b6020823560051b016122f6565b81358082526020808301929160051b8401018b101561257957600080fd5b602083015b6020843560051b85010181101561262a57848135111561259d57600080fd5b8035840160c0818e03601f190112156125b557600080fd5b6125bd6122cd565b86602083013511156125ce57600080fd5b6125e08e602080850135850101612327565b815260408201356020820152606082013560408201526080820135606082015260a0820135608082015260c082013560a0820152808552505060208301925060208101905061257e565b50809450505050509295509295909350565b6000806040838503121561264f57600080fd5b50508035926020909101359150565b60c08152600061267160c0830189612083565b60208301979097525060408101949094526060840192909252608083015260a090910152919050565b634e487b7160e01b600052601160045260246000fd5b600067ffffffffffffffff808316818516818304811182151516156126d7576126d761269a565b02949350505050565b600181811c908216806126f457607f821691505b60208210810361271457634e487b7160e01b600052602260045260246000fd5b50919050565b634e487b7160e01b600052603260045260246000fd5b6000600182016127425761274261269a565b5060010190565b805169ffffffffffffffffffff8116811461201057600080fd5b600080600080600060a0868803121561277b57600080fd5b61278486612749565b94506020860151935060408601519250606086015191506127a760808701612749565b90509295509295909350565b60008160001904831182151516156127cd576127cd61269a565b500290565b6000826127ef57634e487b7160e01b600052601260045260246000fd5b500490565b600082198211156128075761280761269a565b500190565b60008282101561281e5761281e61269a565b50039056fea2646970667358221220b0c64b11d8098bfc4cdb7687ed73c3276f01c77c156653d5f4510460a1c87d9664736f6c634300080d0033","linkReferences":{}},"methodIdentifiers":{"accumulatedFees()":"587f5ed7","createInvoice(uint256,address,(string,string,string,string,string,string),(string,string,string,string,string,string),(string,int256,int256,int256,int256,int256)[])":"570df912","feeAmountInUSD()":"e848a673","getMyReceivedInvoices(address)":"5094e347","getMySentInvoices()":"7d26dae6","invoices(uint256)":"4e6d1405","itemDatas(uint256,uint256)":"9dcdd30a","owner()":"8da5cb5b","payInvoice(uint256)":"ac60a6cd","receivedInvoices(address,uint256)":"39524669","sentInvoices(address,uint256)":"05fac230","setFeeAmount(uint16)":"2758e7b1","setTreasuryAddress(address)":"6605bfda","treasuryAddress()":"c5f956af","usdToNativeCurrencyConversion()":"6acebf85","withdraw()":"3ccfd60b"},"id":24}