{"abi":[{"type":"constructor","inputs":[{"name":"_priceFeed","type":"address","internalType":"address"}],"stateMutability":"nonpayable"},{"type":"function","name":"accumulatedFees","inputs":[],"outputs":[{"name":"","type":"uint256","internalType":"uint256"}],"stateMutability":"view"},{"type":"function","name":"createInvoice","inputs":[{"name":"amountDue","type":"uint256","internalType":"uint256"},{"name":"to","type":"address","internalType":"address"},{"name":"user","type":"tuple","internalType":"struct Chainvoice.UserDetails","components":[{"name":"fname","type":"string","internalType":"string"},{"name":"lname","type":"string","internalType":"string"},{"name":"email","type":"string","internalType":"string"},{"name":"country","type":"string","internalType":"string"},{"name":"city","type":"string","internalType":"string"},{"name":"postalcode","type":"string","internalType":"string"}]},{"name":"client","type":"tuple","internalType":"struct Chainvoice.UserDetails","components":[{"name":"fname","type":"string","internalType":"string"},{"name":"lname","type":"string","internalType":"string"},{"name":"email","type":"string","internalType":"string"},{"name":"country","type":"string","internalType":"string"},{"name":"city","type":"string","internalType":"string"},{"name":"postalcode","type":"string","internalType":"string"}]},{"name":"_items","type":"tuple[]","internalType":"struct Chainvoice.ItemData[]","components":[{"name":"description","type":"string","internalType":"string"},{"name":"qty","type":"int256","internalType":"int256"},{"name":"unitPrice","type":"int256","internalType":"int256"},{"name":"discount","type":"int256","internalType":"int256"},{"name":"tax","type":"int256","internalType":"int256"},{"name":"amount","type":"int256","internalType":"int256"}]}],"outputs":[],"stateMutability":"nonpayable"},{"type":"function","name":"feeAmountInUSD","inputs":[],"outputs":[{"name":"","type":"uint16","internalType":"uint16"}],"stateMutability":"view"},{"type":"function","name":"getMyReceivedInvoices","inputs":[{"name":"add","type":"address","internalType":"address"}],"outputs":[{"name":"","type":"tuple[]","internalType":"struct Chainvoice.InvoiceDetails[]","components":[{"name":"id","type":"uint256","internalType":"uint256"},{"name":"from","type":"address","internalType":"address"},{"name":"user","type":"tuple","internalType":"struct Chainvoice.UserDetails","components":[{"name":"fname","type":"string","internalType":"string"},{"name":"lname","type":"string","internalType":"string"},{"name":"email","type":"string","internalType":"string"},{"name":"country","type":"string","internalType":"string"},{"name":"city","type":"string","internalType":"string"},{"name":"postalcode","type":"string","internalType":"string"}]},{"name":"to","type":"address","internalType":"address"},{"name":"client","type":"tuple","internalType":"struct Chainvoice.UserDetails","components":[{"name":"fname","type":"string","internalType":"string"},{"name":"lname","type":"string","internalType":"string"},{"name":"email","type":"string","internalType":"string"},{"name":"country","type":"string","internalType":"string"},{"name":"city","type":"string","internalType":"string"},{"name":"postalcode","type":"string","internalType":"string"}]},{"name":"amountDue","type":"uint256","internalType":"uint256"},{"name":"isPaid","type":"bool","internalType":"bool"}]}],"stateMutability":"view"},{"type":"function","name":"getMySentInvoices","inputs":[],"outputs":[{"name":"","type":"tuple[]","internalType":"struct Chainvoice.InvoiceDetails[]","components":[{"name":"id","type":"uint256","internalType":"uint256"},{"name":"from","type":"address","internalType":"address"},{"name":"user","type":"tuple","internalType":"struct Chainvoice.UserDetails","components":[{"name":"fname","type":"string","internalType":"string"},{"name":"lname","type":"string","internalType":"string"},{"name":"email","type":"string","internalType":"string"},{"name":"country","type":"string","internalType":"string"},{"name":"city","type":"string","internalType":"string"},{"name":"postalcode","type":"string","internalType":"string"}]},{"name":"to","type":"address","internalType":"address"},{"name":"client","type":"tuple","internalType":"struct Chainvoice.UserDetails","components":[{"name":"fname","type":"string","internalType":"string"},{"name":"lname","type":"string","internalType":"string"},{"name":"email","type":"string","internalType":"string"},{"name":"country","type":"string","internalType":"string"},{"name":"city","type":"string","internalType":"string"},{"name":"postalcode","type":"string","internalType":"string"}]},{"name":"amountDue","type":"uint256","internalType":"uint256"},{"name":"isPaid","type":"bool","internalType":"bool"}]}],"stateMutability":"view"},{"type":"function","name":"invoices","inputs":[{"name":"","type":"uint256","internalType":"uint256"}],"outputs":[{"name":"id","type":"uint256","internalType":"uint256"},{"name":"from","type":"address","internalType":"address"},{"name":"user","type":"tuple","internalType":"struct Chainvoice.UserDetails","components":[{"name":"fname","type":"string","internalType":"string"},{"name":"lname","type":"string","internalType":"string"},{"name":"email","type":"string","internalType":"string"},{"name":"country","type":"string","internalType":"string"},{"name":"city","type":"string","internalType":"string"},{"name":"postalcode","type":"string","internalType":"string"}]},{"name":"to","type":"address","internalType":"address"},{"name":"client","type":"tuple","internalType":"struct Chainvoice.UserDetails","components":[{"name":"fname","type":"string","internalType":"string"},{"name":"lname","type":"string","internalType":"string"},{"name":"email","type":"string","internalType":"string"},{"name":"country","type":"string","internalType":"string"},{"name":"city","type":"string","internalType":"string"},{"name":"postalcode","type":"string","internalType":"string"}]},{"name":"amountDue","type":"uint256","internalType":"uint256"},{"name":"isPaid","type":"bool","internalType":"bool"}],"stateMutability":"view"},{"type":"function","name":"itemDatas","inputs":[{"name":"","type":"uint256","internalType":"uint256"},{"name":"","type":"uint256","internalType":"uint256"}],"outputs":[{"name":"description","type":"string","internalType":"string"},{"name":"qty","type":"int256","internalType":"int256"},{"name":"unitPrice","type":"int256","internalType":"int256"},{"name":"discount","type":"int256","internalType":"int256"},{"name":"tax","type":"int256","internalType":"int256"},{"name":"amount","type":"int256","internalType":"int256"}],"stateMutability":"view"},{"type":"function","name":"owner","inputs":[],"outputs":[{"name":"","type":"address","internalType":"address"}],"stateMutability":"view"},{"type":"function","name":"payInvoice","inputs":[{"name":"invoiceId","type":"uint256","internalType":"uint256"}],"outputs":[],"stateMutability":"payable"},{"type":"function","name":"receivedInvoices","inputs":[{"name":"","type":"address","internalType":"address"},{"name":"","type":"uint256","internalType":"uint256"}],"outputs":[{"name":"","type":"uint256","internalType":"uint256"}],"stateMutability":"view"},{"type":"function","name":"sentInvoices","inputs":[{"name":"","type":"address","internalType":"address"},{"name":"","type":"uint256","internalType":"uint256"}],"outputs":[{"name":"","type":"uint256","internalType":"uint256"}],"stateMutability":"view"},{"type":"function","name":"setFeeAmount","inputs":[{"name":"fee","type":"uint16","internalType":"uint16"}],"outputs":[],"stateMutability":"nonpayable"},{"type":"function","name":"setTreasuryAddress","inputs":[{"name":"add","type":"address","internalType":"address"}],"outputs":[],"stateMutability":"nonpayable"},{"type":"function","name":"treasuryAddress","inputs":[],"outputs":[{"name":"","type":"address","internalType":"address"}],"stateMutability":"view"},{"type":"function","name":"usdToNativeCurrencyConversion","inputs":[],"outputs":[{"name":"","type":"uint256","internalType":"uint256"}],"stateMutability":"view"},{"type":"function","name":"withdraw","inputs":[],"outputs":[],"stateMutability":"nonpayable"},{"type":"event","name":"InvoiceCreated","inputs":[{"name":"id","type":"uint256","indexed":false,"internalType":"uint256"},{"name":"from","type":"address","indexed":true,"internalType":"address"},{"name":"to","type":"address","indexed":true,"internalType":"address"},{"name":"amountDue","type":"uint256","indexed":false,"internalType":"uint256"}],"anonymous":false},{"type":"event","name":"InvoicePaid","inputs":[{"name":"id","type":"uint256","indexed":false,"internalType":"uint256"},{"name":"from","type":"address","indexed":true,"internalType":"address"},{"name":"to","type":"address","indexed":true,"internalType":"address"},{"name":"amountPaid","type":"uint256","indexed":false,"internalType":"uint256"}],"anonymous":false}],"bytecode":{"object":"0x60806040523480156200001157600080fd5b506040516200290c3803806200290c833981016040819052620000349162000077565b600080546001600160a01b039092166001600160a01b031992831617905560058054909116331790556006805461ffff60a01b1916600160a01b179055620000a9565b6000602082840312156200008a57600080fd5b81516001600160a01b0381168114620000a257600080fd5b9392505050565b61285380620000b96000396000f3fe6080604052600436106100f35760003560e01c80636605bfda1161008a5780639dcdd30a116100595780639dcdd30a1461029a578063ac60a6cd146102cc578063c5f956af146102df578063e848a673146102ff57600080fd5b80636605bfda146102185780636acebf85146102385780637d26dae61461024d5780638da5cb5b1461026257600080fd5b80634e6d1405116100c65780634e6d1405146101825780635094e347146101b5578063570df912146101e2578063587f5ed71461020257600080fd5b806305fac230146100f85780632758e7b11461012b578063395246691461014d5780633ccfd60b1461016d575b600080fd5b34801561010457600080fd5b5061011861011336600461202e565b610334565b6040519081526020015b60405180910390f35b34801561013757600080fd5b5061014b610146366004612058565b610365565b005b34801561015957600080fd5b5061011861016836600461202e565b6103e1565b34801561017957600080fd5b5061014b6103fd565b34801561018e57600080fd5b506101a261019d366004612083565b6104f0565b6040516101229796959493929190612188565b3480156101c157600080fd5b506101d56101d03660046121e7565b610c47565b6040516101229190612202565b3480156101ee57600080fd5b5061014b6101fd3660046124b3565b610c71565b34801561020e57600080fd5b5061011860075481565b34801561022457600080fd5b5061014b6102333660046121e7565b611128565b34801561024457600080fd5b50610118611206565b34801561025957600080fd5b506101d56112fe565b34801561026e57600080fd5b50600554610282906001600160a01b031681565b6040516001600160a01b039091168152602001610122565b3480156102a657600080fd5b506102ba6102b5366004612655565b61131e565b60405161012296959493929190612677565b61014b6102da366004612083565b6113ff565b3480156102eb57600080fd5b50600654610282906001600160a01b031681565b34801561030b57600080fd5b5060065461032190600160a01b900461ffff1681565b60405161ffff9091168152602001610122565b6002602052816000526040600020818154811061035057600080fd5b90600052602060002001600091509150505481565b6005546001600160a01b031633146103bf5760405162461bcd60e51b81526020600482015260186024820152774f6e6c79204f776e65722069732061636365737369626c6560401b60448201526064015b60405180910390fd5b6006805461ffff909216600160a01b0261ffff60a01b19909216919091179055565b6003602052816000526040600020818154811061035057600080fd5b6000600754116104455760405162461bcd60e51b81526020600482015260136024820152724e6f206665657320746f20776974686472617760681b60448201526064016103b6565b600780546000918290556006546040519192916001600160a01b039091169083908381818185875af1925050503d806000811461049e576040519150601f19603f3d011682016040523d82523d6000602084013e6104a3565b606091505b50509050806104ec5760405162461bcd60e51b8152602060048201526015602482015274119959481dda5d1a191c985dd85b0819985a5b1959605a1b60448201526064016103b6565b5050565b6001818154811061050057600080fd5b60009182526020909120601190910201805460018201546040805160c081019091526002840180549395506001600160a01b03909216939290919082908290610548906126b3565b80601f0160208091040260200160405190810160405280929190818152602001828054610574906126b3565b80156105c15780601f10610596576101008083540402835291602001916105c1565b820191906000526020600020905b8154815290600101906020018083116105a457829003601f168201915b505050505081526020016001820180546105da906126b3565b80601f0160208091040260200160405190810160405280929190818152602001828054610606906126b3565b80156106535780601f1061062857610100808354040283529160200191610653565b820191906000526020600020905b81548152906001019060200180831161063657829003601f168201915b5050505050815260200160028201805461066c906126b3565b80601f0160208091040260200160405190810160405280929190818152602001828054610698906126b3565b80156106e55780601f106106ba576101008083540402835291602001916106e5565b820191906000526020600020905b8154815290600101906020018083116106c857829003601f168201915b505050505081526020016003820180546106fe906126b3565b80601f016020809104026020016040519081016040528092919081815260200182805461072a906126b3565b80156107775780601f1061074c57610100808354040283529160200191610777565b820191906000526020600020905b81548152906001019060200180831161075a57829003601f168201915b50505050508152602001600482018054610790906126b3565b80601f01602080910402602001604051908101604052809291908181526020018280546107bc906126b3565b80156108095780601f106107de57610100808354040283529160200191610809565b820191906000526020600020905b8154815290600101906020018083116107ec57829003601f168201915b50505050508152602001600582018054610822906126b3565b80601f016020809104026020016040519081016040528092919081815260200182805461084e906126b3565b801561089b5780601f106108705761010080835404028352916020019161089b565b820191906000526020600020905b81548152906001019060200180831161087e57829003601f168201915b5050509190925250505060088201546040805160c0810190915260098401805493946001600160a01b0390931693829082906108d6906126b3565b80601f0160208091040260200160405190810160405280929190818152602001828054610902906126b3565b801561094f5780601f106109245761010080835404028352916020019161094f565b820191906000526020600020905b81548152906001019060200180831161093257829003601f168201915b50505050508152602001600182018054610968906126b3565b80601f0160208091040260200160405190810160405280929190818152602001828054610994906126b3565b80156109e15780601f106109b6576101008083540402835291602001916109e1565b820191906000526020600020905b8154815290600101906020018083116109c457829003601f168201915b505050505081526020016002820180546109fa906126b3565b80601f0160208091040260200160405190810160405280929190818152602001828054610a26906126b3565b8015610a735780601f10610a4857610100808354040283529160200191610a73565b820191906000526020600020905b815481529060010190602001808311610a5657829003601f168201915b50505050508152602001600382018054610a8c906126b3565b80601f0160208091040260200160405190810160405280929190818152602001828054610ab8906126b3565b8015610b055780601f10610ada57610100808354040283529160200191610b05565b820191906000526020600020905b815481529060010190602001808311610ae857829003601f168201915b50505050508152602001600482018054610b1e906126b3565b80601f0160208091040260200160405190810160405280929190818152602001828054610b4a906126b3565b8015610b975780601f10610b6c57610100808354040283529160200191610b97565b820191906000526020600020905b815481529060010190602001808311610b7a57829003601f168201915b50505050508152602001600582018054610bb0906126b3565b80601f0160208091040260200160405190810160405280929190818152602001828054610bdc906126b3565b8015610c295780601f10610bfe57610100808354040283529160200191610c29565b820191906000526020600020905b815481529060010190602001808311610c0c57829003601f168201915b50505091909252505050600f82015460109092015490919060ff1687565b6001600160a01b0381166000908152600360205260409020606090610c6b90611684565b92915050565b60008511610cc15760405162461bcd60e51b815260206004820181905260248201527f416d6f756e74206d7573742062652067726561746572207468616e207a65726f60448201526064016103b6565b6001600160a01b038416610d175760405162461bcd60e51b815260206004820152601f60248201527f526563656976657220616464726573732063616e6e6f74206265207a65726f0060448201526064016103b6565b336001600160a01b03851603610d7a5760405162461bcd60e51b815260206004820152602260248201527f43616e6e6f742063726561746520696e766f69636520666f7220796f75727365604482015261363360f11b60648201526084016103b6565b600180546040805160e0810182528281523360208083019182529282018881526001600160a01b038a811660608501526080840189905260a084018c9052600060c0850181905286880188559690965282517fb10e2d527612073b26eecdfd717e6a320cf44b4afac2b0732d9fcbe2b7fa0cf66011870290810191825592517fb10e2d527612073b26eecdfd717e6a320cf44b4afac2b0732d9fcbe2b7fa0cf7840180546001600160a01b0319169190981617909655518051805195969395939491937fb10e2d527612073b26eecdfd717e6a320cf44b4afac2b0732d9fcbe2b7fa0cf890930192610e6f9284920190611ebc565b506020828101518051610e889260018501920190611ebc565b5060408201518051610ea4916002840191602090910190611ebc565b5060608201518051610ec0916003840191602090910190611ebc565b5060808201518051610edc916004840191602090910190611ebc565b5060a08201518051610ef8916005840191602090910190611ebc565b50505060608201516008820180546001600160a01b0319166001600160a01b039092169190911790556080820151805180516009840191610f3e91839160200190611ebc565b506020828101518051610f579260018501920190611ebc565b5060408201518051610f73916002840191602090910190611ebc565b5060608201518051610f8f916003840191602090910190611ebc565b5060808201518051610fab916004840191602090910190611ebc565b5060a08201518051610fc7916005840191602090910190611ebc565b50505060a0820151600f82015560c0909101516010909101805460ff191691151591909117905560005b825181101561109c576000828152600460205260409020835184908390811061101c5761101c6126ed565b60209081029190910181015182546001810184556000938452928290208151805192946006029091019261105592849290910190611ebc565b506020820151600182015560408201516002820155606082015160038201556080820151600482015560a0909101516005909101558061109481612719565b915050610ff1565b50336000818152600260209081526040808320805460018082018355918552838520018690556001600160a01b038a1680855260038452828520805492830181558552938390200185905580518581529182018a90529192917f88721abb1d35cff296c5d462601d6bdfed57e9493f8c361d2bcc24241a2ebfec910160405180910390a3505050505050565b6005546001600160a01b0316331461117d5760405162461bcd60e51b81526020600482015260186024820152774f6e6c79204f776e65722069732061636365737369626c6560401b60448201526064016103b6565b6001600160a01b0381166111e45760405162461bcd60e51b815260206004820152602860248201527f547265617375727920416464726573732063616e6e6f7420626520657175616c60448201526720746f207a65726f60c01b60648201526084016103b6565b600680546001600160a01b0319166001600160a01b0392909216919091179055565b6000805460408051633fabe5a360e21b8152905183926001600160a01b03169163feaf968c9160048083019260a09291908290030181865afa158015611250573d6000803e3d6000fd5b505050506040513d601f19601f82011682018060405250810190611274919061274c565b505050915050600081136112bf5760405162461bcd60e51b8152602060048201526012602482015271496e76616c6964207072696365206461746160701b60448201526064016103b6565b600654819081906112e390600160a01b900461ffff16670de0b6b3a764000061279c565b67ffffffffffffffff166112f791906127cc565b9250505090565b33600090815260026020526040902060609061131990611684565b905090565b6004602052816000526040600020818154811061133a57600080fd5b90600052602060002090600602016000915091505080600001805461135e906126b3565b80601f016020809104026020016040519081016040528092919081815260200182805461138a906126b3565b80156113d75780601f106113ac576101008083540402835291602001916113d7565b820191906000526020600020905b8154815290600101906020018083116113ba57829003601f168201915b5050505050908060010154908060020154908060030154908060040154908060050154905086565b60015481106114455760405162461bcd60e51b8152602060048201526012602482015271125b9d985b1a59081a5b9d9bda58d948125160721b60448201526064016103b6565b60006001828154811061145a5761145a6126ed565b6000918252602090912060119091020160088101549091506001600160a01b031633146114d45760405162461bcd60e51b815260206004820152602260248201527f4e6f7420617574686f72697a656420746f20706179207468697320696e766f69604482015261636560f01b60648201526084016103b6565b601081015460ff16156115205760405162461bcd60e51b8152602060048201526014602482015273125b9d9bda58d948185b1c9958591e481c185a5960621b60448201526064016103b6565b600061152a611206565b90508082600f015461153c91906127ee565b3410156115a15760405162461bcd60e51b815260206004820152602d60248201527f5061796d656e74206d75737420636f7665722074686520696e766f696365206160448201526c6d6f756e7420616e642066656560981b60648201526084016103b6565b60006115ad8234612806565b60018401546040519192506000916001600160a01b039091169083908381818185875af1925050503d8060008114611601576040519150601f19603f3d011682016040523d82523d6000602084013e611606565b606091505b50509050806116575760405162461bcd60e51b815260206004820152601760248201527f5061796d656e74207472616e73666572206661696c656400000000000000000060448201526064016103b6565b826007600082825461166991906127ee565b9091555050506010909201805460ff19166001179055505050565b805460609060009067ffffffffffffffff8111156116a4576116a46122d0565b6040519080825280602002602001820160405280156116dd57816020015b6116ca611f40565b8152602001906001900390816116c25790505b50905060005b8354811015611eb5576001848281548110611700576117006126ed565b90600052602060002001548154811061171b5761171b6126ed565b60009182526020918290206040805160e08101825260119093029091018054835260018101546001600160a01b031693830193909352805160c0810182526002840180549394939285019282908290611773906126b3565b80601f016020809104026020016040519081016040528092919081815260200182805461179f906126b3565b80156117ec5780601f106117c1576101008083540402835291602001916117ec565b820191906000526020600020905b8154815290600101906020018083116117cf57829003601f168201915b50505050508152602001600182018054611805906126b3565b80601f0160208091040260200160405190810160405280929190818152602001828054611831906126b3565b801561187e5780601f106118535761010080835404028352916020019161187e565b820191906000526020600020905b81548152906001019060200180831161186157829003601f168201915b50505050508152602001600282018054611897906126b3565b80601f01602080910402602001604051908101604052809291908181526020018280546118c3906126b3565b80156119105780601f106118e557610100808354040283529160200191611910565b820191906000526020600020905b8154815290600101906020018083116118f357829003601f168201915b50505050508152602001600382018054611929906126b3565b80601f0160208091040260200160405190810160405280929190818152602001828054611955906126b3565b80156119a25780601f10611977576101008083540402835291602001916119a2565b820191906000526020600020905b81548152906001019060200180831161198557829003601f168201915b505050505081526020016004820180546119bb906126b3565b80601f01602080910402602001604051908101604052809291908181526020018280546119e7906126b3565b8015611a345780601f10611a0957610100808354040283529160200191611a34565b820191906000526020600020905b815481529060010190602001808311611a1757829003601f168201915b50505050508152602001600582018054611a4d906126b3565b80601f0160208091040260200160405190810160405280929190818152602001828054611a79906126b3565b8015611ac65780601f10611a9b57610100808354040283529160200191611ac6565b820191906000526020600020905b815481529060010190602001808311611aa957829003601f168201915b50505091909252505050815260088201546001600160a01b031660208201526040805160c0810182526009840180549290930192909182908290611b09906126b3565b80601f0160208091040260200160405190810160405280929190818152602001828054611b35906126b3565b8015611b825780601f10611b5757610100808354040283529160200191611b82565b820191906000526020600020905b815481529060010190602001808311611b6557829003601f168201915b50505050508152602001600182018054611b9b906126b3565b80601f0160208091040260200160405190810160405280929190818152602001828054611bc7906126b3565b8015611c145780601f10611be957610100808354040283529160200191611c14565b820191906000526020600020905b815481529060010190602001808311611bf757829003601f168201915b50505050508152602001600282018054611c2d906126b3565b80601f0160208091040260200160405190810160405280929190818152602001828054611c59906126b3565b8015611ca65780601f10611c7b57610100808354040283529160200191611ca6565b820191906000526020600020905b815481529060010190602001808311611c8957829003601f168201915b50505050508152602001600382018054611cbf906126b3565b80601f0160208091040260200160405190810160405280929190818152602001828054611ceb906126b3565b8015611d385780601f10611d0d57610100808354040283529160200191611d38565b820191906000526020600020905b815481529060010190602001808311611d1b57829003601f168201915b50505050508152602001600482018054611d51906126b3565b80601f0160208091040260200160405190810160405280929190818152602001828054611d7d906126b3565b8015611dca5780601f10611d9f57610100808354040283529160200191611dca565b820191906000526020600020905b815481529060010190602001808311611dad57829003601f168201915b50505050508152602001600582018054611de3906126b3565b80601f0160208091040260200160405190810160405280929190818152602001828054611e0f906126b3565b8015611e5c5780601f10611e3157610100808354040283529160200191611e5c565b820191906000526020600020905b815481529060010190602001808311611e3f57829003601f168201915b505050919092525050508152600f820154602082015260109091015460ff1615156040909101528251839083908110611e9757611e976126ed565b60200260200101819052508080611ead90612719565b9150506116e3565b5092915050565b828054611ec8906126b3565b90600052602060002090601f016020900481019282611eea5760008555611f30565b82601f10611f0357805160ff1916838001178555611f30565b82800160010185558215611f30579182015b82811115611f30578251825591602001919060010190611f15565b50611f3c929150611ffd565b5090565b6040518060e001604052806000815260200160006001600160a01b03168152602001611f9b6040518060c001604052806060815260200160608152602001606081526020016060815260200160608152602001606081525090565b815260200160006001600160a01b03168152602001611fe96040518060c001604052806060815260200160608152602001606081526020016060815260200160608152602001606081525090565b815260006020820181905260409091015290565b5b80821115611f3c5760008155600101611ffe565b80356001600160a01b038116811461202957600080fd5b919050565b6000806040838503121561204157600080fd5b61204a83612012565b946020939093013593505050565b60006020828403121561206a57600080fd5b813561ffff8116811461207c57600080fd5b9392505050565b60006020828403121561209557600080fd5b5035919050565b6000815180845260005b818110156120c2576020818501810151868301820152016120a6565b818111156120d4576000602083870101525b50601f01601f19169290920160200192915050565b6000815160c084526120fe60c085018261209c565b905060208301518482036020860152612117828261209c565b91505060408301518482036040860152612131828261209c565b9150506060830151848203606086015261214b828261209c565b91505060808301518482036080860152612165828261209c565b91505060a083015184820360a086015261217f828261209c565b95945050505050565b878152600060018060a01b03808916602084015260e060408401526121b060e08401896120e9565b818816606085015283810360808501526121ca81886120e9565b60a085019690965250505090151560c09091015295945050505050565b6000602082840312156121f957600080fd5b61207c82612012565b60006020808301818452808551808352604092508286019150828160051b87010184880160005b838110156122c257888303603f19018552815180518452878101516001600160a01b03908116898601528782015160e08987018190529161226c838801836120e9565b9250606091508082850151168288015250506080808301518683038288015261229583826120e9565b60a0858101519089015260c094850151151594909701939093525050509386019390860190600101612229565b509098975050505050505050565b634e487b7160e01b600052604160045260246000fd5b60405160c0810167ffffffffffffffff81118282101715612309576123096122d0565b60405290565b604051601f8201601f1916810167ffffffffffffffff81118282101715612338576123386122d0565b604052919050565b600082601f83011261235157600080fd5b813567ffffffffffffffff81111561236b5761236b6122d0565b61237e601f8201601f191660200161230f565b81815284602083860101111561239357600080fd5b816020850160208301376000918101602001919091529392505050565b600060c082840312156123c257600080fd5b6123ca6122e6565b9050813567ffffffffffffffff808211156123e457600080fd5b6123f085838601612340565b8352602084013591508082111561240657600080fd5b61241285838601612340565b6020840152604084013591508082111561242b57600080fd5b61243785838601612340565b6040840152606084013591508082111561245057600080fd5b61245c85838601612340565b6060840152608084013591508082111561247557600080fd5b61248185838601612340565b608084015260a084013591508082111561249a57600080fd5b506124a784828501612340565b60a08301525092915050565b600080600080600060a086880312156124cb57600080fd5b853594506124db60208701612012565b935067ffffffffffffffff80604088013511156124f757600080fd5b61250788604089013589016123b0565b9350806060880135111561251a57600080fd5b61252a88606089013589016123b0565b9250806080880135111561253d57600080fd5b6080870135870188601f82011261255357600080fd5b8181351115612564576125646122d0565b6125746020823560051b0161230f565b81358082526020808301929160051b8401018b101561259257600080fd5b602083015b6020843560051b8501018110156126435784813511156125b657600080fd5b8035840160c0818e03601f190112156125ce57600080fd5b6125d66122e6565b86602083013511156125e757600080fd5b6125f98e602080850135850101612340565b815260408201356020820152606082013560408201526080820135606082015260a0820135608082015260c082013560a08201528085525050602083019250602081019050612597565b50809450505050509295509295909350565b6000806040838503121561266857600080fd5b50508035926020909101359150565b60c08152600061268a60c083018961209c565b60208301979097525060408101949094526060840192909252608083015260a090910152919050565b600181811c908216806126c757607f821691505b6020821081036126e757634e487b7160e01b600052602260045260246000fd5b50919050565b634e487b7160e01b600052603260045260246000fd5b634e487b7160e01b600052601160045260246000fd5b60006001820161272b5761272b612703565b5060010190565b805169ffffffffffffffffffff8116811461202957600080fd5b600080600080600060a0868803121561276457600080fd5b61276d86612732565b945060208601519350604086015192506060860151915061279060808701612732565b90509295509295909350565b600067ffffffffffffffff808316818516818304811182151516156127c3576127c3612703565b02949350505050565b6000826127e957634e487b7160e01b600052601260045260246000fd5b500490565b6000821982111561280157612801612703565b500190565b60008282101561281857612818612703565b50039056fea264697066735822122085fa4b52feaae62163aee83e01027f561412d6f47fbb6f3e159e59d092c7269e64736f6c634300080d0033","linkReferences":{}},"methodIdentifiers":{"accumulatedFees()":"587f5ed7","createInvoice(uint256,address,(string,string,string,string,string,string),(string,string,string,string,string,string),(string,int256,int256,int256,int256,int256)[])":"570df912","feeAmountInUSD()":"e848a673","getMyReceivedInvoices(address)":"5094e347","getMySentInvoices()":"7d26dae6","invoices(uint256)":"4e6d1405","itemDatas(uint256,uint256)":"9dcdd30a","owner()":"8da5cb5b","payInvoice(uint256)":"ac60a6cd","receivedInvoices(address,uint256)":"39524669","sentInvoices(address,uint256)":"05fac230","setFeeAmount(uint16)":"2758e7b1","setTreasuryAddress(address)":"6605bfda","treasuryAddress()":"c5f956af","usdToNativeCurrencyConversion()":"6acebf85","withdraw()":"3ccfd60b"},"id":24}