{"abi":[{"type":"constructor","inputs":[{"name":"_priceFeed","type":"address","internalType":"address"}],"stateMutability":"nonpayable"},{"type":"function","name":"accumulatedFees","inputs":[],"outputs":[{"name":"","type":"uint256","internalType":"uint256"}],"stateMutability":"view"},{"type":"function","name":"createInvoice","inputs":[{"name":"amountDue","type":"uint256","internalType":"uint256"},{"name":"to","type":"address","internalType":"address"},{"name":"user","type":"tuple","internalType":"struct Chainvoice.UserDetails","components":[{"name":"fname","type":"string","internalType":"string"},{"name":"lname","type":"string","internalType":"string"},{"name":"email","type":"string","internalType":"string"},{"name":"country","type":"string","internalType":"string"},{"name":"city","type":"string","internalType":"string"},{"name":"postalcode","type":"string","internalType":"string"}]},{"name":"client","type":"tuple","internalType":"struct Chainvoice.UserDetails","components":[{"name":"fname","type":"string","internalType":"string"},{"name":"lname","type":"string","internalType":"string"},{"name":"email","type":"string","internalType":"string"},{"name":"country","type":"string","internalType":"string"},{"name":"city","type":"string","internalType":"string"},{"name":"postalcode","type":"string","internalType":"string"}]},{"name":"_items","type":"tuple[]","internalType":"struct Chainvoice.ItemData[]","components":[{"name":"description","type":"string","internalType":"string"},{"name":"qty","type":"int256","internalType":"int256"},{"name":"unitPrice","type":"int256","internalType":"int256"},{"name":"discount","type":"int256","internalType":"int256"},{"name":"tax","type":"int256","internalType":"int256"},{"name":"amount","type":"int256","internalType":"int256"}]}],"outputs":[],"stateMutability":"nonpayable"},{"type":"function","name":"feeAmountInUSD","inputs":[],"outputs":[{"name":"","type":"uint256","internalType":"uint256"}],"stateMutability":"view"},{"type":"function","name":"getMyReceivedInvoices","inputs":[{"name":"add","type":"address","internalType":"address"}],"outputs":[{"name":"","type":"tuple[]","internalType":"struct Chainvoice.InvoiceDetails[]","components":[{"name":"id","type":"uint256","internalType":"uint256"},{"name":"from","type":"address","internalType":"address"},{"name":"user","type":"tuple","internalType":"struct Chainvoice.UserDetails","components":[{"name":"fname","type":"string","internalType":"string"},{"name":"lname","type":"string","internalType":"string"},{"name":"email","type":"string","internalType":"string"},{"name":"country","type":"string","internalType":"string"},{"name":"city","type":"string","internalType":"string"},{"name":"postalcode","type":"string","internalType":"string"}]},{"name":"to","type":"address","internalType":"address"},{"name":"client","type":"tuple","internalType":"struct Chainvoice.UserDetails","components":[{"name":"fname","type":"string","internalType":"string"},{"name":"lname","type":"string","internalType":"string"},{"name":"email","type":"string","internalType":"string"},{"name":"country","type":"string","internalType":"string"},{"name":"city","type":"string","internalType":"string"},{"name":"postalcode","type":"string","internalType":"string"}]},{"name":"amountDue","type":"uint256","internalType":"uint256"},{"name":"isPaid","type":"bool","internalType":"bool"}]},{"name":"","type":"tuple[][]","internalType":"struct Chainvoice.ItemData[][]","components":[{"name":"description","type":"string","internalType":"string"},{"name":"qty","type":"int256","internalType":"int256"},{"name":"unitPrice","type":"int256","internalType":"int256"},{"name":"discount","type":"int256","internalType":"int256"},{"name":"tax","type":"int256","internalType":"int256"},{"name":"amount","type":"int256","internalType":"int256"}]}],"stateMutability":"view"},{"type":"function","name":"getMySentInvoices","inputs":[],"outputs":[{"name":"","type":"tuple[]","internalType":"struct Chainvoice.InvoiceDetails[]","components":[{"name":"id","type":"uint256","internalType":"uint256"},{"name":"from","type":"address","internalType":"address"},{"name":"user","type":"tuple","internalType":"struct Chainvoice.UserDetails","components":[{"name":"fname","type":"string","internalType":"string"},{"name":"lname","type":"string","internalType":"string"},{"name":"email","type":"string","internalType":"string"},{"name":"country","type":"string","internalType":"string"},{"name":"city","type":"string","internalType":"string"},{"name":"postalcode","type":"string","internalType":"string"}]},{"name":"to","type":"address","internalType":"address"},{"name":"client","type":"tuple","internalType":"struct Chainvoice.UserDetails","components":[{"name":"fname","type":"string","internalType":"string"},{"name":"lname","type":"string","internalType":"string"},{"name":"email","type":"string","internalType":"string"},{"name":"country","type":"string","internalType":"string"},{"name":"city","type":"string","internalType":"string"},{"name":"postalcode","type":"string","internalType":"string"}]},{"name":"amountDue","type":"uint256","internalType":"uint256"},{"name":"isPaid","type":"bool","internalType":"bool"}]},{"name":"","type":"tuple[][]","internalType":"struct Chainvoice.ItemData[][]","components":[{"name":"description","type":"string","internalType":"string"},{"name":"qty","type":"int256","internalType":"int256"},{"name":"unitPrice","type":"int256","internalType":"int256"},{"name":"discount","type":"int256","internalType":"int256"},{"name":"tax","type":"int256","internalType":"int256"},{"name":"amount","type":"int256","internalType":"int256"}]}],"stateMutability":"view"},{"type":"function","name":"getTreasuryAddress","inputs":[],"outputs":[{"name":"","type":"address","internalType":"address"}],"stateMutability":"view"},{"type":"function","name":"invoices","inputs":[{"name":"","type":"uint256","internalType":"uint256"}],"outputs":[{"name":"id","type":"uint256","internalType":"uint256"},{"name":"from","type":"address","internalType":"address"},{"name":"user","type":"tuple","internalType":"struct Chainvoice.UserDetails","components":[{"name":"fname","type":"string","internalType":"string"},{"name":"lname","type":"string","internalType":"string"},{"name":"email","type":"string","internalType":"string"},{"name":"country","type":"string","internalType":"string"},{"name":"city","type":"string","internalType":"string"},{"name":"postalcode","type":"string","internalType":"string"}]},{"name":"to","type":"address","internalType":"address"},{"name":"client","type":"tuple","internalType":"struct Chainvoice.UserDetails","components":[{"name":"fname","type":"string","internalType":"string"},{"name":"lname","type":"string","internalType":"string"},{"name":"email","type":"string","internalType":"string"},{"name":"country","type":"string","internalType":"string"},{"name":"city","type":"string","internalType":"string"},{"name":"postalcode","type":"string","internalType":"string"}]},{"name":"amountDue","type":"uint256","internalType":"uint256"},{"name":"isPaid","type":"bool","internalType":"bool"}],"stateMutability":"view"},{"type":"function","name":"itemDatas","inputs":[{"name":"","type":"uint256","internalType":"uint256"},{"name":"","type":"uint256","internalType":"uint256"}],"outputs":[{"name":"description","type":"string","internalType":"string"},{"name":"qty","type":"int256","internalType":"int256"},{"name":"unitPrice","type":"int256","internalType":"int256"},{"name":"discount","type":"int256","internalType":"int256"},{"name":"tax","type":"int256","internalType":"int256"},{"name":"amount","type":"int256","internalType":"int256"}],"stateMutability":"view"},{"type":"function","name":"owner","inputs":[],"outputs":[{"name":"","type":"address","internalType":"address"}],"stateMutability":"view"},{"type":"function","name":"payInvoice","inputs":[{"name":"invoiceId","type":"uint256","internalType":"uint256"}],"outputs":[],"stateMutability":"payable"},{"type":"function","name":"receivedInvoices","inputs":[{"name":"","type":"address","internalType":"address"},{"name":"","type":"uint256","internalType":"uint256"}],"outputs":[{"name":"","type":"uint256","internalType":"uint256"}],"stateMutability":"view"},{"type":"function","name":"sentInvoices","inputs":[{"name":"","type":"address","internalType":"address"},{"name":"","type":"uint256","internalType":"uint256"}],"outputs":[{"name":"","type":"uint256","internalType":"uint256"}],"stateMutability":"view"},{"type":"function","name":"setFeeAmount","inputs":[{"name":"fee","type":"uint16","internalType":"uint16"}],"outputs":[],"stateMutability":"nonpayable"},{"type":"function","name":"setTreasuryAddress","inputs":[{"name":"add","type":"address","internalType":"address"}],"outputs":[],"stateMutability":"nonpayable"},{"type":"function","name":"treasuryAddress","inputs":[],"outputs":[{"name":"","type":"address","internalType":"address"}],"stateMutability":"view"},{"type":"function","name":"usdToNativeCurrencyConversion","inputs":[],"outputs":[{"name":"","type":"uint256","internalType":"uint256"}],"stateMutability":"view"},{"type":"function","name":"withdraw","inputs":[],"outputs":[],"stateMutability":"nonpayable"},{"type":"event","name":"InvoiceCreated","inputs":[{"name":"id","type":"uint256","indexed":false,"internalType":"uint256"},{"name":"from","type":"address","indexed":true,"internalType":"address"},{"name":"to","type":"address","indexed":true,"internalType":"address"},{"name":"amountDue","type":"uint256","indexed":false,"internalType":"uint256"}],"anonymous":false},{"type":"event","name":"InvoicePaid","inputs":[{"name":"id","type":"uint256","indexed":false,"internalType":"uint256"},{"name":"from","type":"address","indexed":true,"internalType":"address"},{"name":"to","type":"address","indexed":true,"internalType":"address"},{"name":"amountPaid","type":"uint256","indexed":false,"internalType":"uint256"}],"anonymous":false}],"bytecode":{"object":"0x60806040523480156200001157600080fd5b5060405162002bef38038062002bef83398101604081905262000034916200006f565b600080546001600160a01b039092166001600160a01b03199283161790556005805490911633179055670de0b6b3a7640000600755620000a1565b6000602082840312156200008257600080fd5b81516001600160a01b03811681146200009a57600080fd5b9392505050565b612b3e80620000b16000396000f3fe6080604052600436106100fe5760003560e01c80636605bfda116100955780639dcdd30a116100645780639dcdd30a146102a6578063ac60a6cd146102d8578063c5f956af146102eb578063e00246041461030b578063e848a6731461032957600080fd5b80636605bfda146102245780636acebf85146102445780637d26dae6146102595780638da5cb5b1461026e57600080fd5b80634e6d1405116100d15780634e6d14051461018d5780635094e347146101c0578063570df912146101ee578063587f5ed71461020e57600080fd5b806305fac230146101035780632758e7b11461013657806339524669146101585780633ccfd60b14610178575b600080fd5b34801561010f57600080fd5b5061012361011e366004612209565b61033f565b6040519081526020015b60405180910390f35b34801561014257600080fd5b50610156610151366004612233565b610370565b005b34801561016457600080fd5b50610123610173366004612209565b6103f0565b34801561018457600080fd5b5061015661040c565b34801561019957600080fd5b506101ad6101a836600461225e565b6104ff565b60405161012d9796959493929190612363565b3480156101cc57600080fd5b506101e06101db3660046123c2565b610c56565b60405161012d9291906124be565b3480156101fa57600080fd5b5061015661020936600461277f565b610c85565b34801561021a57600080fd5b5061012360085481565b34801561023057600080fd5b5061015661023f3660046123c2565b61113c565b34801561025057600080fd5b5061012361121a565b34801561026557600080fd5b506101e0611314565b34801561027a57600080fd5b5060055461028e906001600160a01b031681565b6040516001600160a01b03909116815260200161012d565b3480156102b257600080fd5b506102c66102c1366004612921565b611339565b60405161012d96959493929190612943565b6101566102e636600461225e565b61141a565b3480156102f757600080fd5b5060065461028e906001600160a01b031681565b34801561031757600080fd5b506006546001600160a01b031661028e565b34801561033557600080fd5b5061012360075481565b6002602052816000526040600020818154811061035b57600080fd5b90600052602060002001600091509150505481565b6005546001600160a01b031633146103ca5760405162461bcd60e51b81526020600482015260186024820152774f6e6c79204f776e65722069732061636365737369626c6560401b60448201526064015b60405180910390fd5b6103e061ffff8216670de0b6b3a7640000612995565b67ffffffffffffffff1660075550565b6003602052816000526040600020818154811061035b57600080fd5b6000600854116104545760405162461bcd60e51b81526020600482015260136024820152724e6f206665657320746f20776974686472617760681b60448201526064016103c1565b600880546000918290556006546040519192916001600160a01b039091169083908381818185875af1925050503d80600081146104ad576040519150601f19603f3d011682016040523d82523d6000602084013e6104b2565b606091505b50509050806104fb5760405162461bcd60e51b8152602060048201526015602482015274119959481dda5d1a191c985dd85b0819985a5b1959605a1b60448201526064016103c1565b5050565b6001818154811061050f57600080fd5b60009182526020909120601190910201805460018201546040805160c081019091526002840180549395506001600160a01b03909216939290919082908290610557906129c5565b80601f0160208091040260200160405190810160405280929190818152602001828054610583906129c5565b80156105d05780601f106105a5576101008083540402835291602001916105d0565b820191906000526020600020905b8154815290600101906020018083116105b357829003601f168201915b505050505081526020016001820180546105e9906129c5565b80601f0160208091040260200160405190810160405280929190818152602001828054610615906129c5565b80156106625780601f1061063757610100808354040283529160200191610662565b820191906000526020600020905b81548152906001019060200180831161064557829003601f168201915b5050505050815260200160028201805461067b906129c5565b80601f01602080910402602001604051908101604052809291908181526020018280546106a7906129c5565b80156106f45780601f106106c9576101008083540402835291602001916106f4565b820191906000526020600020905b8154815290600101906020018083116106d757829003601f168201915b5050505050815260200160038201805461070d906129c5565b80601f0160208091040260200160405190810160405280929190818152602001828054610739906129c5565b80156107865780601f1061075b57610100808354040283529160200191610786565b820191906000526020600020905b81548152906001019060200180831161076957829003601f168201915b5050505050815260200160048201805461079f906129c5565b80601f01602080910402602001604051908101604052809291908181526020018280546107cb906129c5565b80156108185780601f106107ed57610100808354040283529160200191610818565b820191906000526020600020905b8154815290600101906020018083116107fb57829003601f168201915b50505050508152602001600582018054610831906129c5565b80601f016020809104026020016040519081016040528092919081815260200182805461085d906129c5565b80156108aa5780601f1061087f576101008083540402835291602001916108aa565b820191906000526020600020905b81548152906001019060200180831161088d57829003601f168201915b5050509190925250505060088201546040805160c0810190915260098401805493946001600160a01b0390931693829082906108e5906129c5565b80601f0160208091040260200160405190810160405280929190818152602001828054610911906129c5565b801561095e5780601f106109335761010080835404028352916020019161095e565b820191906000526020600020905b81548152906001019060200180831161094157829003601f168201915b50505050508152602001600182018054610977906129c5565b80601f01602080910402602001604051908101604052809291908181526020018280546109a3906129c5565b80156109f05780601f106109c5576101008083540402835291602001916109f0565b820191906000526020600020905b8154815290600101906020018083116109d357829003601f168201915b50505050508152602001600282018054610a09906129c5565b80601f0160208091040260200160405190810160405280929190818152602001828054610a35906129c5565b8015610a825780601f10610a5757610100808354040283529160200191610a82565b820191906000526020600020905b815481529060010190602001808311610a6557829003601f168201915b50505050508152602001600382018054610a9b906129c5565b80601f0160208091040260200160405190810160405280929190818152602001828054610ac7906129c5565b8015610b145780601f10610ae957610100808354040283529160200191610b14565b820191906000526020600020905b815481529060010190602001808311610af757829003601f168201915b50505050508152602001600482018054610b2d906129c5565b80601f0160208091040260200160405190810160405280929190818152602001828054610b59906129c5565b8015610ba65780601f10610b7b57610100808354040283529160200191610ba6565b820191906000526020600020905b815481529060010190602001808311610b8957829003601f168201915b50505050508152602001600582018054610bbf906129c5565b80601f0160208091040260200160405190810160405280929190818152602001828054610beb906129c5565b8015610c385780601f10610c0d57610100808354040283529160200191610c38565b820191906000526020600020905b815481529060010190602001808311610c1b57829003601f168201915b50505091909252505050600f82015460109092015490919060ff1687565b6001600160a01b03811660009081526003602052604090206060908190610c7c9061169f565b91509150915091565b60008511610cd55760405162461bcd60e51b815260206004820181905260248201527f416d6f756e74206d7573742062652067726561746572207468616e207a65726f60448201526064016103c1565b6001600160a01b038416610d2b5760405162461bcd60e51b815260206004820152601f60248201527f526563656976657220616464726573732063616e6e6f74206265207a65726f0060448201526064016103c1565b336001600160a01b03851603610d8e5760405162461bcd60e51b815260206004820152602260248201527f43616e6e6f742063726561746520696e766f69636520666f7220796f75727365604482015261363360f11b60648201526084016103c1565b600180546040805160e0810182528281523360208083019182529282018881526001600160a01b038a811660608501526080840189905260a084018c9052600060c0850181905286880188559690965282517fb10e2d527612073b26eecdfd717e6a320cf44b4afac2b0732d9fcbe2b7fa0cf66011870290810191825592517fb10e2d527612073b26eecdfd717e6a320cf44b4afac2b0732d9fcbe2b7fa0cf7840180546001600160a01b0319169190981617909655518051805195969395939491937fb10e2d527612073b26eecdfd717e6a320cf44b4afac2b0732d9fcbe2b7fa0cf890930192610e839284920190612097565b506020828101518051610e9c9260018501920190612097565b5060408201518051610eb8916002840191602090910190612097565b5060608201518051610ed4916003840191602090910190612097565b5060808201518051610ef0916004840191602090910190612097565b5060a08201518051610f0c916005840191602090910190612097565b50505060608201516008820180546001600160a01b0319166001600160a01b039092169190911790556080820151805180516009840191610f5291839160200190612097565b506020828101518051610f6b9260018501920190612097565b5060408201518051610f87916002840191602090910190612097565b5060608201518051610fa3916003840191602090910190612097565b5060808201518051610fbf916004840191602090910190612097565b5060a08201518051610fdb916005840191602090910190612097565b50505060a0820151600f82015560c0909101516010909101805460ff191691151591909117905560005b82518110156110b05760008281526004602052604090208351849083908110611030576110306129ff565b60209081029190910181015182546001810184556000938452928290208151805192946006029091019261106992849290910190612097565b506020820151600182015560408201516002820155606082015160038201556080820151600482015560a090910151600590910155806110a881612a15565b915050611005565b50336000818152600260209081526040808320805460018082018355918552838520018690556001600160a01b038a1680855260038452828520805492830181558552938390200185905580518581529182018a90529192917f88721abb1d35cff296c5d462601d6bdfed57e9493f8c361d2bcc24241a2ebfec910160405180910390a3505050505050565b6005546001600160a01b031633146111915760405162461bcd60e51b81526020600482015260186024820152774f6e6c79204f776e65722069732061636365737369626c6560401b60448201526064016103c1565b6001600160a01b0381166111f85760405162461bcd60e51b815260206004820152602860248201527f547265617375727920416464726573732063616e6e6f7420626520657175616c60448201526720746f207a65726f60c01b60648201526084016103c1565b600680546001600160a01b0319166001600160a01b0392909216919091179055565b6000805460408051633fabe5a360e21b8152905183926001600160a01b03169163feaf968c9160048083019260a09291908290030181865afa158015611264573d6000803e3d6000fd5b505050506040513d601f19601f820116820180604052508101906112889190612a48565b505050915050600081136112d35760405162461bcd60e51b8152602060048201526012602482015271496e76616c6964207072696365206461746160701b60448201526064016103c1565b8060006112e5826402540be400612a98565b90506000600754670de0b6b3a76400006112ff9190612a98565b905061130b8282612ab7565b94505050505090565b33600090815260026020526040902060609081906113319061169f565b915091509091565b6004602052816000526040600020818154811061135557600080fd5b906000526020600020906006020160009150915050806000018054611379906129c5565b80601f01602080910402602001604051908101604052809291908181526020018280546113a5906129c5565b80156113f25780601f106113c7576101008083540402835291602001916113f2565b820191906000526020600020905b8154815290600101906020018083116113d557829003601f168201915b5050505050908060010154908060020154908060030154908060040154908060050154905086565b60015481106114605760405162461bcd60e51b8152602060048201526012602482015271125b9d985b1a59081a5b9d9bda58d948125160721b60448201526064016103c1565b600060018281548110611475576114756129ff565b6000918252602090912060119091020160088101549091506001600160a01b031633146114ef5760405162461bcd60e51b815260206004820152602260248201527f4e6f7420617574686f72697a656420746f20706179207468697320696e766f69604482015261636560f01b60648201526084016103c1565b601081015460ff161561153b5760405162461bcd60e51b8152602060048201526014602482015273125b9d9bda58d948185b1c9958591e481c185a5960621b60448201526064016103c1565b600061154561121a565b90508082600f01546115579190612ad9565b3410156115bc5760405162461bcd60e51b815260206004820152602d60248201527f5061796d656e74206d75737420636f7665722074686520696e766f696365206160448201526c6d6f756e7420616e642066656560981b60648201526084016103c1565b60006115c88234612af1565b60018401546040519192506000916001600160a01b039091169083908381818185875af1925050503d806000811461161c576040519150601f19603f3d011682016040523d82523d6000602084013e611621565b606091505b50509050806116725760405162461bcd60e51b815260206004820152601760248201527f5061796d656e74207472616e73666572206661696c656400000000000000000060448201526064016103c1565b82600860008282546116849190612ad9565b9091555050506010909201805460ff19166001179055505050565b6060806000838054905067ffffffffffffffff8111156116c1576116c161259c565b6040519080825280602002602001820160405280156116fa57816020015b6116e761211b565b8152602001906001900390816116df5790505b50845490915060009067ffffffffffffffff81111561171b5761171b61259c565b60405190808252806020026020018201604052801561174e57816020015b60608152602001906001900390816117395790505b50905060005b855481101561208c576001868281548110611771576117716129ff565b90600052602060002001548154811061178c5761178c6129ff565b60009182526020918290206040805160e08101825260119093029091018054835260018101546001600160a01b031693830193909352805160c08101825260028401805493949392850192829082906117e4906129c5565b80601f0160208091040260200160405190810160405280929190818152602001828054611810906129c5565b801561185d5780601f106118325761010080835404028352916020019161185d565b820191906000526020600020905b81548152906001019060200180831161184057829003601f168201915b50505050508152602001600182018054611876906129c5565b80601f01602080910402602001604051908101604052809291908181526020018280546118a2906129c5565b80156118ef5780601f106118c4576101008083540402835291602001916118ef565b820191906000526020600020905b8154815290600101906020018083116118d257829003601f168201915b50505050508152602001600282018054611908906129c5565b80601f0160208091040260200160405190810160405280929190818152602001828054611934906129c5565b80156119815780601f1061195657610100808354040283529160200191611981565b820191906000526020600020905b81548152906001019060200180831161196457829003601f168201915b5050505050815260200160038201805461199a906129c5565b80601f01602080910402602001604051908101604052809291908181526020018280546119c6906129c5565b8015611a135780601f106119e857610100808354040283529160200191611a13565b820191906000526020600020905b8154815290600101906020018083116119f657829003601f168201915b50505050508152602001600482018054611a2c906129c5565b80601f0160208091040260200160405190810160405280929190818152602001828054611a58906129c5565b8015611aa55780601f10611a7a57610100808354040283529160200191611aa5565b820191906000526020600020905b815481529060010190602001808311611a8857829003601f168201915b50505050508152602001600582018054611abe906129c5565b80601f0160208091040260200160405190810160405280929190818152602001828054611aea906129c5565b8015611b375780601f10611b0c57610100808354040283529160200191611b37565b820191906000526020600020905b815481529060010190602001808311611b1a57829003601f168201915b50505091909252505050815260088201546001600160a01b031660208201526040805160c0810182526009840180549290930192909182908290611b7a906129c5565b80601f0160208091040260200160405190810160405280929190818152602001828054611ba6906129c5565b8015611bf35780601f10611bc857610100808354040283529160200191611bf3565b820191906000526020600020905b815481529060010190602001808311611bd657829003601f168201915b50505050508152602001600182018054611c0c906129c5565b80601f0160208091040260200160405190810160405280929190818152602001828054611c38906129c5565b8015611c855780601f10611c5a57610100808354040283529160200191611c85565b820191906000526020600020905b815481529060010190602001808311611c6857829003601f168201915b50505050508152602001600282018054611c9e906129c5565b80601f0160208091040260200160405190810160405280929190818152602001828054611cca906129c5565b8015611d175780601f10611cec57610100808354040283529160200191611d17565b820191906000526020600020905b815481529060010190602001808311611cfa57829003601f168201915b50505050508152602001600382018054611d30906129c5565b80601f0160208091040260200160405190810160405280929190818152602001828054611d5c906129c5565b8015611da95780601f10611d7e57610100808354040283529160200191611da9565b820191906000526020600020905b815481529060010190602001808311611d8c57829003601f168201915b50505050508152602001600482018054611dc2906129c5565b80601f0160208091040260200160405190810160405280929190818152602001828054611dee906129c5565b8015611e3b5780601f10611e1057610100808354040283529160200191611e3b565b820191906000526020600020905b815481529060010190602001808311611e1e57829003601f168201915b50505050508152602001600582018054611e54906129c5565b80601f0160208091040260200160405190810160405280929190818152602001828054611e80906129c5565b8015611ecd5780601f10611ea257610100808354040283529160200191611ecd565b820191906000526020600020905b815481529060010190602001808311611eb057829003601f168201915b505050919092525050508152600f820154602082015260109091015460ff1615156040909101528351849083908110611f0857611f086129ff565b602002602001018190525060046000878381548110611f2957611f296129ff565b90600052602060002001548152602001908152602001600020805480602002602001604051908101604052809291908181526020016000905b8282101561205857838290600052602060002090600602016040518060c0016040529081600082018054611f95906129c5565b80601f0160208091040260200160405190810160405280929190818152602001828054611fc1906129c5565b801561200e5780601f10611fe35761010080835404028352916020019161200e565b820191906000526020600020905b815481529060010190602001808311611ff157829003601f168201915b505050505081526020016001820154815260200160028201548152602001600382015481526020016004820154815260200160058201548152505081526020019060010190611f62565b5050505082828151811061206e5761206e6129ff565b6020026020010181905250808061208490612a15565b915050611754565b509094909350915050565b8280546120a3906129c5565b90600052602060002090601f0160209004810192826120c5576000855561210b565b82601f106120de57805160ff191683800117855561210b565b8280016001018555821561210b579182015b8281111561210b5782518255916020019190600101906120f0565b506121179291506121d8565b5090565b6040518060e001604052806000815260200160006001600160a01b031681526020016121766040518060c001604052806060815260200160608152602001606081526020016060815260200160608152602001606081525090565b815260200160006001600160a01b031681526020016121c46040518060c001604052806060815260200160608152602001606081526020016060815260200160608152602001606081525090565b815260006020820181905260409091015290565b5b8082111561211757600081556001016121d9565b80356001600160a01b038116811461220457600080fd5b919050565b6000806040838503121561221c57600080fd5b612225836121ed565b946020939093013593505050565b60006020828403121561224557600080fd5b813561ffff8116811461225757600080fd5b9392505050565b60006020828403121561227057600080fd5b5035919050565b6000815180845260005b8181101561229d57602081850181015186830182015201612281565b818111156122af576000602083870101525b50601f01601f19169290920160200192915050565b6000815160c084526122d960c0850182612277565b9050602083015184820360208601526122f28282612277565b9150506040830151848203604086015261230c8282612277565b915050606083015184820360608601526123268282612277565b915050608083015184820360808601526123408282612277565b91505060a083015184820360a086015261235a8282612277565b95945050505050565b878152600060018060a01b03808916602084015260e0604084015261238b60e08401896122c4565b818816606085015283810360808501526123a581886122c4565b60a085019690965250505090151560c09091015295945050505050565b6000602082840312156123d457600080fd5b612257826121ed565b600081518084526020808501808196506005915083821b81018387016000805b878110156124af578484038b5282518051808652908801908886019080891b87018a01855b8281101561249957601f19898303018452845160c0815181855261244882860182612277565b9150508d8201518e85015260408083015181860152506060808301518186015250608080830151818601525060a080830151818601525080935050508b850194508b84019350600181019050612422565b509d8a019d9650505092870192506001016123fd565b50919998505050505050505050565b60006040808301818452808651808352606092508286019150828160051b8701016020808a0160005b8481101561257c57898403605f19018652815180518552838101516001600160a01b03908116858701528982015160e08b88018190529161252a838901836122c4565b9250808b850151168b89015250506080808301518783038289015261254f83826122c4565b60a085810151908a015260c0948501511515949098019390935250505094820194908201906001016124e7565b50508782039088015261258f81896123dd565b9998505050505050505050565b634e487b7160e01b600052604160045260246000fd5b60405160c0810167ffffffffffffffff811182821017156125d5576125d561259c565b60405290565b604051601f8201601f1916810167ffffffffffffffff811182821017156126045761260461259c565b604052919050565b600082601f83011261261d57600080fd5b813567ffffffffffffffff8111156126375761263761259c565b61264a601f8201601f19166020016125db565b81815284602083860101111561265f57600080fd5b816020850160208301376000918101602001919091529392505050565b600060c0828403121561268e57600080fd5b6126966125b2565b9050813567ffffffffffffffff808211156126b057600080fd5b6126bc8583860161260c565b835260208401359150808211156126d257600080fd5b6126de8583860161260c565b602084015260408401359150808211156126f757600080fd5b6127038583860161260c565b6040840152606084013591508082111561271c57600080fd5b6127288583860161260c565b6060840152608084013591508082111561274157600080fd5b61274d8583860161260c565b608084015260a084013591508082111561276657600080fd5b506127738482850161260c565b60a08301525092915050565b600080600080600060a0868803121561279757600080fd5b853594506127a7602087016121ed565b935067ffffffffffffffff80604088013511156127c357600080fd5b6127d3886040890135890161267c565b935080606088013511156127e657600080fd5b6127f6886060890135890161267c565b9250806080880135111561280957600080fd5b6080870135870188601f82011261281f57600080fd5b81813511156128305761283061259c565b6128406020823560051b016125db565b81358082526020808301929160051b8401018b101561285e57600080fd5b602083015b6020843560051b85010181101561290f57848135111561288257600080fd5b8035840160c0818e03601f1901121561289a57600080fd5b6128a26125b2565b86602083013511156128b357600080fd5b6128c58e60208085013585010161260c565b815260408201356020820152606082013560408201526080820135606082015260a0820135608082015260c082013560a08201528085525050602083019250602081019050612863565b50809450505050509295509295909350565b6000806040838503121561293457600080fd5b50508035926020909101359150565b60c08152600061295660c0830189612277565b60208301979097525060408101949094526060840192909252608083015260a090910152919050565b634e487b7160e01b600052601160045260246000fd5b600067ffffffffffffffff808316818516818304811182151516156129bc576129bc61297f565b02949350505050565b600181811c908216806129d957607f821691505b6020821081036129f957634e487b7160e01b600052602260045260246000fd5b50919050565b634e487b7160e01b600052603260045260246000fd5b600060018201612a2757612a2761297f565b5060010190565b805169ffffffffffffffffffff8116811461220457600080fd5b600080600080600060a08688031215612a6057600080fd5b612a6986612a2e565b9450602086015193506040860151925060608601519150612a8c60808701612a2e565b90509295509295909350565b6000816000190483118215151615612ab257612ab261297f565b500290565b600082612ad457634e487b7160e01b600052601260045260246000fd5b500490565b60008219821115612aec57612aec61297f565b500190565b600082821015612b0357612b0361297f565b50039056fea264697066735822122081aa2957413fd420a7f68f02b8a127a095f217b786937ff3a319d87693a442f164736f6c634300080d0033","linkReferences":{}},"methodIdentifiers":{"accumulatedFees()":"587f5ed7","createInvoice(uint256,address,(string,string,string,string,string,string),(string,string,string,string,string,string),(string,int256,int256,int256,int256,int256)[])":"570df912","feeAmountInUSD()":"e848a673","getMyReceivedInvoices(address)":"5094e347","getMySentInvoices()":"7d26dae6","getTreasuryAddress()":"e0024604","invoices(uint256)":"4e6d1405","itemDatas(uint256,uint256)":"9dcdd30a","owner()":"8da5cb5b","payInvoice(uint256)":"ac60a6cd","receivedInvoices(address,uint256)":"39524669","sentInvoices(address,uint256)":"05fac230","setFeeAmount(uint16)":"2758e7b1","setTreasuryAddress(address)":"6605bfda","treasuryAddress()":"c5f956af","usdToNativeCurrencyConversion()":"6acebf85","withdraw()":"3ccfd60b"},"id":24}