{"abi":[{"type":"constructor","inputs":[],"stateMutability":"nonpayable"},{"type":"function","name":"accumulatedFees","inputs":[],"outputs":[{"name":"","type":"uint256","internalType":"uint256"}],"stateMutability":"view"},{"type":"function","name":"createInvoice","inputs":[{"name":"amountDue","type":"uint256","internalType":"uint256"},{"name":"to","type":"address","internalType":"address"},{"name":"_dueDate","type":"string","internalType":"string"},{"name":"_issueDate","type":"string","internalType":"string"},{"name":"user","type":"tuple","internalType":"struct Chainvoice.UserDetails","components":[{"name":"fname","type":"string","internalType":"string"},{"name":"lname","type":"string","internalType":"string"},{"name":"email","type":"string","internalType":"string"},{"name":"country","type":"string","internalType":"string"},{"name":"city","type":"string","internalType":"string"},{"name":"postalcode","type":"string","internalType":"string"}]},{"name":"client","type":"tuple","internalType":"struct Chainvoice.UserDetails","components":[{"name":"fname","type":"string","internalType":"string"},{"name":"lname","type":"string","internalType":"string"},{"name":"email","type":"string","internalType":"string"},{"name":"country","type":"string","internalType":"string"},{"name":"city","type":"string","internalType":"string"},{"name":"postalcode","type":"string","internalType":"string"}]},{"name":"_items","type":"tuple[]","internalType":"struct Chainvoice.ItemData[]","components":[{"name":"description","type":"string","internalType":"string"},{"name":"qty","type":"int256","internalType":"int256"},{"name":"unitPrice","type":"int256","internalType":"int256"},{"name":"discount","type":"int256","internalType":"int256"},{"name":"tax","type":"int256","internalType":"int256"},{"name":"amount","type":"int256","internalType":"int256"}]}],"outputs":[],"stateMutability":"nonpayable"},{"type":"function","name":"fee","inputs":[],"outputs":[{"name":"","type":"uint256","internalType":"uint256"}],"stateMutability":"view"},{"type":"function","name":"getReceivedInvoices","inputs":[{"name":"_address","type":"address","internalType":"address"}],"outputs":[{"name":"","type":"tuple[]","internalType":"struct Chainvoice.InvoiceDetails[]","components":[{"name":"id","type":"uint256","internalType":"uint256"},{"name":"from","type":"address","internalType":"address"},{"name":"dueDate","type":"string","internalType":"string"},{"name":"issueDate","type":"string","internalType":"string"},{"name":"user","type":"tuple","internalType":"struct Chainvoice.UserDetails","components":[{"name":"fname","type":"string","internalType":"string"},{"name":"lname","type":"string","internalType":"string"},{"name":"email","type":"string","internalType":"string"},{"name":"country","type":"string","internalType":"string"},{"name":"city","type":"string","internalType":"string"},{"name":"postalcode","type":"string","internalType":"string"}]},{"name":"to","type":"address","internalType":"address"},{"name":"client","type":"tuple","internalType":"struct Chainvoice.UserDetails","components":[{"name":"fname","type":"string","internalType":"string"},{"name":"lname","type":"string","internalType":"string"},{"name":"email","type":"string","internalType":"string"},{"name":"country","type":"string","internalType":"string"},{"name":"city","type":"string","internalType":"string"},{"name":"postalcode","type":"string","internalType":"string"}]},{"name":"amountDue","type":"uint256","internalType":"uint256"},{"name":"isPaid","type":"bool","internalType":"bool"}]},{"name":"","type":"tuple[][]","internalType":"struct Chainvoice.ItemData[][]","components":[{"name":"description","type":"string","internalType":"string"},{"name":"qty","type":"int256","internalType":"int256"},{"name":"unitPrice","type":"int256","internalType":"int256"},{"name":"discount","type":"int256","internalType":"int256"},{"name":"tax","type":"int256","internalType":"int256"},{"name":"amount","type":"int256","internalType":"int256"}]}],"stateMutability":"view"},{"type":"function","name":"getSentInvoices","inputs":[{"name":"_address","type":"address","internalType":"address"}],"outputs":[{"name":"","type":"tuple[]","internalType":"struct Chainvoice.InvoiceDetails[]","components":[{"name":"id","type":"uint256","internalType":"uint256"},{"name":"from","type":"address","internalType":"address"},{"name":"dueDate","type":"string","internalType":"string"},{"name":"issueDate","type":"string","internalType":"string"},{"name":"user","type":"tuple","internalType":"struct Chainvoice.UserDetails","components":[{"name":"fname","type":"string","internalType":"string"},{"name":"lname","type":"string","internalType":"string"},{"name":"email","type":"string","internalType":"string"},{"name":"country","type":"string","internalType":"string"},{"name":"city","type":"string","internalType":"string"},{"name":"postalcode","type":"string","internalType":"string"}]},{"name":"to","type":"address","internalType":"address"},{"name":"client","type":"tuple","internalType":"struct Chainvoice.UserDetails","components":[{"name":"fname","type":"string","internalType":"string"},{"name":"lname","type":"string","internalType":"string"},{"name":"email","type":"string","internalType":"string"},{"name":"country","type":"string","internalType":"string"},{"name":"city","type":"string","internalType":"string"},{"name":"postalcode","type":"string","internalType":"string"}]},{"name":"amountDue","type":"uint256","internalType":"uint256"},{"name":"isPaid","type":"bool","internalType":"bool"}]},{"name":"","type":"tuple[][]","internalType":"struct Chainvoice.ItemData[][]","components":[{"name":"description","type":"string","internalType":"string"},{"name":"qty","type":"int256","internalType":"int256"},{"name":"unitPrice","type":"int256","internalType":"int256"},{"name":"discount","type":"int256","internalType":"int256"},{"name":"tax","type":"int256","internalType":"int256"},{"name":"amount","type":"int256","internalType":"int256"}]}],"stateMutability":"view"},{"type":"function","name":"invoices","inputs":[{"name":"","type":"uint256","internalType":"uint256"}],"outputs":[{"name":"id","type":"uint256","internalType":"uint256"},{"name":"from","type":"address","internalType":"address"},{"name":"dueDate","type":"string","internalType":"string"},{"name":"issueDate","type":"string","internalType":"string"},{"name":"user","type":"tuple","internalType":"struct Chainvoice.UserDetails","components":[{"name":"fname","type":"string","internalType":"string"},{"name":"lname","type":"string","internalType":"string"},{"name":"email","type":"string","internalType":"string"},{"name":"country","type":"string","internalType":"string"},{"name":"city","type":"string","internalType":"string"},{"name":"postalcode","type":"string","internalType":"string"}]},{"name":"to","type":"address","internalType":"address"},{"name":"client","type":"tuple","internalType":"struct Chainvoice.UserDetails","components":[{"name":"fname","type":"string","internalType":"string"},{"name":"lname","type":"string","internalType":"string"},{"name":"email","type":"string","internalType":"string"},{"name":"country","type":"string","internalType":"string"},{"name":"city","type":"string","internalType":"string"},{"name":"postalcode","type":"string","internalType":"string"}]},{"name":"amountDue","type":"uint256","internalType":"uint256"},{"name":"isPaid","type":"bool","internalType":"bool"}],"stateMutability":"view"},{"type":"function","name":"itemDatas","inputs":[{"name":"","type":"uint256","internalType":"uint256"},{"name":"","type":"uint256","internalType":"uint256"}],"outputs":[{"name":"description","type":"string","internalType":"string"},{"name":"qty","type":"int256","internalType":"int256"},{"name":"unitPrice","type":"int256","internalType":"int256"},{"name":"discount","type":"int256","internalType":"int256"},{"name":"tax","type":"int256","internalType":"int256"},{"name":"amount","type":"int256","internalType":"int256"}],"stateMutability":"view"},{"type":"function","name":"owner","inputs":[],"outputs":[{"name":"","type":"address","internalType":"address"}],"stateMutability":"view"},{"type":"function","name":"payInvoice","inputs":[{"name":"invoiceId","type":"uint256","internalType":"uint256"}],"outputs":[],"stateMutability":"payable"},{"type":"function","name":"receivedInvoices","inputs":[{"name":"","type":"address","internalType":"address"},{"name":"","type":"uint256","internalType":"uint256"}],"outputs":[{"name":"","type":"uint256","internalType":"uint256"}],"stateMutability":"view"},{"type":"function","name":"sentInvoices","inputs":[{"name":"","type":"address","internalType":"address"},{"name":"","type":"uint256","internalType":"uint256"}],"outputs":[{"name":"","type":"uint256","internalType":"uint256"}],"stateMutability":"view"},{"type":"function","name":"setFeeAmount","inputs":[{"name":"_fee","type":"uint256","internalType":"uint256"}],"outputs":[],"stateMutability":"nonpayable"},{"type":"function","name":"setTreasuryAddress","inputs":[{"name":"newTreauserAdd","type":"address","internalType":"address"}],"outputs":[],"stateMutability":"nonpayable"},{"type":"function","name":"treasuryAddress","inputs":[],"outputs":[{"name":"","type":"address","internalType":"address"}],"stateMutability":"view"},{"type":"function","name":"withdraw","inputs":[],"outputs":[],"stateMutability":"nonpayable"},{"type":"event","name":"InvoiceCreated","inputs":[{"name":"id","type":"uint256","indexed":false,"internalType":"uint256"},{"name":"from","type":"address","indexed":true,"internalType":"address"},{"name":"to","type":"address","indexed":true,"internalType":"address"},{"name":"amountDue","type":"uint256","indexed":false,"internalType":"uint256"}],"anonymous":false},{"type":"event","name":"InvoicePaid","inputs":[{"name":"id","type":"uint256","indexed":false,"internalType":"uint256"},{"name":"from","type":"address","indexed":true,"internalType":"address"},{"name":"to","type":"address","indexed":true,"internalType":"address"},{"name":"amountPaid","type":"uint256","indexed":false,"internalType":"uint256"}],"anonymous":false}],"bytecode":{"object":"0x608060405234801561001057600080fd5b5033600460006101000a81548173ffffffffffffffffffffffffffffffffffffffff021916908373ffffffffffffffffffffffffffffffffffffffff1602179055506601c6bf52634000600681905550613f8f8061006f6000396000f3fe6080604052600436106100e85760003560e01c80636605bfda1161008a578063ac60a6cd11610059578063ac60a6cd14610314578063c5f956af14610330578063cf37613e1461035b578063ddca3f4314610399576100e8565b80636605bfda146102555780636b3926801461027e5780638da5cb5b146102a75780639dcdd30a146102d2576100e8565b806341f1c451116100c657806341f1c4511461017e5780634e6d1405146101bc578063587f5ed71461020157806364dd0a9a1461022c576100e8565b806305fac230146100ed578063395246691461012a5780633ccfd60b14610167575b600080fd5b3480156100f957600080fd5b50610114600480360381019061010f91906128f9565b6103c4565b6040516101219190612948565b60405180910390f35b34801561013657600080fd5b50610151600480360381019061014c91906128f9565b6103f5565b60405161015e9190612948565b60405180910390f35b34801561017357600080fd5b5061017c610426565b005b34801561018a57600080fd5b506101a560048036038101906101a09190612963565b6105dd565b6040516101b3929190612ed0565b60405180910390f35b3480156101c857600080fd5b506101e360048036038101906101de9190612f07565b610630565b6040516101f899989796959493929190613048565b60405180910390f35b34801561020d57600080fd5b50610216610ed7565b6040516102239190612948565b60405180910390f35b34801561023857600080fd5b50610253600480360381019061024e9190613546565b610edd565b005b34801561026157600080fd5b5061027c60048036038101906102779190612963565b611516565b005b34801561028a57600080fd5b506102a560048036038101906102a09190612f07565b611659565b005b3480156102b357600080fd5b506102bc6116f3565b6040516102c99190613674565b60405180910390f35b3480156102de57600080fd5b506102f960048036038101906102f4919061368f565b611719565b60405161030b969594939291906136de565b60405180910390f35b61032e60048036038101906103299190612f07565b6117fa565b005b34801561033c57600080fd5b50610345611abe565b6040516103529190613674565b60405180910390f35b34801561036757600080fd5b50610382600480360381019061037d9190612963565b611ae4565b604051610390929190612ed0565b60405180910390f35b3480156103a557600080fd5b506103ae611b37565b6040516103bb9190612948565b60405180910390f35b600160205281600052604060002081815481106103e057600080fd5b90600052602060002001600091509150505481565b6002602052816000526040600020818154811061041157600080fd5b90600052602060002001600091509150505481565b600073ffffffffffffffffffffffffffffffffffffffff16600560009054906101000a900473ffffffffffffffffffffffffffffffffffffffff1673ffffffffffffffffffffffffffffffffffffffff16036104b7576040517f08c379a00000000000000000000000000000000000000000000000000000000081526004016104ae90613792565b60405180910390fd5b6000600754116104fc576040517f08c379a00000000000000000000000000000000000000000000000000000000081526004016104f3906137fe565b60405180910390fd5b6000600754905060006007819055506000600560009054906101000a900473ffffffffffffffffffffffffffffffffffffffff1673ffffffffffffffffffffffffffffffffffffffff16826040516105539061384f565b60006040518083038185875af1925050503d8060008114610590576040519150601f19603f3d011682016040523d82523d6000602084013e610595565b606091505b50509050806105d9576040517f08c379a00000000000000000000000000000000000000000000000000000000081526004016105d0906138b0565b60405180910390fd5b5050565b606080610627600160008573ffffffffffffffffffffffffffffffffffffffff1673ffffffffffffffffffffffffffffffffffffffff168152602001908152602001600020611b3d565b91509150915091565b6000818154811061064057600080fd5b90600052602060002090601302016000915090508060000154908060010160009054906101000a900473ffffffffffffffffffffffffffffffffffffffff169080600201805461068f906138ff565b80601f01602080910402602001604051908101604052809291908181526020018280546106bb906138ff565b80156107085780601f106106dd57610100808354040283529160200191610708565b820191906000526020600020905b8154815290600101906020018083116106eb57829003601f168201915b50505050509080600301805461071d906138ff565b80601f0160208091040260200160405190810160405280929190818152602001828054610749906138ff565b80156107965780601f1061076b57610100808354040283529160200191610796565b820191906000526020600020905b81548152906001019060200180831161077957829003601f168201915b505050505090806004016040518060c00160405290816000820180546107bb906138ff565b80601f01602080910402602001604051908101604052809291908181526020018280546107e7906138ff565b80156108345780601f1061080957610100808354040283529160200191610834565b820191906000526020600020905b81548152906001019060200180831161081757829003601f168201915b5050505050815260200160018201805461084d906138ff565b80601f0160208091040260200160405190810160405280929190818152602001828054610879906138ff565b80156108c65780601f1061089b576101008083540402835291602001916108c6565b820191906000526020600020905b8154815290600101906020018083116108a957829003601f168201915b505050505081526020016002820180546108df906138ff565b80601f016020809104026020016040519081016040528092919081815260200182805461090b906138ff565b80156109585780601f1061092d57610100808354040283529160200191610958565b820191906000526020600020905b81548152906001019060200180831161093b57829003601f168201915b50505050508152602001600382018054610971906138ff565b80601f016020809104026020016040519081016040528092919081815260200182805461099d906138ff565b80156109ea5780601f106109bf576101008083540402835291602001916109ea565b820191906000526020600020905b8154815290600101906020018083116109cd57829003601f168201915b50505050508152602001600482018054610a03906138ff565b80601f0160208091040260200160405190810160405280929190818152602001828054610a2f906138ff565b8015610a7c5780601f10610a5157610100808354040283529160200191610a7c565b820191906000526020600020905b815481529060010190602001808311610a5f57829003601f168201915b50505050508152602001600582018054610a95906138ff565b80601f0160208091040260200160405190810160405280929190818152602001828054610ac1906138ff565b8015610b0e5780601f10610ae357610100808354040283529160200191610b0e565b820191906000526020600020905b815481529060010190602001808311610af157829003601f168201915b5050505050815250509080600a0160009054906101000a900473ffffffffffffffffffffffffffffffffffffffff169080600b016040518060c0016040529081600082018054610b5d906138ff565b80601f0160208091040260200160405190810160405280929190818152602001828054610b89906138ff565b8015610bd65780601f10610bab57610100808354040283529160200191610bd6565b820191906000526020600020905b815481529060010190602001808311610bb957829003601f168201915b50505050508152602001600182018054610bef906138ff565b80601f0160208091040260200160405190810160405280929190818152602001828054610c1b906138ff565b8015610c685780601f10610c3d57610100808354040283529160200191610c68565b820191906000526020600020905b815481529060010190602001808311610c4b57829003601f168201915b50505050508152602001600282018054610c81906138ff565b80601f0160208091040260200160405190810160405280929190818152602001828054610cad906138ff565b8015610cfa5780601f10610ccf57610100808354040283529160200191610cfa565b820191906000526020600020905b815481529060010190602001808311610cdd57829003601f168201915b50505050508152602001600382018054610d13906138ff565b80601f0160208091040260200160405190810160405280929190818152602001828054610d3f906138ff565b8015610d8c5780601f10610d6157610100808354040283529160200191610d8c565b820191906000526020600020905b815481529060010190602001808311610d6f57829003601f168201915b50505050508152602001600482018054610da5906138ff565b80601f0160208091040260200160405190810160405280929190818152602001828054610dd1906138ff565b8015610e1e5780601f10610df357610100808354040283529160200191610e1e565b820191906000526020600020905b815481529060010190602001808311610e0157829003601f168201915b50505050508152602001600582018054610e37906138ff565b80601f0160208091040260200160405190810160405280929190818152602001828054610e63906138ff565b8015610eb05780601f10610e8557610100808354040283529160200191610eb0565b820191906000526020600020905b815481529060010190602001808311610e9357829003601f168201915b505050505081525050908060110154908060120160009054906101000a900460ff16905089565b60075481565b60008711610f20576040517f08c379a0000000000000000000000000000000000000000000000000000000008152600401610f179061397c565b60405180910390fd5b600073ffffffffffffffffffffffffffffffffffffffff168673ffffffffffffffffffffffffffffffffffffffff1603610f8f576040517f08c379a0000000000000000000000000000000000000000000000000000000008152600401610f86906139e8565b60405180910390fd5b3373ffffffffffffffffffffffffffffffffffffffff168673ffffffffffffffffffffffffffffffffffffffff1603610ffd576040517f08c379a0000000000000000000000000000000000000000000000000000000008152600401610ff490613a7a565b60405180910390fd5b60008080549050905060006040518061012001604052808381526020013373ffffffffffffffffffffffffffffffffffffffff1681526020018881526020018781526020018681526020018973ffffffffffffffffffffffffffffffffffffffff1681526020018581526020018a81526020016000151581525090806001815401808255809150506001900390600052602060002090601302016000909190919091506000820151816000015560208201518160010160006101000a81548173ffffffffffffffffffffffffffffffffffffffff021916908373ffffffffffffffffffffffffffffffffffffffff160217905550604082015181600201908051906020019061110d9291906126f2565b50606082015181600301908051906020019061112a9291906126f2565b5060808201518160040160008201518160000190805190602001906111509291906126f2565b50602082015181600101908051906020019061116d9291906126f2565b50604082015181600201908051906020019061118a9291906126f2565b5060608201518160030190805190602001906111a79291906126f2565b5060808201518160040190805190602001906111c49291906126f2565b5060a08201518160050190805190602001906111e19291906126f2565b50505060a082015181600a0160006101000a81548173ffffffffffffffffffffffffffffffffffffffff021916908373ffffffffffffffffffffffffffffffffffffffff16021790555060c082015181600b0160008201518160000190805190602001906112509291906126f2565b50602082015181600101908051906020019061126d9291906126f2565b50604082015181600201908051906020019061128a9291906126f2565b5060608201518160030190805190602001906112a79291906126f2565b5060808201518160040190805190602001906112c49291906126f2565b5060a08201518160050190805190602001906112e19291906126f2565b50505060e082015181601101556101008201518160120160006101000a81548160ff021916908315150217905550505060005b82518110156113d8576003600083815260200190815260200160002083828151811061134357611342613a9a565b5b6020026020010151908060018154018082558091505060019003906000526020600020906006020160009091909190915060008201518160000190805190602001906113909291906126f2565b506020820151816001015560408201518160020155606082015181600301556080820151816004015560a08201518160050155505080806113d090613af8565b915050611314565b50600160003373ffffffffffffffffffffffffffffffffffffffff1673ffffffffffffffffffffffffffffffffffffffff168152602001908152602001600020819080600181540180825580915050600190039060005260206000200160009091909190915055600260008873ffffffffffffffffffffffffffffffffffffffff1673ffffffffffffffffffffffffffffffffffffffff1681526020019081526020016000208190806001815401808255809150506001900390600052602060002001600090919091909150558673ffffffffffffffffffffffffffffffffffffffff163373ffffffffffffffffffffffffffffffffffffffff167f88721abb1d35cff296c5d462601d6bdfed57e9493f8c361d2bcc24241a2ebfec838b604051611504929190613b40565b60405180910390a35050505050505050565b600460009054906101000a900473ffffffffffffffffffffffffffffffffffffffff1673ffffffffffffffffffffffffffffffffffffffff163373ffffffffffffffffffffffffffffffffffffffff16146115a6576040517f08c379a000000000000000000000000000000000000000000000000000000000815260040161159d90613bb5565b60405180910390fd5b600073ffffffffffffffffffffffffffffffffffffffff168173ffffffffffffffffffffffffffffffffffffffff1603611615576040517f08c379a000000000000000000000000000000000000000000000000000000000815260040161160c90613c47565b60405180910390fd5b80600560006101000a81548173ffffffffffffffffffffffffffffffffffffffff021916908373ffffffffffffffffffffffffffffffffffffffff16021790555050565b600460009054906101000a900473ffffffffffffffffffffffffffffffffffffffff1673ffffffffffffffffffffffffffffffffffffffff163373ffffffffffffffffffffffffffffffffffffffff16146116e9576040517f08c379a00000000000000000000000000000000000000000000000000000000081526004016116e090613bb5565b60405180910390fd5b8060068190555050565b600460009054906101000a900473ffffffffffffffffffffffffffffffffffffffff1681565b6003602052816000526040600020818154811061173557600080fd5b906000526020600020906006020160009150915050806000018054611759906138ff565b80601f0160208091040260200160405190810160405280929190818152602001828054611785906138ff565b80156117d25780601f106117a7576101008083540402835291602001916117d2565b820191906000526020600020905b8154815290600101906020018083116117b557829003601f168201915b5050505050908060010154908060020154908060030154908060040154908060050154905086565b6000805490508110611841576040517f08c379a000000000000000000000000000000000000000000000000000000000815260040161183890613cb3565b60405180910390fd5b600080828154811061185657611855613a9a565b5b9060005260206000209060130201905080600a0160009054906101000a900473ffffffffffffffffffffffffffffffffffffffff1673ffffffffffffffffffffffffffffffffffffffff163373ffffffffffffffffffffffffffffffffffffffff16146118f8576040517f08c379a00000000000000000000000000000000000000000000000000000000081526004016118ef90613d45565b60405180910390fd5b8060120160009054906101000a900460ff161561194a576040517f08c379a000000000000000000000000000000000000000000000000000000000815260040161194190613db1565b60405180910390fd5b600654816011015461195c9190613dd1565b34101561199e576040517f08c379a000000000000000000000000000000000000000000000000000000000815260040161199590613e99565b60405180910390fd5b6000600654346119ae9190613eb9565b905060008260010160009054906101000a900473ffffffffffffffffffffffffffffffffffffffff1673ffffffffffffffffffffffffffffffffffffffff16826040516119fa9061384f565b60006040518083038185875af1925050503d8060008114611a37576040519150601f19603f3d011682016040523d82523d6000602084013e611a3c565b606091505b5050905080611a80576040517f08c379a0000000000000000000000000000000000000000000000000000000008152600401611a7790613f39565b60405180910390fd5b60065460076000828254611a949190613dd1565b9250508190555060018360120160006101000a81548160ff02191690831515021790555050505050565b600560009054906101000a900473ffffffffffffffffffffffffffffffffffffffff1681565b606080611b2e600260008573ffffffffffffffffffffffffffffffffffffffff1673ffffffffffffffffffffffffffffffffffffffff168152602001908152602001600020611b3d565b91509150915091565b60065481565b6060806000838054905067ffffffffffffffff811115611b6057611b5f6130fb565b5b604051908082528060200260200182016040528015611b9957816020015b611b86612778565b815260200190600190039081611b7e5790505b5090506000848054905067ffffffffffffffff811115611bbc57611bbb6130fb565b5b604051908082528060200260200182016040528015611bef57816020015b6060815260200190600190039081611bda5790505b50905060005b85805490508110156126e4576000868281548110611c1657611c15613a9a565b5b906000526020600020015481548110611c3257611c31613a9a565b5b906000526020600020906013020160405180610120016040529081600082015481526020016001820160009054906101000a900473ffffffffffffffffffffffffffffffffffffffff1673ffffffffffffffffffffffffffffffffffffffff1673ffffffffffffffffffffffffffffffffffffffff168152602001600282018054611cbc906138ff565b80601f0160208091040260200160405190810160405280929190818152602001828054611ce8906138ff565b8015611d355780601f10611d0a57610100808354040283529160200191611d35565b820191906000526020600020905b815481529060010190602001808311611d1857829003601f168201915b50505050508152602001600382018054611d4e906138ff565b80601f0160208091040260200160405190810160405280929190818152602001828054611d7a906138ff565b8015611dc75780601f10611d9c57610100808354040283529160200191611dc7565b820191906000526020600020905b815481529060010190602001808311611daa57829003601f168201915b50505050508152602001600482016040518060c0016040529081600082018054611df0906138ff565b80601f0160208091040260200160405190810160405280929190818152602001828054611e1c906138ff565b8015611e695780601f10611e3e57610100808354040283529160200191611e69565b820191906000526020600020905b815481529060010190602001808311611e4c57829003601f168201915b50505050508152602001600182018054611e82906138ff565b80601f0160208091040260200160405190810160405280929190818152602001828054611eae906138ff565b8015611efb5780601f10611ed057610100808354040283529160200191611efb565b820191906000526020600020905b815481529060010190602001808311611ede57829003601f168201915b50505050508152602001600282018054611f14906138ff565b80601f0160208091040260200160405190810160405280929190818152602001828054611f40906138ff565b8015611f8d5780601f10611f6257610100808354040283529160200191611f8d565b820191906000526020600020905b815481529060010190602001808311611f7057829003601f168201915b50505050508152602001600382018054611fa6906138ff565b80601f0160208091040260200160405190810160405280929190818152602001828054611fd2906138ff565b801561201f5780601f10611ff45761010080835404028352916020019161201f565b820191906000526020600020905b81548152906001019060200180831161200257829003601f168201915b50505050508152602001600482018054612038906138ff565b80601f0160208091040260200160405190810160405280929190818152602001828054612064906138ff565b80156120b15780601f10612086576101008083540402835291602001916120b1565b820191906000526020600020905b81548152906001019060200180831161209457829003601f168201915b505050505081526020016005820180546120ca906138ff565b80601f01602080910402602001604051908101604052809291908181526020018280546120f6906138ff565b80156121435780601f1061211857610100808354040283529160200191612143565b820191906000526020600020905b81548152906001019060200180831161212657829003601f168201915b5050505050815250508152602001600a820160009054906101000a900473ffffffffffffffffffffffffffffffffffffffff1673ffffffffffffffffffffffffffffffffffffffff1673ffffffffffffffffffffffffffffffffffffffff168152602001600b82016040518060c00160405290816000820180546121c6906138ff565b80601f01602080910402602001604051908101604052809291908181526020018280546121f2906138ff565b801561223f5780601f106122145761010080835404028352916020019161223f565b820191906000526020600020905b81548152906001019060200180831161222257829003601f168201915b50505050508152602001600182018054612258906138ff565b80601f0160208091040260200160405190810160405280929190818152602001828054612284906138ff565b80156122d15780601f106122a6576101008083540402835291602001916122d1565b820191906000526020600020905b8154815290600101906020018083116122b457829003601f168201915b505050505081526020016002820180546122ea906138ff565b80601f0160208091040260200160405190810160405280929190818152602001828054612316906138ff565b80156123635780601f1061233857610100808354040283529160200191612363565b820191906000526020600020905b81548152906001019060200180831161234657829003601f168201915b5050505050815260200160038201805461237c906138ff565b80601f01602080910402602001604051908101604052809291908181526020018280546123a8906138ff565b80156123f55780601f106123ca576101008083540402835291602001916123f5565b820191906000526020600020905b8154815290600101906020018083116123d857829003601f168201915b5050505050815260200160048201805461240e906138ff565b80601f016020809104026020016040519081016040528092919081815260200182805461243a906138ff565b80156124875780601f1061245c57610100808354040283529160200191612487565b820191906000526020600020905b81548152906001019060200180831161246a57829003601f168201915b505050505081526020016005820180546124a0906138ff565b80601f01602080910402602001604051908101604052809291908181526020018280546124cc906138ff565b80156125195780601f106124ee57610100808354040283529160200191612519565b820191906000526020600020905b8154815290600101906020018083116124fc57829003601f168201915b5050505050815250508152602001601182015481526020016012820160009054906101000a900460ff16151515158152505083828151811061255e5761255d613a9a565b5b6020026020010181905250600360008783815481106125805761257f613a9a565b5b90600052602060002001548152602001908152602001600020805480602002602001604051908101604052809291908181526020016000905b828210156126af57838290600052602060002090600602016040518060c00160405290816000820180546125ec906138ff565b80601f0160208091040260200160405190810160405280929190818152602001828054612618906138ff565b80156126655780601f1061263a57610100808354040283529160200191612665565b820191906000526020600020905b81548152906001019060200180831161264857829003601f168201915b5050505050815260200160018201548152602001600282015481526020016003820154815260200160048201548152602001600582015481525050815260200190600101906125b9565b505050508282815181106126c6576126c5613a9a565b5b602002602001018190525080806126dc90613af8565b915050611bf5565b508181935093505050915091565b8280546126fe906138ff565b90600052602060002090601f0160209004810192826127205760008555612767565b82601f1061273957805160ff1916838001178555612767565b82800160010185558215612767579182015b8281111561276657825182559160200191906001019061274b565b5b50905061277491906127fe565b5090565b60405180610120016040528060008152602001600073ffffffffffffffffffffffffffffffffffffffff16815260200160608152602001606081526020016127be61281b565b8152602001600073ffffffffffffffffffffffffffffffffffffffff1681526020016127e861281b565b8152602001600081526020016000151581525090565b5b808211156128175760008160009055506001016127ff565b5090565b6040518060c001604052806060815260200160608152602001606081526020016060815260200160608152602001606081525090565b6000604051905090565b600080fd5b600080fd5b600073ffffffffffffffffffffffffffffffffffffffff82169050919050565b600061289082612865565b9050919050565b6128a081612885565b81146128ab57600080fd5b50565b6000813590506128bd81612897565b92915050565b6000819050919050565b6128d6816128c3565b81146128e157600080fd5b50565b6000813590506128f3816128cd565b92915050565b600080604083850312156129105761290f61285b565b5b600061291e858286016128ae565b925050602061292f858286016128e4565b9150509250929050565b612942816128c3565b82525050565b600060208201905061295d6000830184612939565b92915050565b6000602082840312156129795761297861285b565b5b6000612987848285016128ae565b91505092915050565b600081519050919050565b600082825260208201905092915050565b6000819050602082019050919050565b6129c5816128c3565b82525050565b6129d481612885565b82525050565b600081519050919050565b600082825260208201905092915050565b60005b83811015612a145780820151818401526020810190506129f9565b83811115612a23576000848401525b50505050565b6000601f19601f8301169050919050565b6000612a45826129da565b612a4f81856129e5565b9350612a5f8185602086016129f6565b612a6881612a29565b840191505092915050565b600060c0830160008301518482036000860152612a908282612a3a565b91505060208301518482036020860152612aaa8282612a3a565b91505060408301518482036040860152612ac48282612a3a565b91505060608301518482036060860152612ade8282612a3a565b91505060808301518482036080860152612af88282612a3a565b91505060a083015184820360a0860152612b128282612a3a565b9150508091505092915050565b60008115159050919050565b612b3481612b1f565b82525050565b600061012083016000830151612b5360008601826129bc565b506020830151612b6660208601826129cb565b5060408301518482036040860152612b7e8282612a3a565b91505060608301518482036060860152612b988282612a3a565b91505060808301518482036080860152612bb28282612a73565b91505060a0830151612bc760a08601826129cb565b5060c083015184820360c0860152612bdf8282612a73565b91505060e0830151612bf460e08601826129bc565b50610100830151612c09610100860182612b2b565b508091505092915050565b6000612c208383612b3a565b905092915050565b6000602082019050919050565b6000612c4082612990565b612c4a818561299b565b935083602082028501612c5c856129ac565b8060005b85811015612c985784840389528151612c798582612c14565b9450612c8483612c28565b925060208a01995050600181019050612c60565b50829750879550505050505092915050565b600081519050919050565b600082825260208201905092915050565b6000819050602082019050919050565b600081519050919050565b600082825260208201905092915050565b6000819050602082019050919050565b6000819050919050565b612d1581612d02565b82525050565b600060c0830160008301518482036000860152612d388282612a3a565b9150506020830151612d4d6020860182612d0c565b506040830151612d606040860182612d0c565b506060830151612d736060860182612d0c565b506080830151612d866080860182612d0c565b5060a0830151612d9960a0860182612d0c565b508091505092915050565b6000612db08383612d1b565b905092915050565b6000602082019050919050565b6000612dd082612cd6565b612dda8185612ce1565b935083602082028501612dec85612cf2565b8060005b85811015612e285784840389528151612e098582612da4565b9450612e1483612db8565b925060208a01995050600181019050612df0565b50829750879550505050505092915050565b6000612e468383612dc5565b905092915050565b6000602082019050919050565b6000612e6682612caa565b612e708185612cb5565b935083602082028501612e8285612cc6565b8060005b85811015612ebe5784840389528151612e9f8582612e3a565b9450612eaa83612e4e565b925060208a01995050600181019050612e86565b50829750879550505050505092915050565b60006040820190508181036000830152612eea8185612c35565b90508181036020830152612efe8184612e5b565b90509392505050565b600060208284031215612f1d57612f1c61285b565b5b6000612f2b848285016128e4565b91505092915050565b612f3d81612885565b82525050565b600082825260208201905092915050565b6000612f5f826129da565b612f698185612f43565b9350612f798185602086016129f6565b612f8281612a29565b840191505092915050565b600060c0830160008301518482036000860152612faa8282612a3a565b91505060208301518482036020860152612fc48282612a3a565b91505060408301518482036040860152612fde8282612a3a565b91505060608301518482036060860152612ff88282612a3a565b915050608083015184820360808601526130128282612a3a565b91505060a083015184820360a086015261302c8282612a3a565b9150508091505092915050565b61304281612b1f565b82525050565b60006101208201905061305e600083018c612939565b61306b602083018b612f34565b818103604083015261307d818a612f54565b905081810360608301526130918189612f54565b905081810360808301526130a58188612f8d565b90506130b460a0830187612f34565b81810360c08301526130c68186612f8d565b90506130d560e0830185612939565b6130e3610100830184613039565b9a9950505050505050505050565b600080fd5b600080fd5b7f4e487b7100000000000000000000000000000000000000000000000000000000600052604160045260246000fd5b61313382612a29565b810181811067ffffffffffffffff82111715613152576131516130fb565b5b80604052505050565b6000613165612851565b9050613171828261312a565b919050565b600067ffffffffffffffff821115613191576131906130fb565b5b61319a82612a29565b9050602081019050919050565b82818337600083830152505050565b60006131c96131c484613176565b61315b565b9050828152602081018484840111156131e5576131e46130f6565b5b6131f08482856131a7565b509392505050565b600082601f83011261320d5761320c6130f1565b5b813561321d8482602086016131b6565b91505092915050565b600080fd5b600080fd5b600060c0828403121561324657613245613226565b5b61325060c061315b565b9050600082013567ffffffffffffffff8111156132705761326f61322b565b5b61327c848285016131f8565b600083015250602082013567ffffffffffffffff8111156132a05761329f61322b565b5b6132ac848285016131f8565b602083015250604082013567ffffffffffffffff8111156132d0576132cf61322b565b5b6132dc848285016131f8565b604083015250606082013567ffffffffffffffff811115613300576132ff61322b565b5b61330c848285016131f8565b606083015250608082013567ffffffffffffffff8111156133305761332f61322b565b5b61333c848285016131f8565b60808301525060a082013567ffffffffffffffff8111156133605761335f61322b565b5b61336c848285016131f8565b60a08301525092915050565b600067ffffffffffffffff821115613393576133926130fb565b5b602082029050602081019050919050565b600080fd5b6133b281612d02565b81146133bd57600080fd5b50565b6000813590506133cf816133a9565b92915050565b600060c082840312156133eb576133ea613226565b5b6133f560c061315b565b9050600082013567ffffffffffffffff8111156134155761341461322b565b5b613421848285016131f8565b6000830152506020613435848285016133c0565b6020830152506040613449848285016133c0565b604083015250606061345d848285016133c0565b6060830152506080613471848285016133c0565b60808301525060a0613485848285016133c0565b60a08301525092915050565b60006134a461349f84613378565b61315b565b905080838252602082019050602084028301858111156134c7576134c66133a4565b5b835b8181101561350e57803567ffffffffffffffff8111156134ec576134eb6130f1565b5b8086016134f989826133d5565b855260208501945050506020810190506134c9565b5050509392505050565b600082601f83011261352d5761352c6130f1565b5b813561353d848260208601613491565b91505092915050565b600080600080600080600060e0888a0312156135655761356461285b565b5b60006135738a828b016128e4565b97505060206135848a828b016128ae565b965050604088013567ffffffffffffffff8111156135a5576135a4612860565b5b6135b18a828b016131f8565b955050606088013567ffffffffffffffff8111156135d2576135d1612860565b5b6135de8a828b016131f8565b945050608088013567ffffffffffffffff8111156135ff576135fe612860565b5b61360b8a828b01613230565b93505060a088013567ffffffffffffffff81111561362c5761362b612860565b5b6136388a828b01613230565b92505060c088013567ffffffffffffffff81111561365957613658612860565b5b6136658a828b01613518565b91505092959891949750929550565b60006020820190506136896000830184612f34565b92915050565b600080604083850312156136a6576136a561285b565b5b60006136b4858286016128e4565b92505060206136c5858286016128e4565b9150509250929050565b6136d881612d02565b82525050565b600060c08201905081810360008301526136f88189612f54565b905061370760208301886136cf565b61371460408301876136cf565b61372160608301866136cf565b61372e60808301856136cf565b61373b60a08301846136cf565b979650505050505050565b7f54726561737572792061646472657373206e6f74207365740000000000000000600082015250565b600061377c601883612f43565b915061378782613746565b602082019050919050565b600060208201905081810360008301526137ab8161376f565b9050919050565b7f4e6f206665657320746f20776974686472617700000000000000000000000000600082015250565b60006137e8601383612f43565b91506137f3826137b2565b602082019050919050565b60006020820190508181036000830152613817816137db565b9050919050565b600081905092915050565b50565b600061383960008361381e565b915061384482613829565b600082019050919050565b600061385a8261382c565b9150819050919050565b7f466565207769746864726177616c206661696c65640000000000000000000000600082015250565b600061389a601583612f43565b91506138a582613864565b602082019050919050565b600060208201905081810360008301526138c98161388d565b9050919050565b7f4e487b7100000000000000000000000000000000000000000000000000000000600052602260045260246000fd5b6000600282049050600182168061391757607f821691505b60208210810361392a576139296138d0565b5b50919050565b7f416d6f756e74206d7573742062652067726561746572207468616e207a65726f600082015250565b6000613966602083612f43565b915061397182613930565b602082019050919050565b6000602082019050818103600083015261399581613959565b9050919050565b7f526563656976657220616464726573732063616e6e6f74206265207a65726f00600082015250565b60006139d2601f83612f43565b91506139dd8261399c565b602082019050919050565b60006020820190508181036000830152613a01816139c5565b9050919050565b7f43616e6e6f742063726561746520696e766f69636520666f7220796f7572736560008201527f6c66000000000000000000000000000000000000000000000000000000000000602082015250565b6000613a64602283612f43565b9150613a6f82613a08565b604082019050919050565b60006020820190508181036000830152613a9381613a57565b9050919050565b7f4e487b7100000000000000000000000000000000000000000000000000000000600052603260045260246000fd5b7f4e487b7100000000000000000000000000000000000000000000000000000000600052601160045260246000fd5b6000613b03826128c3565b91507fffffffffffffffffffffffffffffffffffffffffffffffffffffffffffffffff8203613b3557613b34613ac9565b5b600182019050919050565b6000604082019050613b556000830185612939565b613b626020830184612939565b9392505050565b7f4f6e6c79204f776e65722069732061636365737369626c650000000000000000600082015250565b6000613b9f601883612f43565b9150613baa82613b69565b602082019050919050565b60006020820190508181036000830152613bce81613b92565b9050919050565b7f547265617375727920416464726573732063616e6e6f7420626520657175616c60008201527f20746f207a65726f000000000000000000000000000000000000000000000000602082015250565b6000613c31602883612f43565b9150613c3c82613bd5565b604082019050919050565b60006020820190508181036000830152613c6081613c24565b9050919050565b7f496e76616c696420696e766f6963652049440000000000000000000000000000600082015250565b6000613c9d601283612f43565b9150613ca882613c67565b602082019050919050565b60006020820190508181036000830152613ccc81613c90565b9050919050565b7f4e6f7420617574686f72697a656420746f20706179207468697320696e766f6960008201527f6365000000000000000000000000000000000000000000000000000000000000602082015250565b6000613d2f602283612f43565b9150613d3a82613cd3565b604082019050919050565b60006020820190508181036000830152613d5e81613d22565b9050919050565b7f496e766f69636520616c72656164792070616964000000000000000000000000600082015250565b6000613d9b601483612f43565b9150613da682613d65565b602082019050919050565b60006020820190508181036000830152613dca81613d8e565b9050919050565b6000613ddc826128c3565b9150613de7836128c3565b9250827fffffffffffffffffffffffffffffffffffffffffffffffffffffffffffffffff03821115613e1c57613e1b613ac9565b5b828201905092915050565b7f5061796d656e74206d75737420636f7665722074686520696e766f696365206160008201527f6d6f756e7420616e642066656500000000000000000000000000000000000000602082015250565b6000613e83602d83612f43565b9150613e8e82613e27565b604082019050919050565b60006020820190508181036000830152613eb281613e76565b9050919050565b6000613ec4826128c3565b9150613ecf836128c3565b925082821015613ee257613ee1613ac9565b5b828203905092915050565b7f5061796d656e74207472616e73666572206661696c6564000000000000000000600082015250565b6000613f23601783612f43565b9150613f2e82613eed565b602082019050919050565b60006020820190508181036000830152613f5281613f16565b905091905056fea26469706673582212204cc434ac03e3f6d6c20cfc5b6d35ef9833c7603b806f990d94552ab26de5483d64736f6c634300080d0033","linkReferences":{}},"methodIdentifiers":{"accumulatedFees()":"587f5ed7","createInvoice(uint256,address,string,string,(string,string,string,string,string,string),(string,string,string,string,string,string),(string,int256,int256,int256,int256,int256)[])":"64dd0a9a","fee()":"ddca3f43","getReceivedInvoices(address)":"cf37613e","getSentInvoices(address)":"41f1c451","invoices(uint256)":"4e6d1405","itemDatas(uint256,uint256)":"9dcdd30a","owner()":"8da5cb5b","payInvoice(uint256)":"ac60a6cd","receivedInvoices(address,uint256)":"39524669","sentInvoices(address,uint256)":"05fac230","setFeeAmount(uint256)":"6b392680","setTreasuryAddress(address)":"6605bfda","treasuryAddress()":"c5f956af","withdraw()":"3ccfd60b"},"id":21}