{"abi":[{"type":"constructor","inputs":[],"stateMutability":"nonpayable"},{"type":"function","name":"accumulatedFees","inputs":[],"outputs":[{"name":"","type":"uint256","internalType":"uint256"}],"stateMutability":"view"},{"type":"function","name":"createInvoice","inputs":[{"name":"to","type":"address","internalType":"address"},{"name":"encryptedInvoiceData","type":"string","internalType":"string"},{"name":"encryptedHash","type":"string","internalType":"string"}],"outputs":[],"stateMutability":"nonpayable"},{"type":"function","name":"fee","inputs":[],"outputs":[{"name":"","type":"uint256","internalType":"uint256"}],"stateMutability":"view"},{"type":"function","name":"getInvoice","inputs":[{"name":"invoiceId","type":"uint256","internalType":"uint256"}],"outputs":[{"name":"","type":"tuple","internalType":"struct Chainvoice.InvoiceDetails","components":[{"name":"id","type":"uint256","internalType":"uint256"},{"name":"from","type":"address","internalType":"address"},{"name":"to","type":"address","internalType":"address"},{"name":"isPaid","type":"bool","internalType":"bool"},{"name":"encryptedInvoiceData","type":"string","internalType":"string"},{"name":"encryptedHash","type":"string","internalType":"string"}]}],"stateMutability":"view"},{"type":"function","name":"getReceivedInvoices","inputs":[{"name":"user","type":"address","internalType":"address"}],"outputs":[{"name":"","type":"tuple[]","internalType":"struct Chainvoice.InvoiceDetails[]","components":[{"name":"id","type":"uint256","internalType":"uint256"},{"name":"from","type":"address","internalType":"address"},{"name":"to","type":"address","internalType":"address"},{"name":"isPaid","type":"bool","internalType":"bool"},{"name":"encryptedInvoiceData","type":"string","internalType":"string"},{"name":"encryptedHash","type":"string","internalType":"string"}]}],"stateMutability":"view"},{"type":"function","name":"getSentInvoices","inputs":[{"name":"user","type":"address","internalType":"address"}],"outputs":[{"name":"","type":"tuple[]","internalType":"struct Chainvoice.InvoiceDetails[]","components":[{"name":"id","type":"uint256","internalType":"uint256"},{"name":"from","type":"address","internalType":"address"},{"name":"to","type":"address","internalType":"address"},{"name":"isPaid","type":"bool","internalType":"bool"},{"name":"encryptedInvoiceData","type":"string","internalType":"string"},{"name":"encryptedHash","type":"string","internalType":"string"}]}],"stateMutability":"view"},{"type":"function","name":"invoices","inputs":[{"name":"","type":"uint256","internalType":"uint256"}],"outputs":[{"name":"id","type":"uint256","internalType":"uint256"},{"name":"from","type":"address","internalType":"address"},{"name":"to","type":"address","internalType":"address"},{"name":"isPaid","type":"bool","internalType":"bool"},{"name":"encryptedInvoiceData","type":"string","internalType":"string"},{"name":"encryptedHash","type":"string","internalType":"string"}],"stateMutability":"view"},{"type":"function","name":"owner","inputs":[],"outputs":[{"name":"","type":"address","internalType":"address"}],"stateMutability":"view"},{"type":"function","name":"payInvoice","inputs":[{"name":"invoiceId","type":"uint256","internalType":"uint256"}],"outputs":[],"stateMutability":"payable"},{"type":"function","name":"receivedInvoices","inputs":[{"name":"","type":"address","internalType":"address"},{"name":"","type":"uint256","internalType":"uint256"}],"outputs":[{"name":"","type":"uint256","internalType":"uint256"}],"stateMutability":"view"},{"type":"function","name":"sentInvoices","inputs":[{"name":"","type":"address","internalType":"address"},{"name":"","type":"uint256","internalType":"uint256"}],"outputs":[{"name":"","type":"uint256","internalType":"uint256"}],"stateMutability":"view"},{"type":"function","name":"setFeeAmount","inputs":[{"name":"_fee","type":"uint256","internalType":"uint256"}],"outputs":[],"stateMutability":"nonpayable"},{"type":"function","name":"setTreasuryAddress","inputs":[{"name":"newTreasury","type":"address","internalType":"address"}],"outputs":[],"stateMutability":"nonpayable"},{"type":"function","name":"treasuryAddress","inputs":[],"outputs":[{"name":"","type":"address","internalType":"address"}],"stateMutability":"view"},{"type":"function","name":"withdrawFees","inputs":[],"outputs":[],"stateMutability":"nonpayable"},{"type":"event","name":"InvoiceCreated","inputs":[{"name":"id","type":"uint256","indexed":true,"internalType":"uint256"},{"name":"from","type":"address","indexed":true,"internalType":"address"},{"name":"to","type":"address","indexed":true,"internalType":"address"}],"anonymous":false},{"type":"event","name":"InvoicePaid","inputs":[{"name":"id","type":"uint256","indexed":true,"internalType":"uint256"},{"name":"from","type":"address","indexed":true,"internalType":"address"},{"name":"to","type":"address","indexed":true,"internalType":"address"},{"name":"amount","type":"uint256","indexed":false,"internalType":"uint256"}],"anonymous":false}],"bytecode":{"object":"0x608060405234801561001057600080fd5b5033600360006101000a81548173ffffffffffffffffffffffffffffffffffffffff021916908373ffffffffffffffffffffffffffffffffffffffff1602179055506601c6bf5263400060058190555061266b8061006f6000396000f3fe6080604052600436106100e85760003560e01c8063587f5ed71161008a578063ac60a6cd11610059578063ac60a6cd1461030b578063c5f956af14610327578063cf37613e14610352578063ddca3f431461038f576100e8565b8063587f5ed7146102635780636605bfda1461028e5780636b392680146102b75780638da5cb5b146102e0576100e8565b80633a23cc0a116100c65780633a23cc0a1461019057806341f1c451146101cd578063476343ee1461020a5780634e6d140514610221576100e8565b806305fac230146100ed57806337bbda1b1461012a5780633952466914610153575b600080fd5b3480156100f957600080fd5b50610114600480360381019061010f919061184f565b6103ba565b604051610121919061189e565b60405180910390f35b34801561013657600080fd5b50610151600480360381019061014c91906119ff565b6103eb565b005b34801561015f57600080fd5b5061017a6004803603810190610175919061184f565b610779565b604051610187919061189e565b60405180910390f35b34801561019c57600080fd5b506101b760048036038101906101b29190611a8a565b6107aa565b6040516101c49190611c08565b60405180910390f35b3480156101d957600080fd5b506101f460048036038101906101ef9190611c2a565b610a22565b6040516102019190611da9565b60405180910390f35b34801561021657600080fd5b5061021f610a72565b005b34801561022d57600080fd5b5061024860048036038101906102439190611a8a565b610c29565b60405161025a96959493929190611e33565b60405180910390f35b34801561026f57600080fd5b50610278610dd2565b604051610285919061189e565b60405180910390f35b34801561029a57600080fd5b506102b560048036038101906102b09190611c2a565b610dd8565b005b3480156102c357600080fd5b506102de60048036038101906102d99190611a8a565b610f1b565b005b3480156102ec57600080fd5b506102f5610fb5565b6040516103029190611ea2565b60405180910390f35b61032560048036038101906103209190611a8a565b610fdb565b005b34801561033357600080fd5b5061033c61133d565b6040516103499190611ea2565b60405180910390f35b34801561035e57600080fd5b5061037960048036038101906103749190611c2a565b611363565b6040516103869190611da9565b60405180910390f35b34801561039b57600080fd5b506103a46113b3565b6040516103b1919061189e565b60405180910390f35b600160205281600052604060002081815481106103d657600080fd5b90600052602060002001600091509150505481565b600073ffffffffffffffffffffffffffffffffffffffff168373ffffffffffffffffffffffffffffffffffffffff160361045a576040517f08c379a000000000000000000000000000000000000000000000000000000000815260040161045190611f09565b60405180910390fd5b3373ffffffffffffffffffffffffffffffffffffffff168373ffffffffffffffffffffffffffffffffffffffff16036104c8576040517f08c379a00000000000000000000000000000000000000000000000000000000081526004016104bf90611f75565b60405180910390fd5b60008080549050905060006040518060c001604052808381526020013373ffffffffffffffffffffffffffffffffffffffff1681526020018673ffffffffffffffffffffffffffffffffffffffff1681526020016000151581526020018581526020018481525090806001815401808255809150506001900390600052602060002090600502016000909190919091506000820151816000015560208201518160010160006101000a81548173ffffffffffffffffffffffffffffffffffffffff021916908373ffffffffffffffffffffffffffffffffffffffff16021790555060408201518160020160006101000a81548173ffffffffffffffffffffffffffffffffffffffff021916908373ffffffffffffffffffffffffffffffffffffffff16021790555060608201518160020160146101000a81548160ff021916908315150217905550608082015181600301908051906020019061062c9291906116a0565b5060a08201518160040190805190602001906106499291906116a0565b505050600160003373ffffffffffffffffffffffffffffffffffffffff1673ffffffffffffffffffffffffffffffffffffffff168152602001908152602001600020819080600181540180825580915050600190039060005260206000200160009091909190915055600260008573ffffffffffffffffffffffffffffffffffffffff1673ffffffffffffffffffffffffffffffffffffffff1681526020019081526020016000208190806001815401808255809150506001900390600052602060002001600090919091909150558373ffffffffffffffffffffffffffffffffffffffff163373ffffffffffffffffffffffffffffffffffffffff16827f65bdb973065761140db7df2be163022e97b08722d90c4b826e41bb8e65d303ba60405160405180910390a450505050565b6002602052816000526040600020818154811061079557600080fd5b90600052602060002001600091509150505481565b6107b2611726565b60008054905082106107f9576040517f08c379a00000000000000000000000000000000000000000000000000000000081526004016107f090611fe1565b60405180910390fd5b6000828154811061080d5761080c612001565b5b90600052602060002090600502016040518060c0016040529081600082015481526020016001820160009054906101000a900473ffffffffffffffffffffffffffffffffffffffff1673ffffffffffffffffffffffffffffffffffffffff1673ffffffffffffffffffffffffffffffffffffffff1681526020016002820160009054906101000a900473ffffffffffffffffffffffffffffffffffffffff1673ffffffffffffffffffffffffffffffffffffffff1673ffffffffffffffffffffffffffffffffffffffff1681526020016002820160149054906101000a900460ff161515151581526020016003820180546109079061205f565b80601f01602080910402602001604051908101604052809291908181526020018280546109339061205f565b80156109805780601f1061095557610100808354040283529160200191610980565b820191906000526020600020905b81548152906001019060200180831161096357829003601f168201915b505050505081526020016004820180546109999061205f565b80601f01602080910402602001604051908101604052809291908181526020018280546109c59061205f565b8015610a125780601f106109e757610100808354040283529160200191610a12565b820191906000526020600020905b8154815290600101906020018083116109f557829003601f168201915b5050505050815250509050919050565b6060610a6b600160008473ffffffffffffffffffffffffffffffffffffffff1673ffffffffffffffffffffffffffffffffffffffff1681526020019081526020016000206113b9565b9050919050565b600073ffffffffffffffffffffffffffffffffffffffff16600460009054906101000a900473ffffffffffffffffffffffffffffffffffffffff1673ffffffffffffffffffffffffffffffffffffffff1603610b03576040517f08c379a0000000000000000000000000000000000000000000000000000000008152600401610afa906120dc565b60405180910390fd5b600060065411610b48576040517f08c379a0000000000000000000000000000000000000000000000000000000008152600401610b3f90612148565b60405180910390fd5b6000600654905060006006819055506000600460009054906101000a900473ffffffffffffffffffffffffffffffffffffffff1673ffffffffffffffffffffffffffffffffffffffff1682604051610b9f90612199565b60006040518083038185875af1925050503d8060008114610bdc576040519150601f19603f3d011682016040523d82523d6000602084013e610be1565b606091505b5050905080610c25576040517f08c379a0000000000000000000000000000000000000000000000000000000008152600401610c1c906121fa565b60405180910390fd5b5050565b60008181548110610c3957600080fd5b90600052602060002090600502016000915090508060000154908060010160009054906101000a900473ffffffffffffffffffffffffffffffffffffffff16908060020160009054906101000a900473ffffffffffffffffffffffffffffffffffffffff16908060020160149054906101000a900460ff1690806003018054610cc19061205f565b80601f0160208091040260200160405190810160405280929190818152602001828054610ced9061205f565b8015610d3a5780601f10610d0f57610100808354040283529160200191610d3a565b820191906000526020600020905b815481529060010190602001808311610d1d57829003601f168201915b505050505090806004018054610d4f9061205f565b80601f0160208091040260200160405190810160405280929190818152602001828054610d7b9061205f565b8015610dc85780601f10610d9d57610100808354040283529160200191610dc8565b820191906000526020600020905b815481529060010190602001808311610dab57829003601f168201915b5050505050905086565b60065481565b600360009054906101000a900473ffffffffffffffffffffffffffffffffffffffff1673ffffffffffffffffffffffffffffffffffffffff163373ffffffffffffffffffffffffffffffffffffffff1614610e68576040517f08c379a0000000000000000000000000000000000000000000000000000000008152600401610e5f90612266565b60405180910390fd5b600073ffffffffffffffffffffffffffffffffffffffff168173ffffffffffffffffffffffffffffffffffffffff1603610ed7576040517f08c379a0000000000000000000000000000000000000000000000000000000008152600401610ece906122d2565b60405180910390fd5b80600460006101000a81548173ffffffffffffffffffffffffffffffffffffffff021916908373ffffffffffffffffffffffffffffffffffffffff16021790555050565b600360009054906101000a900473ffffffffffffffffffffffffffffffffffffffff1673ffffffffffffffffffffffffffffffffffffffff163373ffffffffffffffffffffffffffffffffffffffff1614610fab576040517f08c379a0000000000000000000000000000000000000000000000000000000008152600401610fa290612266565b60405180910390fd5b8060058190555050565b600360009054906101000a900473ffffffffffffffffffffffffffffffffffffffff1681565b6000805490508110611022576040517f08c379a00000000000000000000000000000000000000000000000000000000081526004016110199061233e565b60405180910390fd5b600080828154811061103757611036612001565b5b906000526020600020906005020190508060020160009054906101000a900473ffffffffffffffffffffffffffffffffffffffff1673ffffffffffffffffffffffffffffffffffffffff163373ffffffffffffffffffffffffffffffffffffffff16146110d9576040517f08c379a00000000000000000000000000000000000000000000000000000000081526004016110d0906123aa565b60405180910390fd5b8060020160149054906101000a900460ff161561112b576040517f08c379a000000000000000000000000000000000000000000000000000000000815260040161112290612416565b60405180910390fd5b600554341161116f576040517f08c379a0000000000000000000000000000000000000000000000000000000008152600401611166906124a8565b60405180910390fd5b60006005543461117f91906124f7565b905060055460066000828254611195919061252b565b9250508190555060008260010160009054906101000a900473ffffffffffffffffffffffffffffffffffffffff1673ffffffffffffffffffffffffffffffffffffffff16826040516111e690612199565b60006040518083038185875af1925050503d8060008114611223576040519150601f19603f3d011682016040523d82523d6000602084013e611228565b606091505b505090508061126c576040517f08c379a0000000000000000000000000000000000000000000000000000000008152600401611263906125cd565b60405180910390fd5b60018360020160146101000a81548160ff0219169083151502179055508260020160009054906101000a900473ffffffffffffffffffffffffffffffffffffffff1673ffffffffffffffffffffffffffffffffffffffff168360010160009054906101000a900473ffffffffffffffffffffffffffffffffffffffff1673ffffffffffffffffffffffffffffffffffffffff16857f4894261bc8821cd0e09696d6fa3e110c4034efc8f207633c1e1d16b7ea07fe7b3460405161132f919061189e565b60405180910390a450505050565b600460009054906101000a900473ffffffffffffffffffffffffffffffffffffffff1681565b60606113ac600260008473ffffffffffffffffffffffffffffffffffffffff1673ffffffffffffffffffffffffffffffffffffffff1681526020019081526020016000206113b9565b9050919050565b60055481565b60606000828054905067ffffffffffffffff8111156113db576113da6118d4565b5b60405190808252806020026020018201604052801561141457816020015b611401611726565b8152602001906001900390816113f95790505b50905060005b838054905081101561169657600084828154811061143b5761143a612001565b5b90600052602060002001548154811061145757611456612001565b5b90600052602060002090600502016040518060c0016040529081600082015481526020016001820160009054906101000a900473ffffffffffffffffffffffffffffffffffffffff1673ffffffffffffffffffffffffffffffffffffffff1673ffffffffffffffffffffffffffffffffffffffff1681526020016002820160009054906101000a900473ffffffffffffffffffffffffffffffffffffffff1673ffffffffffffffffffffffffffffffffffffffff1673ffffffffffffffffffffffffffffffffffffffff1681526020016002820160149054906101000a900460ff161515151581526020016003820180546115519061205f565b80601f016020809104026020016040519081016040528092919081815260200182805461157d9061205f565b80156115ca5780601f1061159f576101008083540402835291602001916115ca565b820191906000526020600020905b8154815290600101906020018083116115ad57829003601f168201915b505050505081526020016004820180546115e39061205f565b80601f016020809104026020016040519081016040528092919081815260200182805461160f9061205f565b801561165c5780601f106116315761010080835404028352916020019161165c565b820191906000526020600020905b81548152906001019060200180831161163f57829003601f168201915b50505050508152505082828151811061167857611677612001565b5b6020026020010181905250808061168e906125ed565b91505061141a565b5080915050919050565b8280546116ac9061205f565b90600052602060002090601f0160209004810192826116ce5760008555611715565b82601f106116e757805160ff1916838001178555611715565b82800160010185558215611715579182015b828111156117145782518255916020019190600101906116f9565b5b509050611722919061178a565b5090565b6040518060c0016040528060008152602001600073ffffffffffffffffffffffffffffffffffffffff168152602001600073ffffffffffffffffffffffffffffffffffffffff16815260200160001515815260200160608152602001606081525090565b5b808211156117a357600081600090555060010161178b565b5090565b6000604051905090565b600080fd5b600080fd5b600073ffffffffffffffffffffffffffffffffffffffff82169050919050565b60006117e6826117bb565b9050919050565b6117f6816117db565b811461180157600080fd5b50565b600081359050611813816117ed565b92915050565b6000819050919050565b61182c81611819565b811461183757600080fd5b50565b60008135905061184981611823565b92915050565b60008060408385031215611866576118656117b1565b5b600061187485828601611804565b92505060206118858582860161183a565b9150509250929050565b61189881611819565b82525050565b60006020820190506118b3600083018461188f565b92915050565b600080fd5b600080fd5b6000601f19601f8301169050919050565b7f4e487b7100000000000000000000000000000000000000000000000000000000600052604160045260246000fd5b61190c826118c3565b810181811067ffffffffffffffff8211171561192b5761192a6118d4565b5b80604052505050565b600061193e6117a7565b905061194a8282611903565b919050565b600067ffffffffffffffff82111561196a576119696118d4565b5b611973826118c3565b9050602081019050919050565b82818337600083830152505050565b60006119a261199d8461194f565b611934565b9050828152602081018484840111156119be576119bd6118be565b5b6119c9848285611980565b509392505050565b600082601f8301126119e6576119e56118b9565b5b81356119f684826020860161198f565b91505092915050565b600080600060608486031215611a1857611a176117b1565b5b6000611a2686828701611804565b935050602084013567ffffffffffffffff811115611a4757611a466117b6565b5b611a53868287016119d1565b925050604084013567ffffffffffffffff811115611a7457611a736117b6565b5b611a80868287016119d1565b9150509250925092565b600060208284031215611aa057611a9f6117b1565b5b6000611aae8482850161183a565b91505092915050565b611ac081611819565b82525050565b611acf816117db565b82525050565b60008115159050919050565b611aea81611ad5565b82525050565b600081519050919050565b600082825260208201905092915050565b60005b83811015611b2a578082015181840152602081019050611b0f565b83811115611b39576000848401525b50505050565b6000611b4a82611af0565b611b548185611afb565b9350611b64818560208601611b0c565b611b6d816118c3565b840191505092915050565b600060c083016000830151611b906000860182611ab7565b506020830151611ba36020860182611ac6565b506040830151611bb66040860182611ac6565b506060830151611bc96060860182611ae1565b5060808301518482036080860152611be18282611b3f565b91505060a083015184820360a0860152611bfb8282611b3f565b9150508091505092915050565b60006020820190508181036000830152611c228184611b78565b905092915050565b600060208284031215611c4057611c3f6117b1565b5b6000611c4e84828501611804565b91505092915050565b600081519050919050565b600082825260208201905092915050565b6000819050602082019050919050565b600060c083016000830151611c9b6000860182611ab7565b506020830151611cae6020860182611ac6565b506040830151611cc16040860182611ac6565b506060830151611cd46060860182611ae1565b5060808301518482036080860152611cec8282611b3f565b91505060a083015184820360a0860152611d068282611b3f565b9150508091505092915050565b6000611d1f8383611c83565b905092915050565b6000602082019050919050565b6000611d3f82611c57565b611d498185611c62565b935083602082028501611d5b85611c73565b8060005b85811015611d975784840389528151611d788582611d13565b9450611d8383611d27565b925060208a01995050600181019050611d5f565b50829750879550505050505092915050565b60006020820190508181036000830152611dc38184611d34565b905092915050565b611dd4816117db565b82525050565b611de381611ad5565b82525050565b600082825260208201905092915050565b6000611e0582611af0565b611e0f8185611de9565b9350611e1f818560208601611b0c565b611e28816118c3565b840191505092915050565b600060c082019050611e48600083018961188f565b611e556020830188611dcb565b611e626040830187611dcb565b611e6f6060830186611dda565b8181036080830152611e818185611dfa565b905081810360a0830152611e958184611dfa565b9050979650505050505050565b6000602082019050611eb76000830184611dcb565b92915050565b7f526563697069656e742061646472657373206973207a65726f00000000000000600082015250565b6000611ef3601983611de9565b9150611efe82611ebd565b602082019050919050565b60006020820190508181036000830152611f2281611ee6565b9050919050565b7f53656c662d696e766f6963696e67206e6f7420616c6c6f776564000000000000600082015250565b6000611f5f601a83611de9565b9150611f6a82611f29565b602082019050919050565b60006020820190508181036000830152611f8e81611f52565b9050919050565b7f496e76616c696420494400000000000000000000000000000000000000000000600082015250565b6000611fcb600a83611de9565b9150611fd682611f95565b602082019050919050565b60006020820190508181036000830152611ffa81611fbe565b9050919050565b7f4e487b7100000000000000000000000000000000000000000000000000000000600052603260045260246000fd5b7f4e487b7100000000000000000000000000000000000000000000000000000000600052602260045260246000fd5b6000600282049050600182168061207757607f821691505b60208210810361208a57612089612030565b5b50919050565b7f5472656173757279206e6f742073657400000000000000000000000000000000600082015250565b60006120c6601083611de9565b91506120d182612090565b602082019050919050565b600060208201905081810360008301526120f5816120b9565b9050919050565b7f4e6f206665657320617661696c61626c65000000000000000000000000000000600082015250565b6000612132601183611de9565b915061213d826120fc565b602082019050919050565b6000602082019050818103600083015261216181612125565b9050919050565b600081905092915050565b50565b6000612183600083612168565b915061218e82612173565b600082019050919050565b60006121a482612176565b9150819050919050565b7f5769746864726177206661696c65640000000000000000000000000000000000600082015250565b60006121e4600f83611de9565b91506121ef826121ae565b602082019050919050565b60006020820190508181036000830152612213816121d7565b9050919050565b7f4f6e6c79206f776e65722063616e2063616c6c00000000000000000000000000600082015250565b6000612250601383611de9565b915061225b8261221a565b602082019050919050565b6000602082019050818103600083015261227f81612243565b9050919050565b7f5a65726f20616464726573730000000000000000000000000000000000000000600082015250565b60006122bc600c83611de9565b91506122c782612286565b602082019050919050565b600060208201905081810360008301526122eb816122af565b9050919050565b7f496e76616c696420696e766f6963652049440000000000000000000000000000600082015250565b6000612328601283611de9565b9150612333826122f2565b602082019050919050565b600060208201905081810360008301526123578161231b565b9050919050565b7f4e6f7420617574686f72697a6564000000000000000000000000000000000000600082015250565b6000612394600e83611de9565b915061239f8261235e565b602082019050919050565b600060208201905081810360008301526123c381612387565b9050919050565b7f416c726561647920706169640000000000000000000000000000000000000000600082015250565b6000612400600c83611de9565b915061240b826123ca565b602082019050919050565b6000602082019050818103600083015261242f816123f3565b9050919050565b7f496e73756666696369656e74207061796d656e7420666f7220696e766f69636560008201527f202b206665650000000000000000000000000000000000000000000000000000602082015250565b6000612492602683611de9565b915061249d82612436565b604082019050919050565b600060208201905081810360008301526124c181612485565b9050919050565b7f4e487b7100000000000000000000000000000000000000000000000000000000600052601160045260246000fd5b600061250282611819565b915061250d83611819565b9250828210156125205761251f6124c8565b5b828203905092915050565b600061253682611819565b915061254183611819565b9250827fffffffffffffffffffffffffffffffffffffffffffffffffffffffffffffffff03821115612576576125756124c8565b5b828201905092915050565b7f5472616e73666572206661696c65640000000000000000000000000000000000600082015250565b60006125b7600f83611de9565b91506125c282612581565b602082019050919050565b600060208201905081810360008301526125e6816125aa565b9050919050565b60006125f882611819565b91507fffffffffffffffffffffffffffffffffffffffffffffffffffffffffffffffff820361262a576126296124c8565b5b60018201905091905056fea26469706673582212208f503eb5f51bcee9ff0864f42fcd7b1a059b54e8c07e55bbd2e5fedf3f0b88af64736f6c634300080d0033","linkReferences":{}},"methodIdentifiers":{"accumulatedFees()":"587f5ed7","createInvoice(address,string,string)":"37bbda1b","fee()":"ddca3f43","getInvoice(uint256)":"3a23cc0a","getReceivedInvoices(address)":"cf37613e","getSentInvoices(address)":"41f1c451","invoices(uint256)":"4e6d1405","owner()":"8da5cb5b","payInvoice(uint256)":"ac60a6cd","receivedInvoices(address,uint256)":"39524669","sentInvoices(address,uint256)":"05fac230","setFeeAmount(uint256)":"6b392680","setTreasuryAddress(address)":"6605bfda","treasuryAddress()":"c5f956af","withdrawFees()":"476343ee"},"id":18}