{"abi":[{"type":"function","name":"createInvoice","inputs":[{"name":"amountDue","type":"uint256","internalType":"uint256"},{"name":"to","type":"address","internalType":"address"}],"outputs":[],"stateMutability":"nonpayable"},{"type":"function","name":"getMyReceivedInvoices","inputs":[{"name":"add","type":"address","internalType":"address"}],"outputs":[{"name":"","type":"tuple[]","internalType":"struct Chainvoice.InvoiceDetails[]","components":[{"name":"id","type":"uint256","internalType":"uint256"},{"name":"from","type":"address","internalType":"address"},{"name":"to","type":"address","internalType":"address"},{"name":"amountDue","type":"uint256","internalType":"uint256"},{"name":"isPaid","type":"bool","internalType":"bool"}]}],"stateMutability":"view"},{"type":"function","name":"getMySentInvoices","inputs":[],"outputs":[{"name":"","type":"tuple[]","internalType":"struct Chainvoice.InvoiceDetails[]","components":[{"name":"id","type":"uint256","internalType":"uint256"},{"name":"from","type":"address","internalType":"address"},{"name":"to","type":"address","internalType":"address"},{"name":"amountDue","type":"uint256","internalType":"uint256"},{"name":"isPaid","type":"bool","internalType":"bool"}]}],"stateMutability":"view"},{"type":"function","name":"invoices","inputs":[{"name":"","type":"uint256","internalType":"uint256"}],"outputs":[{"name":"id","type":"uint256","internalType":"uint256"},{"name":"from","type":"address","internalType":"address"},{"name":"to","type":"address","internalType":"address"},{"name":"amountDue","type":"uint256","internalType":"uint256"},{"name":"isPaid","type":"bool","internalType":"bool"}],"stateMutability":"view"},{"type":"function","name":"payInvoice","inputs":[{"name":"invoiceId","type":"uint256","internalType":"uint256"}],"outputs":[],"stateMutability":"payable"},{"type":"function","name":"receivedInvoices","inputs":[{"name":"","type":"address","internalType":"address"},{"name":"","type":"uint256","internalType":"uint256"}],"outputs":[{"name":"","type":"uint256","internalType":"uint256"}],"stateMutability":"view"},{"type":"function","name":"sentInvoices","inputs":[{"name":"","type":"address","internalType":"address"},{"name":"","type":"uint256","internalType":"uint256"}],"outputs":[{"name":"","type":"uint256","internalType":"uint256"}],"stateMutability":"view"},{"type":"event","name":"InvoiceCreated","inputs":[{"name":"id","type":"uint256","indexed":false,"internalType":"uint256"},{"name":"from","type":"address","indexed":true,"internalType":"address"},{"name":"to","type":"address","indexed":true,"internalType":"address"},{"name":"amountDue","type":"uint256","indexed":false,"internalType":"uint256"}],"anonymous":false},{"type":"event","name":"InvoicePaid","inputs":[{"name":"id","type":"uint256","indexed":false,"internalType":"uint256"},{"name":"from","type":"address","indexed":true,"internalType":"address"},{"name":"to","type":"address","indexed":true,"internalType":"address"},{"name":"amountPaid","type":"uint256","indexed":false,"internalType":"uint256"}],"anonymous":false}],"bytecode":{"object":"0x608060405234801561001057600080fd5b50610b22806100206000396000f3fe6080604052600436106100705760003560e01c80635094e3471161004e5780635094e3471461011e5780637d26dae61461014b57806392f70af714610160578063ac60a6cd1461018257600080fd5b806305fac2301461007557806339524669146100a85780634e6d1405146100c8575b600080fd5b34801561008157600080fd5b5061009561009036600461098c565b610195565b6040519081526020015b60405180910390f35b3480156100b457600080fd5b506100956100c336600461098c565b6101c6565b3480156100d457600080fd5b506100e86100e33660046109b6565b6101e2565b604080519586526001600160a01b039485166020870152929093169184019190915260608301521515608082015260a00161009f565b34801561012a57600080fd5b5061013e6101393660046109cf565b610231565b60405161009f91906109f1565b34801561015757600080fd5b5061013e61025b565b34801561016c57600080fd5b5061018061017b366004610a6d565b61027b565b005b6101806101903660046109b6565b610544565b600160205281600052604060002081815481106101b157600080fd5b90600052602060002001600091509150505481565b600260205281600052604060002081815481106101b157600080fd5b600081815481106101f257600080fd5b6000918252602090912060059091020180546001820154600283015460038401546004909401549294506001600160a01b039182169391169160ff1685565b6001600160a01b0381166000908152600260205260409020606090610255906107b2565b92915050565b336000908152600160205260409020606090610276906107b2565b905090565b61028481610900565b600082116102d95760405162461bcd60e51b815260206004820181905260248201527f416d6f756e74206d7573742062652067726561746572207468616e207a65726f60448201526064015b60405180910390fd5b6001600160a01b03811661032f5760405162461bcd60e51b815260206004820152601f60248201527f526563656976657220616464726573732063616e6e6f74206265207a65726f0060448201526064016102d0565b336001600160a01b038216036103925760405162461bcd60e51b815260206004820152602260248201527f43616e6e6f742063726561746520696e766f69636520666f7220796f75727365604482015261363360f11b60648201526084016102d0565b600080546040805160a0810182528281523360208083018281526001600160a01b03888116858701818152606087018c8152608088018b81526001808c018d558c805298517f290decd9548b62a8d60345a988386fc84ba6bc95484008f6362f93160ef3e56360058d029081019190915595517f290decd9548b62a8d60345a988386fc84ba6bc95484008f6362f93160ef3e564870180546001600160a01b031990811692881692909217905592517f290decd9548b62a8d60345a988386fc84ba6bc95484008f6362f93160ef3e56587018054909416951694909417909155517f290decd9548b62a8d60345a988386fc84ba6bc95484008f6362f93160ef3e56684015590517f290decd9548b62a8d60345a988386fc84ba6bc95484008f6362f93160ef3e567909201805460ff191692151592909217909155828752838252848720805480860182559088528288200186905580875260028252848720805494850181558752958190209092018490558251848152918201879052929392917f88721abb1d35cff296c5d462601d6bdfed57e9493f8c361d2bcc24241a2ebfec91015b60405180910390a3505050565b600054811061058a5760405162461bcd60e51b8152602060048201526012602482015271125b9d985b1a59081a5b9d9bda58d948125160721b60448201526064016102d0565b600080828154811061059e5761059e610a99565b6000918252602090912060059091020160028101549091506001600160a01b031633146106185760405162461bcd60e51b815260206004820152602260248201527f4e6f7420617574686f72697a656420746f20706179207468697320696e766f69604482015261636560f01b60648201526084016102d0565b600481015460ff16156106645760405162461bcd60e51b8152602060048201526014602482015273125b9d9bda58d948185b1c9958591e481c185a5960621b60448201526064016102d0565b806003015434146106b75760405162461bcd60e51b815260206004820152601860248201527f496e636f7272656374207061796d656e7420616d6f756e74000000000000000060448201526064016102d0565b60018101546040516000916001600160a01b03169034908381818185875af1925050503d8060008114610706576040519150601f19603f3d011682016040523d82523d6000602084013e61070b565b606091505b505090508061075c5760405162461bcd60e51b815260206004820152601760248201527f5061796d656e74207472616e73666572206661696c656400000000000000000060448201526064016102d0565b60048201805460ff191660019081179091558201546040805185815234602082015233926001600160a01b0316917f4894261bc8821cd0e09696d6fa3e110c4034efc8f207633c1e1d16b7ea07fe7b9101610537565b805460609060009067ffffffffffffffff8111156107d2576107d2610aaf565b60405190808252806020026020018201604052801561082b57816020015b6040805160a0810182526000808252602080830182905292820181905260608201819052608082015282526000199092019101816107f05790505b50905060005b83548110156108f957600084828154811061084e5761084e610a99565b90600052602060002001548154811061086957610869610a99565b60009182526020918290206040805160a08101825260059093029091018054835260018101546001600160a01b03908116948401949094526002810154909316908201526003820154606082015260049091015460ff161515608082015282518390839081106108db576108db610a99565b602002602001018190525080806108f190610ac5565b915050610831565b5092915050565b6040516001600160a01b03821660248201526109489060440160408051601f198184030181529190526020810180516001600160e01b031663161765e160e11b17905261094b565b50565b6109488160006a636f6e736f6c652e6c6f679050600080835160208501845afa505050565b80356001600160a01b038116811461098757600080fd5b919050565b6000806040838503121561099f57600080fd5b6109a883610970565b946020939093013593505050565b6000602082840312156109c857600080fd5b5035919050565b6000602082840312156109e157600080fd5b6109ea82610970565b9392505050565b602080825282518282018190526000919060409081850190868401855b82811015610a6057815180518552868101516001600160a01b03908116888701528682015116868601526060808201519086015260809081015115159085015260a09093019290850190600101610a0e565b5091979650505050505050565b60008060408385031215610a8057600080fd5b82359150610a9060208401610970565b90509250929050565b634e487b7160e01b600052603260045260246000fd5b634e487b7160e01b600052604160045260246000fd5b600060018201610ae557634e487b7160e01b600052601160045260246000fd5b506001019056fea26469706673582212208359c4c96dcdd481a4a2050417a372552ebdc8266f2981fee3c4c917cb6a091864736f6c634300080d0033","linkReferences":{}},"methodIdentifiers":{"createInvoice(uint256,address)":"92f70af7","getMyReceivedInvoices(address)":"5094e347","getMySentInvoices()":"7d26dae6","invoices(uint256)":"4e6d1405","payInvoice(uint256)":"ac60a6cd","receivedInvoices(address,uint256)":"39524669","sentInvoices(address,uint256)":"05fac230"},"id":23}