{"abi":[{"type":"constructor","inputs":[{"name":"_priceFeed","type":"address","internalType":"address"}],"stateMutability":"nonpayable"},{"type":"function","name":"accumulatedFees","inputs":[],"outputs":[{"name":"","type":"uint256","internalType":"uint256"}],"stateMutability":"view"},{"type":"function","name":"createInvoice","inputs":[{"name":"amountDue","type":"uint256","internalType":"uint256"},{"name":"to","type":"address","internalType":"address"},{"name":"_dueDate","type":"string","internalType":"string"},{"name":"_issueDate","type":"string","internalType":"string"},{"name":"user","type":"tuple","internalType":"struct Chainvoice.UserDetails","components":[{"name":"fname","type":"string","internalType":"string"},{"name":"lname","type":"string","internalType":"string"},{"name":"email","type":"string","internalType":"string"},{"name":"country","type":"string","internalType":"string"},{"name":"city","type":"string","internalType":"string"},{"name":"postalcode","type":"string","internalType":"string"}]},{"name":"client","type":"tuple","internalType":"struct Chainvoice.UserDetails","components":[{"name":"fname","type":"string","internalType":"string"},{"name":"lname","type":"string","internalType":"string"},{"name":"email","type":"string","internalType":"string"},{"name":"country","type":"string","internalType":"string"},{"name":"city","type":"string","internalType":"string"},{"name":"postalcode","type":"string","internalType":"string"}]},{"name":"_items","type":"tuple[]","internalType":"struct Chainvoice.ItemData[]","components":[{"name":"description","type":"string","internalType":"string"},{"name":"qty","type":"int256","internalType":"int256"},{"name":"unitPrice","type":"int256","internalType":"int256"},{"name":"discount","type":"int256","internalType":"int256"},{"name":"tax","type":"int256","internalType":"int256"},{"name":"amount","type":"int256","internalType":"int256"}]}],"outputs":[],"stateMutability":"nonpayable"},{"type":"function","name":"feeAmountInUSD","inputs":[],"outputs":[{"name":"","type":"uint256","internalType":"uint256"}],"stateMutability":"view"},{"type":"function","name":"getMyReceivedInvoices","inputs":[{"name":"add","type":"address","internalType":"address"}],"outputs":[{"name":"","type":"tuple[]","internalType":"struct Chainvoice.InvoiceDetails[]","components":[{"name":"id","type":"uint256","internalType":"uint256"},{"name":"from","type":"address","internalType":"address"},{"name":"dueDate","type":"string","internalType":"string"},{"name":"issueDate","type":"string","internalType":"string"},{"name":"user","type":"tuple","internalType":"struct Chainvoice.UserDetails","components":[{"name":"fname","type":"string","internalType":"string"},{"name":"lname","type":"string","internalType":"string"},{"name":"email","type":"string","internalType":"string"},{"name":"country","type":"string","internalType":"string"},{"name":"city","type":"string","internalType":"string"},{"name":"postalcode","type":"string","internalType":"string"}]},{"name":"to","type":"address","internalType":"address"},{"name":"client","type":"tuple","internalType":"struct Chainvoice.UserDetails","components":[{"name":"fname","type":"string","internalType":"string"},{"name":"lname","type":"string","internalType":"string"},{"name":"email","type":"string","internalType":"string"},{"name":"country","type":"string","internalType":"string"},{"name":"city","type":"string","internalType":"string"},{"name":"postalcode","type":"string","internalType":"string"}]},{"name":"amountDue","type":"uint256","internalType":"uint256"},{"name":"isPaid","type":"bool","internalType":"bool"}]},{"name":"","type":"tuple[][]","internalType":"struct Chainvoice.ItemData[][]","components":[{"name":"description","type":"string","internalType":"string"},{"name":"qty","type":"int256","internalType":"int256"},{"name":"unitPrice","type":"int256","internalType":"int256"},{"name":"discount","type":"int256","internalType":"int256"},{"name":"tax","type":"int256","internalType":"int256"},{"name":"amount","type":"int256","internalType":"int256"}]}],"stateMutability":"view"},{"type":"function","name":"getMySentInvoices","inputs":[],"outputs":[{"name":"","type":"tuple[]","internalType":"struct Chainvoice.InvoiceDetails[]","components":[{"name":"id","type":"uint256","internalType":"uint256"},{"name":"from","type":"address","internalType":"address"},{"name":"dueDate","type":"string","internalType":"string"},{"name":"issueDate","type":"string","internalType":"string"},{"name":"user","type":"tuple","internalType":"struct Chainvoice.UserDetails","components":[{"name":"fname","type":"string","internalType":"string"},{"name":"lname","type":"string","internalType":"string"},{"name":"email","type":"string","internalType":"string"},{"name":"country","type":"string","internalType":"string"},{"name":"city","type":"string","internalType":"string"},{"name":"postalcode","type":"string","internalType":"string"}]},{"name":"to","type":"address","internalType":"address"},{"name":"client","type":"tuple","internalType":"struct Chainvoice.UserDetails","components":[{"name":"fname","type":"string","internalType":"string"},{"name":"lname","type":"string","internalType":"string"},{"name":"email","type":"string","internalType":"string"},{"name":"country","type":"string","internalType":"string"},{"name":"city","type":"string","internalType":"string"},{"name":"postalcode","type":"string","internalType":"string"}]},{"name":"amountDue","type":"uint256","internalType":"uint256"},{"name":"isPaid","type":"bool","internalType":"bool"}]},{"name":"","type":"tuple[][]","internalType":"struct Chainvoice.ItemData[][]","components":[{"name":"description","type":"string","internalType":"string"},{"name":"qty","type":"int256","internalType":"int256"},{"name":"unitPrice","type":"int256","internalType":"int256"},{"name":"discount","type":"int256","internalType":"int256"},{"name":"tax","type":"int256","internalType":"int256"},{"name":"amount","type":"int256","internalType":"int256"}]}],"stateMutability":"view"},{"type":"function","name":"getTreasuryAddress","inputs":[],"outputs":[{"name":"","type":"address","internalType":"address"}],"stateMutability":"view"},{"type":"function","name":"invoices","inputs":[{"name":"","type":"uint256","internalType":"uint256"}],"outputs":[{"name":"id","type":"uint256","internalType":"uint256"},{"name":"from","type":"address","internalType":"address"},{"name":"dueDate","type":"string","internalType":"string"},{"name":"issueDate","type":"string","internalType":"string"},{"name":"user","type":"tuple","internalType":"struct Chainvoice.UserDetails","components":[{"name":"fname","type":"string","internalType":"string"},{"name":"lname","type":"string","internalType":"string"},{"name":"email","type":"string","internalType":"string"},{"name":"country","type":"string","internalType":"string"},{"name":"city","type":"string","internalType":"string"},{"name":"postalcode","type":"string","internalType":"string"}]},{"name":"to","type":"address","internalType":"address"},{"name":"client","type":"tuple","internalType":"struct Chainvoice.UserDetails","components":[{"name":"fname","type":"string","internalType":"string"},{"name":"lname","type":"string","internalType":"string"},{"name":"email","type":"string","internalType":"string"},{"name":"country","type":"string","internalType":"string"},{"name":"city","type":"string","internalType":"string"},{"name":"postalcode","type":"string","internalType":"string"}]},{"name":"amountDue","type":"uint256","internalType":"uint256"},{"name":"isPaid","type":"bool","internalType":"bool"}],"stateMutability":"view"},{"type":"function","name":"itemDatas","inputs":[{"name":"","type":"uint256","internalType":"uint256"},{"name":"","type":"uint256","internalType":"uint256"}],"outputs":[{"name":"description","type":"string","internalType":"string"},{"name":"qty","type":"int256","internalType":"int256"},{"name":"unitPrice","type":"int256","internalType":"int256"},{"name":"discount","type":"int256","internalType":"int256"},{"name":"tax","type":"int256","internalType":"int256"},{"name":"amount","type":"int256","internalType":"int256"}],"stateMutability":"view"},{"type":"function","name":"owner","inputs":[],"outputs":[{"name":"","type":"address","internalType":"address"}],"stateMutability":"view"},{"type":"function","name":"payInvoice","inputs":[{"name":"invoiceId","type":"uint256","internalType":"uint256"}],"outputs":[],"stateMutability":"payable"},{"type":"function","name":"receivedInvoices","inputs":[{"name":"","type":"address","internalType":"address"},{"name":"","type":"uint256","internalType":"uint256"}],"outputs":[{"name":"","type":"uint256","internalType":"uint256"}],"stateMutability":"view"},{"type":"function","name":"sentInvoices","inputs":[{"name":"","type":"address","internalType":"address"},{"name":"","type":"uint256","internalType":"uint256"}],"outputs":[{"name":"","type":"uint256","internalType":"uint256"}],"stateMutability":"view"},{"type":"function","name":"setFeeAmount","inputs":[{"name":"fee","type":"uint16","internalType":"uint16"}],"outputs":[],"stateMutability":"nonpayable"},{"type":"function","name":"setTreasuryAddress","inputs":[{"name":"add","type":"address","internalType":"address"}],"outputs":[],"stateMutability":"nonpayable"},{"type":"function","name":"treasuryAddress","inputs":[],"outputs":[{"name":"","type":"address","internalType":"address"}],"stateMutability":"view"},{"type":"function","name":"usdToNativeCurrencyConversion","inputs":[],"outputs":[{"name":"","type":"uint256","internalType":"uint256"}],"stateMutability":"view"},{"type":"function","name":"withdraw","inputs":[],"outputs":[],"stateMutability":"nonpayable"},{"type":"event","name":"InvoiceCreated","inputs":[{"name":"id","type":"uint256","indexed":false,"internalType":"uint256"},{"name":"from","type":"address","indexed":true,"internalType":"address"},{"name":"to","type":"address","indexed":true,"internalType":"address"},{"name":"amountDue","type":"uint256","indexed":false,"internalType":"uint256"}],"anonymous":false},{"type":"event","name":"InvoicePaid","inputs":[{"name":"id","type":"uint256","indexed":false,"internalType":"uint256"},{"name":"from","type":"address","indexed":true,"internalType":"address"},{"name":"to","type":"address","indexed":true,"internalType":"address"},{"name":"amountPaid","type":"uint256","indexed":false,"internalType":"uint256"}],"anonymous":false}],"bytecode":{"object":"0x60806040523480156200001157600080fd5b5060405162002f7738038062002f7783398101604081905262000034916200006f565b600080546001600160a01b039092166001600160a01b03199283161790556005805490911633179055670de0b6b3a7640000600755620000a1565b6000602082840312156200008257600080fd5b81516001600160a01b03811681146200009a57600080fd5b9392505050565b612ec680620000b16000396000f3fe6080604052600436106100fe5760003560e01c80636605bfda116100955780639dcdd30a116100645780639dcdd30a146102a8578063ac60a6cd146102da578063c5f956af146102ed578063e00246041461030d578063e848a6731461032b57600080fd5b80636605bfda146102265780636acebf85146102465780637d26dae61461025b5780638da5cb5b1461027057600080fd5b80634e6d1405116100d15780634e6d14051461018d5780635094e347146101c2578063587f5ed7146101f057806364dd0a9a1461020657600080fd5b806305fac230146101035780632758e7b11461013657806339524669146101585780633ccfd60b14610178575b600080fd5b34801561010f57600080fd5b5061012361011e3660046124bb565b610341565b6040519081526020015b60405180910390f35b34801561014257600080fd5b506101566101513660046124e5565b610372565b005b34801561016457600080fd5b506101236101733660046124bb565b6103f2565b34801561018457600080fd5b5061015661040e565b34801561019957600080fd5b506101ad6101a8366004612510565b610501565b60405161012d99989796959493929190612615565b3480156101ce57600080fd5b506101e26101dd3660046126a4565b610d72565b60405161012d9291906127a0565b3480156101fc57600080fd5b5061012360085481565b34801561021257600080fd5b50610156610221366004612bbd565b610da1565b34801561023257600080fd5b506101566102413660046126a4565b6112a0565b34801561025257600080fd5b5061012361137e565b34801561026757600080fd5b506101e2611478565b34801561027c57600080fd5b50600554610290906001600160a01b031681565b6040516001600160a01b03909116815260200161012d565b3480156102b457600080fd5b506102c86102c3366004612ca9565b61149d565b60405161012d96959493929190612ccb565b6101566102e8366004612510565b61157e565b3480156102f957600080fd5b50600654610290906001600160a01b031681565b34801561031957600080fd5b506006546001600160a01b0316610290565b34801561033757600080fd5b5061012360075481565b6002602052816000526040600020818154811061035d57600080fd5b90600052602060002001600091509150505481565b6005546001600160a01b031633146103cc5760405162461bcd60e51b81526020600482015260186024820152774f6e6c79204f776e65722069732061636365737369626c6560401b60448201526064015b60405180910390fd5b6103e261ffff8216670de0b6b3a7640000612d1d565b67ffffffffffffffff1660075550565b6003602052816000526040600020818154811061035d57600080fd5b6000600854116104565760405162461bcd60e51b81526020600482015260136024820152724e6f206665657320746f20776974686472617760681b60448201526064016103c3565b600880546000918290556006546040519192916001600160a01b039091169083908381818185875af1925050503d80600081146104af576040519150601f19603f3d011682016040523d82523d6000602084013e6104b4565b606091505b50509050806104fd5760405162461bcd60e51b8152602060048201526015602482015274119959481dda5d1a191c985dd85b0819985a5b1959605a1b60448201526064016103c3565b5050565b6001818154811061051157600080fd5b60009182526020909120601390910201805460018201546002830180549294506001600160a01b03909116929161054790612d4d565b80601f016020809104026020016040519081016040528092919081815260200182805461057390612d4d565b80156105c05780601f10610595576101008083540402835291602001916105c0565b820191906000526020600020905b8154815290600101906020018083116105a357829003601f168201915b5050505050908060030180546105d590612d4d565b80601f016020809104026020016040519081016040528092919081815260200182805461060190612d4d565b801561064e5780601f106106235761010080835404028352916020019161064e565b820191906000526020600020905b81548152906001019060200180831161063157829003601f168201915b505050505090806004016040518060c001604052908160008201805461067390612d4d565b80601f016020809104026020016040519081016040528092919081815260200182805461069f90612d4d565b80156106ec5780601f106106c1576101008083540402835291602001916106ec565b820191906000526020600020905b8154815290600101906020018083116106cf57829003601f168201915b5050505050815260200160018201805461070590612d4d565b80601f016020809104026020016040519081016040528092919081815260200182805461073190612d4d565b801561077e5780601f106107535761010080835404028352916020019161077e565b820191906000526020600020905b81548152906001019060200180831161076157829003601f168201915b5050505050815260200160028201805461079790612d4d565b80601f01602080910402602001604051908101604052809291908181526020018280546107c390612d4d565b80156108105780601f106107e557610100808354040283529160200191610810565b820191906000526020600020905b8154815290600101906020018083116107f357829003601f168201915b5050505050815260200160038201805461082990612d4d565b80601f016020809104026020016040519081016040528092919081815260200182805461085590612d4d565b80156108a25780601f10610877576101008083540402835291602001916108a2565b820191906000526020600020905b81548152906001019060200180831161088557829003601f168201915b505050505081526020016004820180546108bb90612d4d565b80601f01602080910402602001604051908101604052809291908181526020018280546108e790612d4d565b80156109345780601f1061090957610100808354040283529160200191610934565b820191906000526020600020905b81548152906001019060200180831161091757829003601f168201915b5050505050815260200160058201805461094d90612d4d565b80601f016020809104026020016040519081016040528092919081815260200182805461097990612d4d565b80156109c65780601f1061099b576101008083540402835291602001916109c6565b820191906000526020600020905b8154815290600101906020018083116109a957829003601f168201915b50505091909252505050600a8201546040805160c08101909152600b8401805493946001600160a01b039093169382908290610a0190612d4d565b80601f0160208091040260200160405190810160405280929190818152602001828054610a2d90612d4d565b8015610a7a5780601f10610a4f57610100808354040283529160200191610a7a565b820191906000526020600020905b815481529060010190602001808311610a5d57829003601f168201915b50505050508152602001600182018054610a9390612d4d565b80601f0160208091040260200160405190810160405280929190818152602001828054610abf90612d4d565b8015610b0c5780601f10610ae157610100808354040283529160200191610b0c565b820191906000526020600020905b815481529060010190602001808311610aef57829003601f168201915b50505050508152602001600282018054610b2590612d4d565b80601f0160208091040260200160405190810160405280929190818152602001828054610b5190612d4d565b8015610b9e5780601f10610b7357610100808354040283529160200191610b9e565b820191906000526020600020905b815481529060010190602001808311610b8157829003601f168201915b50505050508152602001600382018054610bb790612d4d565b80601f0160208091040260200160405190810160405280929190818152602001828054610be390612d4d565b8015610c305780601f10610c0557610100808354040283529160200191610c30565b820191906000526020600020905b815481529060010190602001808311610c1357829003601f168201915b50505050508152602001600482018054610c4990612d4d565b80601f0160208091040260200160405190810160405280929190818152602001828054610c7590612d4d565b8015610cc25780601f10610c9757610100808354040283529160200191610cc2565b820191906000526020600020905b815481529060010190602001808311610ca557829003601f168201915b50505050508152602001600582018054610cdb90612d4d565b80601f0160208091040260200160405190810160405280929190818152602001828054610d0790612d4d565b8015610d545780601f10610d2957610100808354040283529160200191610d54565b820191906000526020600020905b815481529060010190602001808311610d3757829003601f168201915b50505091909252505050601182015460129092015490919060ff1689565b6001600160a01b03811660009081526003602052604090206060908190610d9890611803565b91509150915091565b60008711610df15760405162461bcd60e51b815260206004820181905260248201527f416d6f756e74206d7573742062652067726561746572207468616e207a65726f60448201526064016103c3565b6001600160a01b038616610e475760405162461bcd60e51b815260206004820152601f60248201527f526563656976657220616464726573732063616e6e6f74206265207a65726f0060448201526064016103c3565b336001600160a01b03871603610eaa5760405162461bcd60e51b815260206004820152602260248201527f43616e6e6f742063726561746520696e766f69636520666f7220796f75727365604482015261363360f11b60648201526084016103c3565b6001805460408051610120810182528281523360208083019182529282018a8152606083018a9052608083018990526001600160a01b038c811660a085015260c0840189905260e084018e90526000610100850181905286880188559690965282517fb10e2d527612073b26eecdfd717e6a320cf44b4afac2b0732d9fcbe2b7fa0cf66013870290810191825592517fb10e2d527612073b26eecdfd717e6a320cf44b4afac2b0732d9fcbe2b7fa0cf7840180546001600160a01b0319169190981617909655518051949592949293610faa937fb10e2d527612073b26eecdfd717e6a320cf44b4afac2b0732d9fcbe2b7fa0cf89093019291019061233a565b5060608201518051610fc691600384019160209091019061233a565b506080820151805180516004840191610fe49183916020019061233a565b506020828101518051610ffd926001850192019061233a565b506040820151805161101991600284019160209091019061233a565b506060820151805161103591600384019160209091019061233a565b506080820151805161105191600484019160209091019061233a565b5060a0820151805161106d91600584019160209091019061233a565b50505060a0820151600a820180546001600160a01b0319166001600160a01b0390921691909117905560c082015180518051600b8401916110b39183916020019061233a565b5060208281015180516110cc926001850192019061233a565b50604082015180516110e891600284019160209091019061233a565b506060820151805161110491600384019160209091019061233a565b506080820151805161112091600484019160209091019061233a565b5060a0820151805161113c91600584019160209091019061233a565b50505060e08201516011820155610100909101516012909101805460ff191691151591909117905560005b8251811015611212576000828152600460205260409020835184908390811061119257611192612d87565b6020908102919091018101518254600181018455600093845292829020815180519294600602909101926111cb9284929091019061233a565b506020820151600182015560408201516002820155606082015160038201556080820151600482015560a0909101516005909101558061120a81612d9d565b915050611167565b50336000818152600260209081526040808320805460018082018355918552838520018690556001600160a01b038c1680855260038452828520805492830181558552938390200185905580518581529182018c90529192917f88721abb1d35cff296c5d462601d6bdfed57e9493f8c361d2bcc24241a2ebfec910160405180910390a35050505050505050565b6005546001600160a01b031633146112f55760405162461bcd60e51b81526020600482015260186024820152774f6e6c79204f776e65722069732061636365737369626c6560401b60448201526064016103c3565b6001600160a01b03811661135c5760405162461bcd60e51b815260206004820152602860248201527f547265617375727920416464726573732063616e6e6f7420626520657175616c60448201526720746f207a65726f60c01b60648201526084016103c3565b600680546001600160a01b0319166001600160a01b0392909216919091179055565b6000805460408051633fabe5a360e21b8152905183926001600160a01b03169163feaf968c9160048083019260a09291908290030181865afa1580156113c8573d6000803e3d6000fd5b505050506040513d601f19601f820116820180604052508101906113ec9190612dd0565b505050915050600081136114375760405162461bcd60e51b8152602060048201526012602482015271496e76616c6964207072696365206461746160701b60448201526064016103c3565b806000611449826402540be400612e20565b90506000600754670de0b6b3a76400006114639190612e20565b905061146f8282612e3f565b94505050505090565b336000908152600260205260409020606090819061149590611803565b915091509091565b600460205281600052604060002081815481106114b957600080fd5b9060005260206000209060060201600091509150508060000180546114dd90612d4d565b80601f016020809104026020016040519081016040528092919081815260200182805461150990612d4d565b80156115565780601f1061152b57610100808354040283529160200191611556565b820191906000526020600020905b81548152906001019060200180831161153957829003601f168201915b5050505050908060010154908060020154908060030154908060040154908060050154905086565b60015481106115c45760405162461bcd60e51b8152602060048201526012602482015271125b9d985b1a59081a5b9d9bda58d948125160721b60448201526064016103c3565b6000600182815481106115d9576115d9612d87565b60009182526020909120601390910201600a8101549091506001600160a01b031633146116535760405162461bcd60e51b815260206004820152602260248201527f4e6f7420617574686f72697a656420746f20706179207468697320696e766f69604482015261636560f01b60648201526084016103c3565b601281015460ff161561169f5760405162461bcd60e51b8152602060048201526014602482015273125b9d9bda58d948185b1c9958591e481c185a5960621b60448201526064016103c3565b60006116a961137e565b90508082601101546116bb9190612e61565b3410156117205760405162461bcd60e51b815260206004820152602d60248201527f5061796d656e74206d75737420636f7665722074686520696e766f696365206160448201526c6d6f756e7420616e642066656560981b60648201526084016103c3565b600061172c8234612e79565b60018401546040519192506000916001600160a01b039091169083908381818185875af1925050503d8060008114611780576040519150601f19603f3d011682016040523d82523d6000602084013e611785565b606091505b50509050806117d65760405162461bcd60e51b815260206004820152601760248201527f5061796d656e74207472616e73666572206661696c656400000000000000000060448201526064016103c3565b82600860008282546117e89190612e61565b9091555050506012909201805460ff19166001179055505050565b6060806000838054905067ffffffffffffffff811115611825576118256128cd565b60405190808252806020026020018201604052801561185e57816020015b61184b6123be565b8152602001906001900390816118435790505b50845490915060009067ffffffffffffffff81111561187f5761187f6128cd565b6040519080825280602002602001820160405280156118b257816020015b606081526020019060019003908161189d5790505b50905060005b855481101561232f5760018682815481106118d5576118d5612d87565b9060005260206000200154815481106118f0576118f0612d87565b906000526020600020906013020160405180610120016040529081600082015481526020016001820160009054906101000a90046001600160a01b03166001600160a01b03166001600160a01b0316815260200160028201805461195390612d4d565b80601f016020809104026020016040519081016040528092919081815260200182805461197f90612d4d565b80156119cc5780601f106119a1576101008083540402835291602001916119cc565b820191906000526020600020905b8154815290600101906020018083116119af57829003601f168201915b505050505081526020016003820180546119e590612d4d565b80601f0160208091040260200160405190810160405280929190818152602001828054611a1190612d4d565b8015611a5e5780601f10611a3357610100808354040283529160200191611a5e565b820191906000526020600020905b815481529060010190602001808311611a4157829003601f168201915b50505050508152602001600482016040518060c0016040529081600082018054611a8790612d4d565b80601f0160208091040260200160405190810160405280929190818152602001828054611ab390612d4d565b8015611b005780601f10611ad557610100808354040283529160200191611b00565b820191906000526020600020905b815481529060010190602001808311611ae357829003601f168201915b50505050508152602001600182018054611b1990612d4d565b80601f0160208091040260200160405190810160405280929190818152602001828054611b4590612d4d565b8015611b925780601f10611b6757610100808354040283529160200191611b92565b820191906000526020600020905b815481529060010190602001808311611b7557829003601f168201915b50505050508152602001600282018054611bab90612d4d565b80601f0160208091040260200160405190810160405280929190818152602001828054611bd790612d4d565b8015611c245780601f10611bf957610100808354040283529160200191611c24565b820191906000526020600020905b815481529060010190602001808311611c0757829003601f168201915b50505050508152602001600382018054611c3d90612d4d565b80601f0160208091040260200160405190810160405280929190818152602001828054611c6990612d4d565b8015611cb65780601f10611c8b57610100808354040283529160200191611cb6565b820191906000526020600020905b815481529060010190602001808311611c9957829003601f168201915b50505050508152602001600482018054611ccf90612d4d565b80601f0160208091040260200160405190810160405280929190818152602001828054611cfb90612d4d565b8015611d485780601f10611d1d57610100808354040283529160200191611d48565b820191906000526020600020905b815481529060010190602001808311611d2b57829003601f168201915b50505050508152602001600582018054611d6190612d4d565b80601f0160208091040260200160405190810160405280929190818152602001828054611d8d90612d4d565b8015611dda5780601f10611daf57610100808354040283529160200191611dda565b820191906000526020600020905b815481529060010190602001808311611dbd57829003601f168201915b505050919092525050508152600a8201546001600160a01b031660208201526040805160c081018252600b840180549290930192909182908290611e1d90612d4d565b80601f0160208091040260200160405190810160405280929190818152602001828054611e4990612d4d565b8015611e965780601f10611e6b57610100808354040283529160200191611e96565b820191906000526020600020905b815481529060010190602001808311611e7957829003601f168201915b50505050508152602001600182018054611eaf90612d4d565b80601f0160208091040260200160405190810160405280929190818152602001828054611edb90612d4d565b8015611f285780601f10611efd57610100808354040283529160200191611f28565b820191906000526020600020905b815481529060010190602001808311611f0b57829003601f168201915b50505050508152602001600282018054611f4190612d4d565b80601f0160208091040260200160405190810160405280929190818152602001828054611f6d90612d4d565b8015611fba5780601f10611f8f57610100808354040283529160200191611fba565b820191906000526020600020905b815481529060010190602001808311611f9d57829003601f168201915b50505050508152602001600382018054611fd390612d4d565b80601f0160208091040260200160405190810160405280929190818152602001828054611fff90612d4d565b801561204c5780601f106120215761010080835404028352916020019161204c565b820191906000526020600020905b81548152906001019060200180831161202f57829003601f168201915b5050505050815260200160048201805461206590612d4d565b80601f016020809104026020016040519081016040528092919081815260200182805461209190612d4d565b80156120de5780601f106120b3576101008083540402835291602001916120de565b820191906000526020600020905b8154815290600101906020018083116120c157829003601f168201915b505050505081526020016005820180546120f790612d4d565b80601f016020809104026020016040519081016040528092919081815260200182805461212390612d4d565b80156121705780601f1061214557610100808354040283529160200191612170565b820191906000526020600020905b81548152906001019060200180831161215357829003601f168201915b5050509190925250505081526011820154602082015260129091015460ff16151560409091015283518490839081106121ab576121ab612d87565b6020026020010181905250600460008783815481106121cc576121cc612d87565b90600052602060002001548152602001908152602001600020805480602002602001604051908101604052809291908181526020016000905b828210156122fb57838290600052602060002090600602016040518060c001604052908160008201805461223890612d4d565b80601f016020809104026020016040519081016040528092919081815260200182805461226490612d4d565b80156122b15780601f10612286576101008083540402835291602001916122b1565b820191906000526020600020905b81548152906001019060200180831161229457829003601f168201915b505050505081526020016001820154815260200160028201548152602001600382015481526020016004820154815260200160058201548152505081526020019060010190612205565b5050505082828151811061231157612311612d87565b6020026020010181905250808061232790612d9d565b9150506118b8565b509094909350915050565b82805461234690612d4d565b90600052602060002090601f01602090048101928261236857600085556123ae565b82601f1061238157805160ff19168380011785556123ae565b828001600101855582156123ae579182015b828111156123ae578251825591602001919060010190612393565b506123ba92915061248a565b5090565b6040518061012001604052806000815260200160006001600160a01b0316815260200160608152602001606081526020016124286040518060c001604052806060815260200160608152602001606081526020016060815260200160608152602001606081525090565b815260200160006001600160a01b031681526020016124766040518060c001604052806060815260200160608152602001606081526020016060815260200160608152602001606081525090565b815260006020820181905260409091015290565b5b808211156123ba576000815560010161248b565b80356001600160a01b03811681146124b657600080fd5b919050565b600080604083850312156124ce57600080fd5b6124d78361249f565b946020939093013593505050565b6000602082840312156124f757600080fd5b813561ffff8116811461250957600080fd5b9392505050565b60006020828403121561252257600080fd5b5035919050565b6000815180845260005b8181101561254f57602081850181015186830182015201612533565b81811115612561576000602083870101525b50601f01601f19169290920160200192915050565b6000815160c0845261258b60c0850182612529565b9050602083015184820360208601526125a48282612529565b915050604083015184820360408601526125be8282612529565b915050606083015184820360608601526125d88282612529565b915050608083015184820360808601526125f28282612529565b91505060a083015184820360a086015261260c8282612529565b95945050505050565b8981526001600160a01b038981166020830152610120604083018190526000916126418483018c612529565b91508382036060850152612655828b612529565b91508382036080850152612669828a612576565b90881660a085015283810360c085015290506126858187612576565b60e0840195909552505090151561010090910152979650505050505050565b6000602082840312156126b657600080fd5b6125098261249f565b600081518084526020808501808196506005915083821b81018387016000805b87811015612791578484038b5282518051808652908801908886019080891b87018a01855b8281101561277b57601f19898303018452845160c0815181855261272a82860182612529565b9150508d8201518e85015260408083015181860152506060808301518186015250608080830151818601525060a080830151818601525080935050508b850194508b84019350600181019050612704565b509d8a019d9650505092870192506001016126df565b50919998505050505050505050565b60006040808301818452808651808352606092508286019150828160051b8701016020808a0160005b848110156128ad57605f198a8503018652815180518552838101516001600160a01b031684860152888101516101208a87018190529061280b82880182612529565b915050888201518682038a8801526128238282612529565b9150506080808301518783038289015261283d8382612576565b9250505060a08083015161285b828901826001600160a01b03169052565b505060c080830151878303828901526128748382612576565b9250505060e08083015181880152506101008083015192506128998188018415159052565b5096840196945050908201906001016127c9565b5050878203908801526128c081896126bf565b9998505050505050505050565b634e487b7160e01b600052604160045260246000fd5b60405160c0810167ffffffffffffffff81118282101715612906576129066128cd565b60405290565b604051601f8201601f1916810167ffffffffffffffff81118282101715612935576129356128cd565b604052919050565b600082601f83011261294e57600080fd5b813567ffffffffffffffff811115612968576129686128cd565b61297b601f8201601f191660200161290c565b81815284602083860101111561299057600080fd5b816020850160208301376000918101602001919091529392505050565b600060c082840312156129bf57600080fd5b6129c76128e3565b9050813567ffffffffffffffff808211156129e157600080fd5b6129ed8583860161293d565b83526020840135915080821115612a0357600080fd5b612a0f8583860161293d565b60208401526040840135915080821115612a2857600080fd5b612a348583860161293d565b60408401526060840135915080821115612a4d57600080fd5b612a598583860161293d565b60608401526080840135915080821115612a7257600080fd5b612a7e8583860161293d565b608084015260a0840135915080821115612a9757600080fd5b50612aa48482850161293d565b60a08301525092915050565b600082601f830112612ac157600080fd5b8135602067ffffffffffffffff80831115612ade57612ade6128cd565b8260051b612aed83820161290c565b9384528581018301938381019088861115612b0757600080fd5b84880192505b85831015612bb157823584811115612b255760008081fd5b880160c0818b03601f1901811315612b3d5760008081fd5b612b456128e3565b8783013587811115612b575760008081fd5b612b658d8a8387010161293d565b82525060408381013589830152606080850135918301919091526080808501359183019190915260a0808501359183019190915291909201359082015282529184019190840190612b0d565b98975050505050505050565b600080600080600080600060e0888a031215612bd857600080fd5b87359650612be86020890161249f565b9550604088013567ffffffffffffffff80821115612c0557600080fd5b612c118b838c0161293d565b965060608a0135915080821115612c2757600080fd5b612c338b838c0161293d565b955060808a0135915080821115612c4957600080fd5b612c558b838c016129ad565b945060a08a0135915080821115612c6b57600080fd5b612c778b838c016129ad565b935060c08a0135915080821115612c8d57600080fd5b50612c9a8a828b01612ab0565b91505092959891949750929550565b60008060408385031215612cbc57600080fd5b50508035926020909101359150565b60c081526000612cde60c0830189612529565b60208301979097525060408101949094526060840192909252608083015260a090910152919050565b634e487b7160e01b600052601160045260246000fd5b600067ffffffffffffffff80831681851681830481118215151615612d4457612d44612d07565b02949350505050565b600181811c90821680612d6157607f821691505b602082108103612d8157634e487b7160e01b600052602260045260246000fd5b50919050565b634e487b7160e01b600052603260045260246000fd5b600060018201612daf57612daf612d07565b5060010190565b805169ffffffffffffffffffff811681146124b657600080fd5b600080600080600060a08688031215612de857600080fd5b612df186612db6565b9450602086015193506040860151925060608601519150612e1460808701612db6565b90509295509295909350565b6000816000190483118215151615612e3a57612e3a612d07565b500290565b600082612e5c57634e487b7160e01b600052601260045260246000fd5b500490565b60008219821115612e7457612e74612d07565b500190565b600082821015612e8b57612e8b612d07565b50039056fea2646970667358221220f04a48fb49e7585f35a930a794ae0f77905a2500e512b5c24b425764f8c9db7764736f6c634300080d0033","linkReferences":{}},"methodIdentifiers":{"accumulatedFees()":"587f5ed7","createInvoice(uint256,address,string,string,(string,string,string,string,string,string),(string,string,string,string,string,string),(string,int256,int256,int256,int256,int256)[])":"64dd0a9a","feeAmountInUSD()":"e848a673","getMyReceivedInvoices(address)":"5094e347","getMySentInvoices()":"7d26dae6","getTreasuryAddress()":"e0024604","invoices(uint256)":"4e6d1405","itemDatas(uint256,uint256)":"9dcdd30a","owner()":"8da5cb5b","payInvoice(uint256)":"ac60a6cd","receivedInvoices(address,uint256)":"39524669","sentInvoices(address,uint256)":"05fac230","setFeeAmount(uint16)":"2758e7b1","setTreasuryAddress(address)":"6605bfda","treasuryAddress()":"c5f956af","usdToNativeCurrencyConversion()":"6acebf85","withdraw()":"3ccfd60b"},"id":24}